{
	"storageFactory.sol": {
		"StorageFactory": {
			"abi": [
				{
					"inputs": [
						{
							"internalType": "string",
							"name": "_name",
							"type": "string"
						},
						{
							"internalType": "uint256",
							"name": "_favoriteNumber",
							"type": "uint256"
						}
					],
					"name": "addPerson",
					"outputs": [],
					"stateMutability": "nonpayable",
					"type": "function"
				},
				{
					"inputs": [],
					"name": "createSimpleStorageContract",
					"outputs": [],
					"stateMutability": "nonpayable",
					"type": "function"
				},
				{
					"inputs": [],
					"name": "favoriteNumber",
					"outputs": [
						{
							"internalType": "uint256",
							"name": "",
							"type": "uint256"
						}
					],
					"stateMutability": "view",
					"type": "function"
				},
				{
					"inputs": [
						{
							"internalType": "string",
							"name": "",
							"type": "string"
						}
					],
					"name": "nameToFavoriteNumber",
					"outputs": [
						{
							"internalType": "uint256",
							"name": "",
							"type": "uint256"
						}
					],
					"stateMutability": "view",
					"type": "function"
				},
				{
					"inputs": [
						{
							"internalType": "uint256",
							"name": "",
							"type": "uint256"
						}
					],
					"name": "people",
					"outputs": [
						{
							"internalType": "uint256",
							"name": "favoriteNumber",
							"type": "uint256"
						},
						{
							"internalType": "string",
							"name": "name",
							"type": "string"
						}
					],
					"stateMutability": "view",
					"type": "function"
				},
				{
					"inputs": [],
					"name": "retrieve",
					"outputs": [
						{
							"internalType": "uint256",
							"name": "",
							"type": "uint256"
						}
					],
					"stateMutability": "view",
					"type": "function"
				},
				{
					"inputs": [
						{
							"internalType": "uint256",
							"name": "_simpleStorageIndex",
							"type": "uint256"
						}
					],
					"name": "sfGet",
					"outputs": [
						{
							"internalType": "uint256",
							"name": "",
							"type": "uint256"
						}
					],
					"stateMutability": "view",
					"type": "function"
				},
				{
					"inputs": [
						{
							"internalType": "uint256",
							"name": "_simpleStorageIndex",
							"type": "uint256"
						},
						{
							"internalType": "uint256",
							"name": "_simpleStorageNumber",
							"type": "uint256"
						}
					],
					"name": "sfStore",
					"outputs": [],
					"stateMutability": "nonpayable",
					"type": "function"
				},
				{
					"inputs": [
						{
							"internalType": "uint256",
							"name": "",
							"type": "uint256"
						}
					],
					"name": "simpleStorageArray",
					"outputs": [
						{
							"internalType": "contract SimpleStorage",
							"name": "",
							"type": "address"
						}
					],
					"stateMutability": "view",
					"type": "function"
				},
				{
					"inputs": [
						{
							"internalType": "uint256",
							"name": "_favoriteNumber",
							"type": "uint256"
						}
					],
					"name": "store",
					"outputs": [],
					"stateMutability": "nonpayable",
					"type": "function"
				}
			],
			"devdoc": {
				"kind": "dev",
				"methods": {},
				"version": 1
			},
			"evm": {
				"assembly": "    /* \"storageFactory.sol\":95:845  contract StorageFactory is SimpleStorage{\r... */\n  mstore(0x40, 0x80)\n    /* \"SimpleStorage.sol\":172:173  5 */\n  0x05\n    /* \"SimpleStorage.sol\":140:173  uint256 public favoriteNumber = 5 */\n  0x00\n  sstore\n    /* \"storageFactory.sol\":95:845  contract StorageFactory is SimpleStorage{\r... */\n  callvalue\n  dup1\n  iszero\n  tag_1\n  jumpi\n  0x00\n  dup1\n  revert\ntag_1:\n  pop\n  dataSize(sub_0)\n  dup1\n  dataOffset(sub_0)\n  0x00\n  codecopy\n  0x00\n  return\nstop\n\nsub_0: assembly {\n        /* \"storageFactory.sol\":95:845  contract StorageFactory is SimpleStorage{\r... */\n      mstore(0x40, 0x80)\n      callvalue\n      dup1\n      iszero\n      tag_1\n      jumpi\n      0x00\n      dup1\n      revert\n    tag_1:\n      pop\n      jumpi(tag_2, lt(calldatasize, 0x04))\n      shr(0xe0, calldataload(0x00))\n      dup1\n      0x64591bf1\n      gt\n      tag_13\n      jumpi\n      dup1\n      0x64591bf1\n      eq\n      tag_8\n      jumpi\n      dup1\n      0x6f760f41\n      eq\n      tag_9\n      jumpi\n      dup1\n      0x8bab8dd5\n      eq\n      tag_10\n      jumpi\n      dup1\n      0x9e7a13ad\n      eq\n      tag_11\n      jumpi\n      dup1\n      0xc5f19c20\n      eq\n      tag_12\n      jumpi\n      jump(tag_2)\n    tag_13:\n      dup1\n      0x1563700f\n      eq\n      tag_3\n      jumpi\n      dup1\n      0x1dda6541\n      eq\n      tag_4\n      jumpi\n      dup1\n      0x2e64cec1\n      eq\n      tag_5\n      jumpi\n      dup1\n      0x471f7cdf\n      eq\n      tag_6\n      jumpi\n      dup1\n      0x6057361d\n      eq\n      tag_7\n      jumpi\n    tag_2:\n      0x00\n      dup1\n      revert\n        /* \"storageFactory.sol\":359:656  function sfStore(uint256 _simpleStorageIndex, uint256 _simpleStorageNumber) public {\r... */\n    tag_3:\n      tag_14\n      0x04\n      dup1\n      calldatasize\n      sub\n      dup2\n      add\n      swap1\n      tag_15\n      swap2\n      swap1\n      tag_16\n      jump\t// in\n    tag_15:\n      tag_17\n      jump\t// in\n    tag_14:\n      stop\n        /* \"storageFactory.sol\":190:353  function createSimpleStorageContract() public {\r... */\n    tag_4:\n      tag_18\n      tag_19\n      jump\t// in\n    tag_18:\n      stop\n        /* \"SimpleStorage.sol\":473:563  function retrieve() public view returns(uint256) {\r... */\n    tag_5:\n      tag_20\n      tag_21\n      jump\t// in\n    tag_20:\n      mload(0x40)\n      tag_22\n      swap2\n      swap1\n      tag_23\n      jump\t// in\n    tag_22:\n      mload(0x40)\n      dup1\n      swap2\n      sub\n      swap1\n      return\n        /* \"SimpleStorage.sol\":140:173  uint256 public favoriteNumber = 5 */\n    tag_6:\n      tag_24\n      tag_25\n      jump\t// in\n    tag_24:\n      mload(0x40)\n      tag_26\n      swap2\n      swap1\n      tag_23\n      jump\t// in\n    tag_26:\n      mload(0x40)\n      dup1\n      swap2\n      sub\n      swap1\n      return\n        /* \"SimpleStorage.sol\":368:465  function store(uint256 _favoriteNumber) public{\r... */\n    tag_7:\n      tag_27\n      0x04\n      dup1\n      calldatasize\n      sub\n      dup2\n      add\n      swap1\n      tag_28\n      swap2\n      swap1\n      tag_29\n      jump\t// in\n    tag_28:\n      tag_30\n      jump\t// in\n    tag_27:\n      stop\n        /* \"storageFactory.sol\":142:183  SimpleStorage[] public simpleStorageArray */\n    tag_8:\n      tag_31\n      0x04\n      dup1\n      calldatasize\n      sub\n      dup2\n      add\n      swap1\n      tag_32\n      swap2\n      swap1\n      tag_29\n      jump\t// in\n    tag_32:\n      tag_33\n      jump\t// in\n    tag_31:\n      mload(0x40)\n      tag_34\n      swap2\n      swap1\n      tag_35\n      jump\t// in\n    tag_34:\n      mload(0x40)\n      dup1\n      swap2\n      sub\n      swap1\n      return\n        /* \"SimpleStorage.sol\":568:758  function addPerson(string memory _name, uint256 _favoriteNumber) public{\r... */\n    tag_9:\n      tag_36\n      0x04\n      dup1\n      calldatasize\n      sub\n      dup2\n      add\n      swap1\n      tag_37\n      swap2\n      swap1\n      tag_38\n      jump\t// in\n    tag_37:\n      tag_39\n      jump\t// in\n    tag_36:\n      stop\n        /* \"SimpleStorage.sol\":301:355  mapping(string => uint256) public nameToFavoriteNumber */\n    tag_10:\n      tag_40\n      0x04\n      dup1\n      calldatasize\n      sub\n      dup2\n      add\n      swap1\n      tag_41\n      swap2\n      swap1\n      tag_42\n      jump\t// in\n    tag_41:\n      tag_43\n      jump\t// in\n    tag_40:\n      mload(0x40)\n      tag_44\n      swap2\n      swap1\n      tag_23\n      jump\t// in\n    tag_44:\n      mload(0x40)\n      dup1\n      swap2\n      sub\n      swap1\n      return\n        /* \"SimpleStorage.sol\":272:294  People[] public people */\n    tag_11:\n      tag_45\n      0x04\n      dup1\n      calldatasize\n      sub\n      dup2\n      add\n      swap1\n      tag_46\n      swap2\n      swap1\n      tag_29\n      jump\t// in\n    tag_46:\n      tag_47\n      jump\t// in\n    tag_45:\n      mload(0x40)\n      tag_48\n      swap3\n      swap2\n      swap1\n      tag_49\n      jump\t// in\n    tag_48:\n      mload(0x40)\n      dup1\n      swap2\n      sub\n      swap1\n      return\n        /* \"storageFactory.sol\":662:842  function sfGet(uint256 _simpleStorageIndex) public view returns (uint256) {\r... */\n    tag_12:\n      tag_50\n      0x04\n      dup1\n      calldatasize\n      sub\n      dup2\n      add\n      swap1\n      tag_51\n      swap2\n      swap1\n      tag_29\n      jump\t// in\n    tag_51:\n      tag_52\n      jump\t// in\n    tag_50:\n      mload(0x40)\n      tag_53\n      swap2\n      swap1\n      tag_23\n      jump\t// in\n    tag_53:\n      mload(0x40)\n      dup1\n      swap2\n      sub\n      swap1\n      return\n        /* \"storageFactory.sol\":359:656  function sfStore(uint256 _simpleStorageIndex, uint256 _simpleStorageNumber) public {\r... */\n    tag_17:\n        /* \"storageFactory.sol\":499:526  SimpleStorage simpleStorage */\n      0x00\n        /* \"storageFactory.sol\":551:569  simpleStorageArray */\n      0x03\n        /* \"storageFactory.sol\":570:589  _simpleStorageIndex */\n      dup4\n        /* \"storageFactory.sol\":551:590  simpleStorageArray[_simpleStorageIndex] */\n      dup2\n      sload\n      dup2\n      lt\n      tag_55\n      jumpi\n      tag_56\n      tag_57\n      jump\t// in\n    tag_56:\n    tag_55:\n      swap1\n      0x00\n      mstore\n      keccak256(0x00, 0x20)\n      add\n      0x00\n      swap1\n      sload\n      swap1\n      0x0100\n      exp\n      swap1\n      div\n      0xffffffffffffffffffffffffffffffffffffffff\n      and\n        /* \"storageFactory.sol\":499:592  SimpleStorage simpleStorage = SimpleStorage(address(simpleStorageArray[_simpleStorageIndex])) */\n      swap1\n      pop\n        /* \"storageFactory.sol\":607:620  simpleStorage */\n      dup1\n        /* \"storageFactory.sol\":607:626  simpleStorage.store */\n      0xffffffffffffffffffffffffffffffffffffffff\n      and\n      0x6057361d\n        /* \"storageFactory.sol\":627:647  _simpleStorageNumber */\n      dup4\n        /* \"storageFactory.sol\":607:648  simpleStorage.store(_simpleStorageNumber) */\n      mload(0x40)\n      dup3\n      0xffffffff\n      and\n      0xe0\n      shl\n      dup2\n      mstore\n      0x04\n      add\n      tag_59\n      swap2\n      swap1\n      tag_23\n      jump\t// in\n    tag_59:\n      0x00\n      mload(0x40)\n      dup1\n      dup4\n      sub\n      dup2\n      0x00\n      dup8\n      dup1\n      extcodesize\n      iszero\n      dup1\n      iszero\n      tag_60\n      jumpi\n      0x00\n      dup1\n      revert\n    tag_60:\n      pop\n      gas\n      call\n      iszero\n      dup1\n      iszero\n      tag_62\n      jumpi\n      returndatasize\n      0x00\n      dup1\n      returndatacopy\n      revert(0x00, returndatasize)\n    tag_62:\n      pop\n      pop\n      pop\n      pop\n        /* \"storageFactory.sol\":442:656  {\r... */\n      pop\n        /* \"storageFactory.sol\":359:656  function sfStore(uint256 _simpleStorageIndex, uint256 _simpleStorageNumber) public {\r... */\n      pop\n      pop\n      jump\t// out\n        /* \"storageFactory.sol\":190:353  function createSimpleStorageContract() public {\r... */\n    tag_19:\n        /* \"storageFactory.sol\":247:274  SimpleStorage simpleStorage */\n      0x00\n        /* \"storageFactory.sol\":277:296  new SimpleStorage() */\n      mload(0x40)\n      tag_64\n      swap1\n      tag_65\n      jump\t// in\n    tag_64:\n      mload(0x40)\n      dup1\n      swap2\n      sub\n      swap1\n      0x00\n      create\n      dup1\n      iszero\n      dup1\n      iszero\n      tag_66\n      jumpi\n      returndatasize\n      0x00\n      dup1\n      returndatacopy\n      revert(0x00, returndatasize)\n    tag_66:\n      pop\n        /* \"storageFactory.sol\":247:296  SimpleStorage simpleStorage = new SimpleStorage() */\n      swap1\n      pop\n        /* \"storageFactory.sol\":307:325  simpleStorageArray */\n      0x03\n        /* \"storageFactory.sol\":331:344  simpleStorage */\n      dup2\n        /* \"storageFactory.sol\":307:345  simpleStorageArray.push(simpleStorage) */\n      swap1\n      dup1\n      0x01\n      dup2\n      sload\n      add\n      dup1\n      dup3\n      sstore\n      dup1\n      swap2\n      pop\n      pop\n      0x01\n      swap1\n      sub\n      swap1\n      0x00\n      mstore\n      keccak256(0x00, 0x20)\n      add\n      0x00\n      swap1\n      swap2\n      swap1\n      swap2\n      swap1\n      swap2\n      0x0100\n      exp\n      dup2\n      sload\n      dup2\n      0xffffffffffffffffffffffffffffffffffffffff\n      mul\n      not\n      and\n      swap1\n      dup4\n      0xffffffffffffffffffffffffffffffffffffffff\n      and\n      mul\n      or\n      swap1\n      sstore\n      pop\n        /* \"storageFactory.sol\":236:353  {\r... */\n      pop\n        /* \"storageFactory.sol\":190:353  function createSimpleStorageContract() public {\r... */\n      jump\t// out\n        /* \"SimpleStorage.sol\":473:563  function retrieve() public view returns(uint256) {\r... */\n    tag_21:\n        /* \"SimpleStorage.sol\":513:520  uint256 */\n      0x00\n        /* \"SimpleStorage.sol\":540:554  favoriteNumber */\n      dup1\n      sload\n        /* \"SimpleStorage.sol\":533:554  return favoriteNumber */\n      swap1\n      pop\n        /* \"SimpleStorage.sol\":473:563  function retrieve() public view returns(uint256) {\r... */\n      swap1\n      jump\t// out\n        /* \"SimpleStorage.sol\":140:173  uint256 public favoriteNumber = 5 */\n    tag_25:\n      sload(0x00)\n      dup2\n      jump\t// out\n        /* \"SimpleStorage.sol\":368:465  function store(uint256 _favoriteNumber) public{\r... */\n    tag_30:\n        /* \"SimpleStorage.sol\":442:457  _favoriteNumber */\n      dup1\n        /* \"SimpleStorage.sol\":425:439  favoriteNumber */\n      0x00\n        /* \"SimpleStorage.sol\":425:457  favoriteNumber = _favoriteNumber */\n      dup2\n      swap1\n      sstore\n      pop\n        /* \"SimpleStorage.sol\":368:465  function store(uint256 _favoriteNumber) public{\r... */\n      pop\n      jump\t// out\n        /* \"storageFactory.sol\":142:183  SimpleStorage[] public simpleStorageArray */\n    tag_33:\n      0x03\n      dup2\n      dup2\n      sload\n      dup2\n      lt\n      tag_70\n      jumpi\n      0x00\n      dup1\n      revert\n    tag_70:\n      swap1\n      0x00\n      mstore\n      keccak256(0x00, 0x20)\n      add\n      0x00\n      swap2\n      pop\n      sload\n      swap1\n      0x0100\n      exp\n      swap1\n      div\n      0xffffffffffffffffffffffffffffffffffffffff\n      and\n      dup2\n      jump\t// out\n        /* \"SimpleStorage.sol\":568:758  function addPerson(string memory _name, uint256 _favoriteNumber) public{\r... */\n    tag_39:\n        /* \"SimpleStorage.sol\":651:657  people */\n      0x01\n        /* \"SimpleStorage.sol\":663:693  People(_favoriteNumber, _name) */\n      mload(0x40)\n      dup1\n      0x40\n      add\n      0x40\n      mstore\n      dup1\n        /* \"SimpleStorage.sol\":670:685  _favoriteNumber */\n      dup4\n        /* \"SimpleStorage.sol\":663:693  People(_favoriteNumber, _name) */\n      dup2\n      mstore\n      0x20\n      add\n        /* \"SimpleStorage.sol\":687:692  _name */\n      dup5\n        /* \"SimpleStorage.sol\":663:693  People(_favoriteNumber, _name) */\n      dup2\n      mstore\n      pop\n        /* \"SimpleStorage.sol\":651:694  people.push(People(_favoriteNumber, _name)) */\n      swap1\n      dup1\n      0x01\n      dup2\n      sload\n      add\n      dup1\n      dup3\n      sstore\n      dup1\n      swap2\n      pop\n      pop\n      0x01\n      swap1\n      sub\n      swap1\n      0x00\n      mstore\n      keccak256(0x00, 0x20)\n      swap1\n      0x02\n      mul\n      add\n      0x00\n      swap1\n      swap2\n      swap1\n      swap2\n      swap1\n      swap2\n      pop\n      0x00\n      dup3\n      add\n      mload\n      dup2\n      0x00\n      add\n      sstore\n      0x20\n      dup3\n      add\n      mload\n      dup2\n      0x01\n      add\n      swap1\n      dup1\n      mload\n      swap1\n      0x20\n      add\n      swap1\n      tag_74\n      swap3\n      swap2\n      swap1\n      tag_75\n      jump\t// in\n    tag_74:\n      pop\n      pop\n      pop\n        /* \"SimpleStorage.sol\":736:751  _favoriteNumber */\n      dup1\n        /* \"SimpleStorage.sol\":706:726  nameToFavoriteNumber */\n      0x02\n        /* \"SimpleStorage.sol\":727:732  _name */\n      dup4\n        /* \"SimpleStorage.sol\":706:733  nameToFavoriteNumber[_name] */\n      mload(0x40)\n      tag_76\n      swap2\n      swap1\n      tag_77\n      jump\t// in\n    tag_76:\n      swap1\n      dup2\n      mstore\n      0x20\n      add\n      mload(0x40)\n      dup1\n      swap2\n      sub\n      swap1\n      keccak256\n        /* \"SimpleStorage.sol\":706:751  nameToFavoriteNumber[_name] = _favoriteNumber */\n      dup2\n      swap1\n      sstore\n      pop\n        /* \"SimpleStorage.sol\":568:758  function addPerson(string memory _name, uint256 _favoriteNumber) public{\r... */\n      pop\n      pop\n      jump\t// out\n        /* \"SimpleStorage.sol\":301:355  mapping(string => uint256) public nameToFavoriteNumber */\n    tag_43:\n      0x02\n      dup2\n      dup1\n      mload\n      0x20\n      dup2\n      add\n      dup3\n      add\n      dup1\n      mload\n      dup5\n      dup3\n      mstore\n      0x20\n      dup4\n      add\n      0x20\n      dup6\n      add\n      keccak256\n      dup2\n      dup4\n      mstore\n      dup1\n      swap6\n      pop\n      pop\n      pop\n      pop\n      pop\n      pop\n      0x00\n      swap2\n      pop\n      swap1\n      pop\n      sload\n      dup2\n      jump\t// out\n        /* \"SimpleStorage.sol\":272:294  People[] public people */\n    tag_47:\n      0x01\n      dup2\n      dup2\n      sload\n      dup2\n      lt\n      tag_78\n      jumpi\n      0x00\n      dup1\n      revert\n    tag_78:\n      swap1\n      0x00\n      mstore\n      keccak256(0x00, 0x20)\n      swap1\n      0x02\n      mul\n      add\n      0x00\n      swap2\n      pop\n      swap1\n      pop\n      dup1\n      0x00\n      add\n      sload\n      swap1\n      dup1\n      0x01\n      add\n      dup1\n      sload\n      tag_80\n      swap1\n      tag_81\n      jump\t// in\n    tag_80:\n      dup1\n      0x1f\n      add\n      0x20\n      dup1\n      swap2\n      div\n      mul\n      0x20\n      add\n      mload(0x40)\n      swap1\n      dup2\n      add\n      0x40\n      mstore\n      dup1\n      swap3\n      swap2\n      swap1\n      dup2\n      dup2\n      mstore\n      0x20\n      add\n      dup3\n      dup1\n      sload\n      tag_82\n      swap1\n      tag_81\n      jump\t// in\n    tag_82:\n      dup1\n      iszero\n      tag_83\n      jumpi\n      dup1\n      0x1f\n      lt\n      tag_84\n      jumpi\n      0x0100\n      dup1\n      dup4\n      sload\n      div\n      mul\n      dup4\n      mstore\n      swap2\n      0x20\n      add\n      swap2\n      jump(tag_83)\n    tag_84:\n      dup3\n      add\n      swap2\n      swap1\n      0x00\n      mstore\n      keccak256(0x00, 0x20)\n      swap1\n    tag_85:\n      dup2\n      sload\n      dup2\n      mstore\n      swap1\n      0x01\n      add\n      swap1\n      0x20\n      add\n      dup1\n      dup4\n      gt\n      tag_85\n      jumpi\n      dup3\n      swap1\n      sub\n      0x1f\n      and\n      dup3\n      add\n      swap2\n    tag_83:\n      pop\n      pop\n      pop\n      pop\n      pop\n      swap1\n      pop\n      dup3\n      jump\t// out\n        /* \"storageFactory.sol\":662:842  function sfGet(uint256 _simpleStorageIndex) public view returns (uint256) {\r... */\n    tag_52:\n        /* \"storageFactory.sol\":727:734  uint256 */\n      0x00\n        /* \"storageFactory.sol\":776:794  simpleStorageArray */\n      0x03\n        /* \"storageFactory.sol\":795:814  _simpleStorageIndex */\n      dup3\n        /* \"storageFactory.sol\":776:815  simpleStorageArray[_simpleStorageIndex] */\n      dup2\n      sload\n      dup2\n      lt\n      tag_87\n      jumpi\n      tag_88\n      tag_57\n      jump\t// in\n    tag_88:\n    tag_87:\n      swap1\n      0x00\n      mstore\n      keccak256(0x00, 0x20)\n      add\n      0x00\n      swap1\n      sload\n      swap1\n      0x0100\n      exp\n      swap1\n      div\n      0xffffffffffffffffffffffffffffffffffffffff\n      and\n        /* \"storageFactory.sol\":754:826  SimpleStorage(address(simpleStorageArray[_simpleStorageIndex])).retrieve */\n      0xffffffffffffffffffffffffffffffffffffffff\n      and\n      0x2e64cec1\n        /* \"storageFactory.sol\":754:828  SimpleStorage(address(simpleStorageArray[_simpleStorageIndex])).retrieve() */\n      mload(0x40)\n      dup2\n      0xffffffff\n      and\n      0xe0\n      shl\n      dup2\n      mstore\n      0x04\n      add\n      0x20\n      mload(0x40)\n      dup1\n      dup4\n      sub\n      dup2\n      dup7\n      dup1\n      extcodesize\n      iszero\n      dup1\n      iszero\n      tag_90\n      jumpi\n      0x00\n      dup1\n      revert\n    tag_90:\n      pop\n      gas\n      staticcall\n      iszero\n      dup1\n      iszero\n      tag_92\n      jumpi\n      returndatasize\n      0x00\n      dup1\n      returndatacopy\n      revert(0x00, returndatasize)\n    tag_92:\n      pop\n      pop\n      pop\n      pop\n      mload(0x40)\n      returndatasize\n      not(0x1f)\n      0x1f\n      dup3\n      add\n      and\n      dup3\n      add\n      dup1\n      0x40\n      mstore\n      pop\n      dup2\n      add\n      swap1\n      tag_93\n      swap2\n      swap1\n      tag_94\n      jump\t// in\n    tag_93:\n        /* \"storageFactory.sol\":747:828  return SimpleStorage(address(simpleStorageArray[_simpleStorageIndex])).retrieve() */\n      swap1\n      pop\n        /* \"storageFactory.sol\":662:842  function sfGet(uint256 _simpleStorageIndex) public view returns (uint256) {\r... */\n      swap2\n      swap1\n      pop\n      jump\t// out\n    tag_65:\n      dataSize(sub_0)\n      dup1\n      dataOffset(sub_0)\n      dup4\n      codecopy\n      add\n      swap1\n      jump\t// out\n    tag_75:\n      dup3\n      dup1\n      sload\n      tag_95\n      swap1\n      tag_81\n      jump\t// in\n    tag_95:\n      swap1\n      0x00\n      mstore\n      keccak256(0x00, 0x20)\n      swap1\n      0x1f\n      add\n      0x20\n      swap1\n      div\n      dup2\n      add\n      swap3\n      dup3\n      tag_97\n      jumpi\n      0x00\n      dup6\n      sstore\n      jump(tag_96)\n    tag_97:\n      dup3\n      0x1f\n      lt\n      tag_98\n      jumpi\n      dup1\n      mload\n      not(0xff)\n      and\n      dup4\n      dup1\n      add\n      or\n      dup6\n      sstore\n      jump(tag_96)\n    tag_98:\n      dup3\n      dup1\n      add\n      0x01\n      add\n      dup6\n      sstore\n      dup3\n      iszero\n      tag_96\n      jumpi\n      swap2\n      dup3\n      add\n    tag_99:\n      dup3\n      dup2\n      gt\n      iszero\n      tag_100\n      jumpi\n      dup3\n      mload\n      dup3\n      sstore\n      swap2\n      0x20\n      add\n      swap2\n      swap1\n      0x01\n      add\n      swap1\n      jump(tag_99)\n    tag_100:\n    tag_96:\n      pop\n      swap1\n      pop\n      tag_101\n      swap2\n      swap1\n      tag_102\n      jump\t// in\n    tag_101:\n      pop\n      swap1\n      jump\t// out\n    tag_102:\n    tag_103:\n      dup1\n      dup3\n      gt\n      iszero\n      tag_104\n      jumpi\n      0x00\n      dup2\n      0x00\n      swap1\n      sstore\n      pop\n      0x01\n      add\n      jump(tag_103)\n    tag_104:\n      pop\n      swap1\n      jump\t// out\n        /* \"#utility.yul\":7:419   */\n    tag_106:\n        /* \"#utility.yul\":85:90   */\n      0x00\n        /* \"#utility.yul\":110:176   */\n      tag_108\n        /* \"#utility.yul\":126:175   */\n      tag_109\n        /* \"#utility.yul\":168:174   */\n      dup5\n        /* \"#utility.yul\":126:175   */\n      tag_110\n      jump\t// in\n    tag_109:\n        /* \"#utility.yul\":110:176   */\n      tag_111\n      jump\t// in\n    tag_108:\n        /* \"#utility.yul\":101:176   */\n      swap1\n      pop\n        /* \"#utility.yul\":199:205   */\n      dup3\n        /* \"#utility.yul\":192:197   */\n      dup2\n        /* \"#utility.yul\":185:206   */\n      mstore\n        /* \"#utility.yul\":237:241   */\n      0x20\n        /* \"#utility.yul\":230:235   */\n      dup2\n        /* \"#utility.yul\":226:242   */\n      add\n        /* \"#utility.yul\":275:278   */\n      dup5\n        /* \"#utility.yul\":266:272   */\n      dup5\n        /* \"#utility.yul\":261:264   */\n      dup5\n        /* \"#utility.yul\":257:273   */\n      add\n        /* \"#utility.yul\":254:279   */\n      gt\n        /* \"#utility.yul\":251:363   */\n      iszero\n      tag_112\n      jumpi\n        /* \"#utility.yul\":282:361   */\n      tag_113\n      tag_114\n      jump\t// in\n    tag_113:\n        /* \"#utility.yul\":251:363   */\n    tag_112:\n        /* \"#utility.yul\":372:413   */\n      tag_115\n        /* \"#utility.yul\":406:412   */\n      dup5\n        /* \"#utility.yul\":401:404   */\n      dup3\n        /* \"#utility.yul\":396:399   */\n      dup6\n        /* \"#utility.yul\":372:413   */\n      tag_116\n      jump\t// in\n    tag_115:\n        /* \"#utility.yul\":91:419   */\n      pop\n        /* \"#utility.yul\":7:419   */\n      swap4\n      swap3\n      pop\n      pop\n      pop\n      jump\t// out\n        /* \"#utility.yul\":439:779   */\n    tag_117:\n        /* \"#utility.yul\":495:500   */\n      0x00\n        /* \"#utility.yul\":544:547   */\n      dup3\n        /* \"#utility.yul\":537:541   */\n      0x1f\n        /* \"#utility.yul\":529:535   */\n      dup4\n        /* \"#utility.yul\":525:542   */\n      add\n        /* \"#utility.yul\":521:548   */\n      slt\n        /* \"#utility.yul\":511:633   */\n      tag_119\n      jumpi\n        /* \"#utility.yul\":552:631   */\n      tag_120\n      tag_121\n      jump\t// in\n    tag_120:\n        /* \"#utility.yul\":511:633   */\n    tag_119:\n        /* \"#utility.yul\":669:675   */\n      dup2\n        /* \"#utility.yul\":656:676   */\n      calldataload\n        /* \"#utility.yul\":694:773   */\n      tag_122\n        /* \"#utility.yul\":769:772   */\n      dup5\n        /* \"#utility.yul\":761:767   */\n      dup3\n        /* \"#utility.yul\":754:758   */\n      0x20\n        /* \"#utility.yul\":746:752   */\n      dup7\n        /* \"#utility.yul\":742:759   */\n      add\n        /* \"#utility.yul\":694:773   */\n      tag_106\n      jump\t// in\n    tag_122:\n        /* \"#utility.yul\":685:773   */\n      swap2\n      pop\n        /* \"#utility.yul\":501:779   */\n      pop\n        /* \"#utility.yul\":439:779   */\n      swap3\n      swap2\n      pop\n      pop\n      jump\t// out\n        /* \"#utility.yul\":785:924   */\n    tag_123:\n        /* \"#utility.yul\":831:836   */\n      0x00\n        /* \"#utility.yul\":869:875   */\n      dup2\n        /* \"#utility.yul\":856:876   */\n      calldataload\n        /* \"#utility.yul\":847:876   */\n      swap1\n      pop\n        /* \"#utility.yul\":885:918   */\n      tag_125\n        /* \"#utility.yul\":912:917   */\n      dup2\n        /* \"#utility.yul\":885:918   */\n      tag_126\n      jump\t// in\n    tag_125:\n        /* \"#utility.yul\":785:924   */\n      swap3\n      swap2\n      pop\n      pop\n      jump\t// out\n        /* \"#utility.yul\":930:1073   */\n    tag_127:\n        /* \"#utility.yul\":987:992   */\n      0x00\n        /* \"#utility.yul\":1018:1024   */\n      dup2\n        /* \"#utility.yul\":1012:1025   */\n      mload\n        /* \"#utility.yul\":1003:1025   */\n      swap1\n      pop\n        /* \"#utility.yul\":1034:1067   */\n      tag_129\n        /* \"#utility.yul\":1061:1066   */\n      dup2\n        /* \"#utility.yul\":1034:1067   */\n      tag_126\n      jump\t// in\n    tag_129:\n        /* \"#utility.yul\":930:1073   */\n      swap3\n      swap2\n      pop\n      pop\n      jump\t// out\n        /* \"#utility.yul\":1079:1588   */\n    tag_42:\n        /* \"#utility.yul\":1148:1154   */\n      0x00\n        /* \"#utility.yul\":1197:1199   */\n      0x20\n        /* \"#utility.yul\":1185:1194   */\n      dup3\n        /* \"#utility.yul\":1176:1183   */\n      dup5\n        /* \"#utility.yul\":1172:1195   */\n      sub\n        /* \"#utility.yul\":1168:1200   */\n      slt\n        /* \"#utility.yul\":1165:1284   */\n      iszero\n      tag_131\n      jumpi\n        /* \"#utility.yul\":1203:1282   */\n      tag_132\n      tag_133\n      jump\t// in\n    tag_132:\n        /* \"#utility.yul\":1165:1284   */\n    tag_131:\n        /* \"#utility.yul\":1351:1352   */\n      0x00\n        /* \"#utility.yul\":1340:1349   */\n      dup3\n        /* \"#utility.yul\":1336:1353   */\n      add\n        /* \"#utility.yul\":1323:1354   */\n      calldataload\n        /* \"#utility.yul\":1381:1399   */\n      0xffffffffffffffff\n        /* \"#utility.yul\":1373:1379   */\n      dup2\n        /* \"#utility.yul\":1370:1400   */\n      gt\n        /* \"#utility.yul\":1367:1484   */\n      iszero\n      tag_134\n      jumpi\n        /* \"#utility.yul\":1403:1482   */\n      tag_135\n      tag_136\n      jump\t// in\n    tag_135:\n        /* \"#utility.yul\":1367:1484   */\n    tag_134:\n        /* \"#utility.yul\":1508:1571   */\n      tag_137\n        /* \"#utility.yul\":1563:1570   */\n      dup5\n        /* \"#utility.yul\":1554:1560   */\n      dup3\n        /* \"#utility.yul\":1543:1552   */\n      dup6\n        /* \"#utility.yul\":1539:1561   */\n      add\n        /* \"#utility.yul\":1508:1571   */\n      tag_117\n      jump\t// in\n    tag_137:\n        /* \"#utility.yul\":1498:1571   */\n      swap2\n      pop\n        /* \"#utility.yul\":1294:1581   */\n      pop\n        /* \"#utility.yul\":1079:1588   */\n      swap3\n      swap2\n      pop\n      pop\n      jump\t// out\n        /* \"#utility.yul\":1594:2248   */\n    tag_38:\n        /* \"#utility.yul\":1672:1678   */\n      0x00\n        /* \"#utility.yul\":1680:1686   */\n      dup1\n        /* \"#utility.yul\":1729:1731   */\n      0x40\n        /* \"#utility.yul\":1717:1726   */\n      dup4\n        /* \"#utility.yul\":1708:1715   */\n      dup6\n        /* \"#utility.yul\":1704:1727   */\n      sub\n        /* \"#utility.yul\":1700:1732   */\n      slt\n        /* \"#utility.yul\":1697:1816   */\n      iszero\n      tag_139\n      jumpi\n        /* \"#utility.yul\":1735:1814   */\n      tag_140\n      tag_133\n      jump\t// in\n    tag_140:\n        /* \"#utility.yul\":1697:1816   */\n    tag_139:\n        /* \"#utility.yul\":1883:1884   */\n      0x00\n        /* \"#utility.yul\":1872:1881   */\n      dup4\n        /* \"#utility.yul\":1868:1885   */\n      add\n        /* \"#utility.yul\":1855:1886   */\n      calldataload\n        /* \"#utility.yul\":1913:1931   */\n      0xffffffffffffffff\n        /* \"#utility.yul\":1905:1911   */\n      dup2\n        /* \"#utility.yul\":1902:1932   */\n      gt\n        /* \"#utility.yul\":1899:2016   */\n      iszero\n      tag_141\n      jumpi\n        /* \"#utility.yul\":1935:2014   */\n      tag_142\n      tag_136\n      jump\t// in\n    tag_142:\n        /* \"#utility.yul\":1899:2016   */\n    tag_141:\n        /* \"#utility.yul\":2040:2103   */\n      tag_143\n        /* \"#utility.yul\":2095:2102   */\n      dup6\n        /* \"#utility.yul\":2086:2092   */\n      dup3\n        /* \"#utility.yul\":2075:2084   */\n      dup7\n        /* \"#utility.yul\":2071:2093   */\n      add\n        /* \"#utility.yul\":2040:2103   */\n      tag_117\n      jump\t// in\n    tag_143:\n        /* \"#utility.yul\":2030:2103   */\n      swap3\n      pop\n        /* \"#utility.yul\":1826:2113   */\n      pop\n        /* \"#utility.yul\":2152:2154   */\n      0x20\n        /* \"#utility.yul\":2178:2231   */\n      tag_144\n        /* \"#utility.yul\":2223:2230   */\n      dup6\n        /* \"#utility.yul\":2214:2220   */\n      dup3\n        /* \"#utility.yul\":2203:2212   */\n      dup7\n        /* \"#utility.yul\":2199:2221   */\n      add\n        /* \"#utility.yul\":2178:2231   */\n      tag_123\n      jump\t// in\n    tag_144:\n        /* \"#utility.yul\":2168:2231   */\n      swap2\n      pop\n        /* \"#utility.yul\":2123:2241   */\n      pop\n        /* \"#utility.yul\":1594:2248   */\n      swap3\n      pop\n      swap3\n      swap1\n      pop\n      jump\t// out\n        /* \"#utility.yul\":2254:2583   */\n    tag_29:\n        /* \"#utility.yul\":2313:2319   */\n      0x00\n        /* \"#utility.yul\":2362:2364   */\n      0x20\n        /* \"#utility.yul\":2350:2359   */\n      dup3\n        /* \"#utility.yul\":2341:2348   */\n      dup5\n        /* \"#utility.yul\":2337:2360   */\n      sub\n        /* \"#utility.yul\":2333:2365   */\n      slt\n        /* \"#utility.yul\":2330:2449   */\n      iszero\n      tag_146\n      jumpi\n        /* \"#utility.yul\":2368:2447   */\n      tag_147\n      tag_133\n      jump\t// in\n    tag_147:\n        /* \"#utility.yul\":2330:2449   */\n    tag_146:\n        /* \"#utility.yul\":2488:2489   */\n      0x00\n        /* \"#utility.yul\":2513:2566   */\n      tag_148\n        /* \"#utility.yul\":2558:2565   */\n      dup5\n        /* \"#utility.yul\":2549:2555   */\n      dup3\n        /* \"#utility.yul\":2538:2547   */\n      dup6\n        /* \"#utility.yul\":2534:2556   */\n      add\n        /* \"#utility.yul\":2513:2566   */\n      tag_123\n      jump\t// in\n    tag_148:\n        /* \"#utility.yul\":2503:2566   */\n      swap2\n      pop\n        /* \"#utility.yul\":2459:2576   */\n      pop\n        /* \"#utility.yul\":2254:2583   */\n      swap3\n      swap2\n      pop\n      pop\n      jump\t// out\n        /* \"#utility.yul\":2589:2940   */\n    tag_94:\n        /* \"#utility.yul\":2659:2665   */\n      0x00\n        /* \"#utility.yul\":2708:2710   */\n      0x20\n        /* \"#utility.yul\":2696:2705   */\n      dup3\n        /* \"#utility.yul\":2687:2694   */\n      dup5\n        /* \"#utility.yul\":2683:2706   */\n      sub\n        /* \"#utility.yul\":2679:2711   */\n      slt\n        /* \"#utility.yul\":2676:2795   */\n      iszero\n      tag_150\n      jumpi\n        /* \"#utility.yul\":2714:2793   */\n      tag_151\n      tag_133\n      jump\t// in\n    tag_151:\n        /* \"#utility.yul\":2676:2795   */\n    tag_150:\n        /* \"#utility.yul\":2834:2835   */\n      0x00\n        /* \"#utility.yul\":2859:2923   */\n      tag_152\n        /* \"#utility.yul\":2915:2922   */\n      dup5\n        /* \"#utility.yul\":2906:2912   */\n      dup3\n        /* \"#utility.yul\":2895:2904   */\n      dup6\n        /* \"#utility.yul\":2891:2913   */\n      add\n        /* \"#utility.yul\":2859:2923   */\n      tag_127\n      jump\t// in\n    tag_152:\n        /* \"#utility.yul\":2849:2923   */\n      swap2\n      pop\n        /* \"#utility.yul\":2805:2933   */\n      pop\n        /* \"#utility.yul\":2589:2940   */\n      swap3\n      swap2\n      pop\n      pop\n      jump\t// out\n        /* \"#utility.yul\":2946:3420   */\n    tag_16:\n        /* \"#utility.yul\":3014:3020   */\n      0x00\n        /* \"#utility.yul\":3022:3028   */\n      dup1\n        /* \"#utility.yul\":3071:3073   */\n      0x40\n        /* \"#utility.yul\":3059:3068   */\n      dup4\n        /* \"#utility.yul\":3050:3057   */\n      dup6\n        /* \"#utility.yul\":3046:3069   */\n      sub\n        /* \"#utility.yul\":3042:3074   */\n      slt\n        /* \"#utility.yul\":3039:3158   */\n      iszero\n      tag_154\n      jumpi\n        /* \"#utility.yul\":3077:3156   */\n      tag_155\n      tag_133\n      jump\t// in\n    tag_155:\n        /* \"#utility.yul\":3039:3158   */\n    tag_154:\n        /* \"#utility.yul\":3197:3198   */\n      0x00\n        /* \"#utility.yul\":3222:3275   */\n      tag_156\n        /* \"#utility.yul\":3267:3274   */\n      dup6\n        /* \"#utility.yul\":3258:3264   */\n      dup3\n        /* \"#utility.yul\":3247:3256   */\n      dup7\n        /* \"#utility.yul\":3243:3265   */\n      add\n        /* \"#utility.yul\":3222:3275   */\n      tag_123\n      jump\t// in\n    tag_156:\n        /* \"#utility.yul\":3212:3275   */\n      swap3\n      pop\n        /* \"#utility.yul\":3168:3285   */\n      pop\n        /* \"#utility.yul\":3324:3326   */\n      0x20\n        /* \"#utility.yul\":3350:3403   */\n      tag_157\n        /* \"#utility.yul\":3395:3402   */\n      dup6\n        /* \"#utility.yul\":3386:3392   */\n      dup3\n        /* \"#utility.yul\":3375:3384   */\n      dup7\n        /* \"#utility.yul\":3371:3393   */\n      add\n        /* \"#utility.yul\":3350:3403   */\n      tag_123\n      jump\t// in\n    tag_157:\n        /* \"#utility.yul\":3340:3403   */\n      swap2\n      pop\n        /* \"#utility.yul\":3295:3413   */\n      pop\n        /* \"#utility.yul\":2946:3420   */\n      swap3\n      pop\n      swap3\n      swap1\n      pop\n      jump\t// out\n        /* \"#utility.yul\":3426:3597   */\n    tag_158:\n        /* \"#utility.yul\":3533:3590   */\n      tag_160\n        /* \"#utility.yul\":3584:3589   */\n      dup2\n        /* \"#utility.yul\":3533:3590   */\n      tag_161\n      jump\t// in\n    tag_160:\n        /* \"#utility.yul\":3528:3531   */\n      dup3\n        /* \"#utility.yul\":3521:3591   */\n      mstore\n        /* \"#utility.yul\":3426:3597   */\n      pop\n      pop\n      jump\t// out\n        /* \"#utility.yul\":3603:3967   */\n    tag_162:\n        /* \"#utility.yul\":3691:3694   */\n      0x00\n        /* \"#utility.yul\":3719:3758   */\n      tag_164\n        /* \"#utility.yul\":3752:3757   */\n      dup3\n        /* \"#utility.yul\":3719:3758   */\n      tag_165\n      jump\t// in\n    tag_164:\n        /* \"#utility.yul\":3774:3845   */\n      tag_166\n        /* \"#utility.yul\":3838:3844   */\n      dup2\n        /* \"#utility.yul\":3833:3836   */\n      dup6\n        /* \"#utility.yul\":3774:3845   */\n      tag_167\n      jump\t// in\n    tag_166:\n        /* \"#utility.yul\":3767:3845   */\n      swap4\n      pop\n        /* \"#utility.yul\":3854:3906   */\n      tag_168\n        /* \"#utility.yul\":3899:3905   */\n      dup2\n        /* \"#utility.yul\":3894:3897   */\n      dup6\n        /* \"#utility.yul\":3887:3891   */\n      0x20\n        /* \"#utility.yul\":3880:3885   */\n      dup7\n        /* \"#utility.yul\":3876:3892   */\n      add\n        /* \"#utility.yul\":3854:3906   */\n      tag_169\n      jump\t// in\n    tag_168:\n        /* \"#utility.yul\":3931:3960   */\n      tag_170\n        /* \"#utility.yul\":3953:3959   */\n      dup2\n        /* \"#utility.yul\":3931:3960   */\n      tag_171\n      jump\t// in\n    tag_170:\n        /* \"#utility.yul\":3926:3929   */\n      dup5\n        /* \"#utility.yul\":3922:3961   */\n      add\n        /* \"#utility.yul\":3915:3961   */\n      swap2\n      pop\n        /* \"#utility.yul\":3695:3967   */\n      pop\n        /* \"#utility.yul\":3603:3967   */\n      swap3\n      swap2\n      pop\n      pop\n      jump\t// out\n        /* \"#utility.yul\":3973:4350   */\n    tag_172:\n        /* \"#utility.yul\":4079:4082   */\n      0x00\n        /* \"#utility.yul\":4107:4146   */\n      tag_174\n        /* \"#utility.yul\":4140:4145   */\n      dup3\n        /* \"#utility.yul\":4107:4146   */\n      tag_165\n      jump\t// in\n    tag_174:\n        /* \"#utility.yul\":4162:4251   */\n      tag_175\n        /* \"#utility.yul\":4244:4250   */\n      dup2\n        /* \"#utility.yul\":4239:4242   */\n      dup6\n        /* \"#utility.yul\":4162:4251   */\n      tag_176\n      jump\t// in\n    tag_175:\n        /* \"#utility.yul\":4155:4251   */\n      swap4\n      pop\n        /* \"#utility.yul\":4260:4312   */\n      tag_177\n        /* \"#utility.yul\":4305:4311   */\n      dup2\n        /* \"#utility.yul\":4300:4303   */\n      dup6\n        /* \"#utility.yul\":4293:4297   */\n      0x20\n        /* \"#utility.yul\":4286:4291   */\n      dup7\n        /* \"#utility.yul\":4282:4298   */\n      add\n        /* \"#utility.yul\":4260:4312   */\n      tag_169\n      jump\t// in\n    tag_177:\n        /* \"#utility.yul\":4337:4343   */\n      dup1\n        /* \"#utility.yul\":4332:4335   */\n      dup5\n        /* \"#utility.yul\":4328:4344   */\n      add\n        /* \"#utility.yul\":4321:4344   */\n      swap2\n      pop\n        /* \"#utility.yul\":4083:4350   */\n      pop\n        /* \"#utility.yul\":3973:4350   */\n      swap3\n      swap2\n      pop\n      pop\n      jump\t// out\n        /* \"#utility.yul\":4356:4474   */\n    tag_178:\n        /* \"#utility.yul\":4443:4467   */\n      tag_180\n        /* \"#utility.yul\":4461:4466   */\n      dup2\n        /* \"#utility.yul\":4443:4467   */\n      tag_181\n      jump\t// in\n    tag_180:\n        /* \"#utility.yul\":4438:4441   */\n      dup3\n        /* \"#utility.yul\":4431:4468   */\n      mstore\n        /* \"#utility.yul\":4356:4474   */\n      pop\n      pop\n      jump\t// out\n        /* \"#utility.yul\":4480:4755   */\n    tag_77:\n        /* \"#utility.yul\":4612:4615   */\n      0x00\n        /* \"#utility.yul\":4634:4729   */\n      tag_183\n        /* \"#utility.yul\":4725:4728   */\n      dup3\n        /* \"#utility.yul\":4716:4722   */\n      dup5\n        /* \"#utility.yul\":4634:4729   */\n      tag_172\n      jump\t// in\n    tag_183:\n        /* \"#utility.yul\":4627:4729   */\n      swap2\n      pop\n        /* \"#utility.yul\":4746:4749   */\n      dup2\n        /* \"#utility.yul\":4739:4749   */\n      swap1\n      pop\n        /* \"#utility.yul\":4480:4755   */\n      swap3\n      swap2\n      pop\n      pop\n      jump\t// out\n        /* \"#utility.yul\":4761:5023   */\n    tag_35:\n        /* \"#utility.yul\":4874:4878   */\n      0x00\n        /* \"#utility.yul\":4912:4914   */\n      0x20\n        /* \"#utility.yul\":4901:4910   */\n      dup3\n        /* \"#utility.yul\":4897:4915   */\n      add\n        /* \"#utility.yul\":4889:4915   */\n      swap1\n      pop\n        /* \"#utility.yul\":4925:5016   */\n      tag_185\n        /* \"#utility.yul\":5013:5014   */\n      0x00\n        /* \"#utility.yul\":5002:5011   */\n      dup4\n        /* \"#utility.yul\":4998:5015   */\n      add\n        /* \"#utility.yul\":4989:4995   */\n      dup5\n        /* \"#utility.yul\":4925:5016   */\n      tag_158\n      jump\t// in\n    tag_185:\n        /* \"#utility.yul\":4761:5023   */\n      swap3\n      swap2\n      pop\n      pop\n      jump\t// out\n        /* \"#utility.yul\":5029:5251   */\n    tag_23:\n        /* \"#utility.yul\":5122:5126   */\n      0x00\n        /* \"#utility.yul\":5160:5162   */\n      0x20\n        /* \"#utility.yul\":5149:5158   */\n      dup3\n        /* \"#utility.yul\":5145:5163   */\n      add\n        /* \"#utility.yul\":5137:5163   */\n      swap1\n      pop\n        /* \"#utility.yul\":5173:5244   */\n      tag_187\n        /* \"#utility.yul\":5241:5242   */\n      0x00\n        /* \"#utility.yul\":5230:5239   */\n      dup4\n        /* \"#utility.yul\":5226:5243   */\n      add\n        /* \"#utility.yul\":5217:5223   */\n      dup5\n        /* \"#utility.yul\":5173:5244   */\n      tag_178\n      jump\t// in\n    tag_187:\n        /* \"#utility.yul\":5029:5251   */\n      swap3\n      swap2\n      pop\n      pop\n      jump\t// out\n        /* \"#utility.yul\":5257:5680   */\n    tag_49:\n        /* \"#utility.yul\":5398:5402   */\n      0x00\n        /* \"#utility.yul\":5436:5438   */\n      0x40\n        /* \"#utility.yul\":5425:5434   */\n      dup3\n        /* \"#utility.yul\":5421:5439   */\n      add\n        /* \"#utility.yul\":5413:5439   */\n      swap1\n      pop\n        /* \"#utility.yul\":5449:5520   */\n      tag_189\n        /* \"#utility.yul\":5517:5518   */\n      0x00\n        /* \"#utility.yul\":5506:5515   */\n      dup4\n        /* \"#utility.yul\":5502:5519   */\n      add\n        /* \"#utility.yul\":5493:5499   */\n      dup6\n        /* \"#utility.yul\":5449:5520   */\n      tag_178\n      jump\t// in\n    tag_189:\n        /* \"#utility.yul\":5567:5576   */\n      dup2\n        /* \"#utility.yul\":5561:5565   */\n      dup2\n        /* \"#utility.yul\":5557:5577   */\n      sub\n        /* \"#utility.yul\":5552:5554   */\n      0x20\n        /* \"#utility.yul\":5541:5550   */\n      dup4\n        /* \"#utility.yul\":5537:5555   */\n      add\n        /* \"#utility.yul\":5530:5578   */\n      mstore\n        /* \"#utility.yul\":5595:5673   */\n      tag_190\n        /* \"#utility.yul\":5668:5672   */\n      dup2\n        /* \"#utility.yul\":5659:5665   */\n      dup5\n        /* \"#utility.yul\":5595:5673   */\n      tag_162\n      jump\t// in\n    tag_190:\n        /* \"#utility.yul\":5587:5673   */\n      swap1\n      pop\n        /* \"#utility.yul\":5257:5680   */\n      swap4\n      swap3\n      pop\n      pop\n      pop\n      jump\t// out\n        /* \"#utility.yul\":5686:5815   */\n    tag_111:\n        /* \"#utility.yul\":5720:5726   */\n      0x00\n        /* \"#utility.yul\":5747:5767   */\n      tag_192\n      tag_193\n      jump\t// in\n    tag_192:\n        /* \"#utility.yul\":5737:5767   */\n      swap1\n      pop\n        /* \"#utility.yul\":5776:5809   */\n      tag_194\n        /* \"#utility.yul\":5804:5808   */\n      dup3\n        /* \"#utility.yul\":5796:5802   */\n      dup3\n        /* \"#utility.yul\":5776:5809   */\n      tag_195\n      jump\t// in\n    tag_194:\n        /* \"#utility.yul\":5686:5815   */\n      swap2\n      swap1\n      pop\n      jump\t// out\n        /* \"#utility.yul\":5821:5896   */\n    tag_193:\n        /* \"#utility.yul\":5854:5860   */\n      0x00\n        /* \"#utility.yul\":5887:5889   */\n      0x40\n        /* \"#utility.yul\":5881:5890   */\n      mload\n        /* \"#utility.yul\":5871:5890   */\n      swap1\n      pop\n        /* \"#utility.yul\":5821:5896   */\n      swap1\n      jump\t// out\n        /* \"#utility.yul\":5902:6210   */\n    tag_110:\n        /* \"#utility.yul\":5964:5968   */\n      0x00\n        /* \"#utility.yul\":6054:6072   */\n      0xffffffffffffffff\n        /* \"#utility.yul\":6046:6052   */\n      dup3\n        /* \"#utility.yul\":6043:6073   */\n      gt\n        /* \"#utility.yul\":6040:6096   */\n      iszero\n      tag_198\n      jumpi\n        /* \"#utility.yul\":6076:6094   */\n      tag_199\n      tag_200\n      jump\t// in\n    tag_199:\n        /* \"#utility.yul\":6040:6096   */\n    tag_198:\n        /* \"#utility.yul\":6114:6143   */\n      tag_201\n        /* \"#utility.yul\":6136:6142   */\n      dup3\n        /* \"#utility.yul\":6114:6143   */\n      tag_171\n      jump\t// in\n    tag_201:\n        /* \"#utility.yul\":6106:6143   */\n      swap1\n      pop\n        /* \"#utility.yul\":6198:6202   */\n      0x20\n        /* \"#utility.yul\":6192:6196   */\n      dup2\n        /* \"#utility.yul\":6188:6203   */\n      add\n        /* \"#utility.yul\":6180:6203   */\n      swap1\n      pop\n        /* \"#utility.yul\":5902:6210   */\n      swap2\n      swap1\n      pop\n      jump\t// out\n        /* \"#utility.yul\":6216:6315   */\n    tag_165:\n        /* \"#utility.yul\":6268:6274   */\n      0x00\n        /* \"#utility.yul\":6302:6307   */\n      dup2\n        /* \"#utility.yul\":6296:6308   */\n      mload\n        /* \"#utility.yul\":6286:6308   */\n      swap1\n      pop\n        /* \"#utility.yul\":6216:6315   */\n      swap2\n      swap1\n      pop\n      jump\t// out\n        /* \"#utility.yul\":6321:6490   */\n    tag_167:\n        /* \"#utility.yul\":6405:6416   */\n      0x00\n        /* \"#utility.yul\":6439:6445   */\n      dup3\n        /* \"#utility.yul\":6434:6437   */\n      dup3\n        /* \"#utility.yul\":6427:6446   */\n      mstore\n        /* \"#utility.yul\":6479:6483   */\n      0x20\n        /* \"#utility.yul\":6474:6477   */\n      dup3\n        /* \"#utility.yul\":6470:6484   */\n      add\n        /* \"#utility.yul\":6455:6484   */\n      swap1\n      pop\n        /* \"#utility.yul\":6321:6490   */\n      swap3\n      swap2\n      pop\n      pop\n      jump\t// out\n        /* \"#utility.yul\":6496:6644   */\n    tag_176:\n        /* \"#utility.yul\":6598:6609   */\n      0x00\n        /* \"#utility.yul\":6635:6638   */\n      dup2\n        /* \"#utility.yul\":6620:6638   */\n      swap1\n      pop\n        /* \"#utility.yul\":6496:6644   */\n      swap3\n      swap2\n      pop\n      pop\n      jump\t// out\n        /* \"#utility.yul\":6650:6776   */\n    tag_205:\n        /* \"#utility.yul\":6687:6694   */\n      0x00\n        /* \"#utility.yul\":6727:6769   */\n      0xffffffffffffffffffffffffffffffffffffffff\n        /* \"#utility.yul\":6720:6725   */\n      dup3\n        /* \"#utility.yul\":6716:6770   */\n      and\n        /* \"#utility.yul\":6705:6770   */\n      swap1\n      pop\n        /* \"#utility.yul\":6650:6776   */\n      swap2\n      swap1\n      pop\n      jump\t// out\n        /* \"#utility.yul\":6782:6859   */\n    tag_181:\n        /* \"#utility.yul\":6819:6826   */\n      0x00\n        /* \"#utility.yul\":6848:6853   */\n      dup2\n        /* \"#utility.yul\":6837:6853   */\n      swap1\n      pop\n        /* \"#utility.yul\":6782:6859   */\n      swap2\n      swap1\n      pop\n      jump\t// out\n        /* \"#utility.yul\":6865:7011   */\n    tag_161:\n        /* \"#utility.yul\":6935:6944   */\n      0x00\n        /* \"#utility.yul\":6968:7005   */\n      tag_209\n        /* \"#utility.yul\":6999:7004   */\n      dup3\n        /* \"#utility.yul\":6968:7005   */\n      tag_210\n      jump\t// in\n    tag_209:\n        /* \"#utility.yul\":6955:7005   */\n      swap1\n      pop\n        /* \"#utility.yul\":6865:7011   */\n      swap2\n      swap1\n      pop\n      jump\t// out\n        /* \"#utility.yul\":7017:7143   */\n    tag_210:\n        /* \"#utility.yul\":7067:7076   */\n      0x00\n        /* \"#utility.yul\":7100:7137   */\n      tag_212\n        /* \"#utility.yul\":7131:7136   */\n      dup3\n        /* \"#utility.yul\":7100:7137   */\n      tag_213\n      jump\t// in\n    tag_212:\n        /* \"#utility.yul\":7087:7137   */\n      swap1\n      pop\n        /* \"#utility.yul\":7017:7143   */\n      swap2\n      swap1\n      pop\n      jump\t// out\n        /* \"#utility.yul\":7149:7262   */\n    tag_213:\n        /* \"#utility.yul\":7199:7208   */\n      0x00\n        /* \"#utility.yul\":7232:7256   */\n      tag_215\n        /* \"#utility.yul\":7250:7255   */\n      dup3\n        /* \"#utility.yul\":7232:7256   */\n      tag_205\n      jump\t// in\n    tag_215:\n        /* \"#utility.yul\":7219:7256   */\n      swap1\n      pop\n        /* \"#utility.yul\":7149:7262   */\n      swap2\n      swap1\n      pop\n      jump\t// out\n        /* \"#utility.yul\":7268:7422   */\n    tag_116:\n        /* \"#utility.yul\":7352:7358   */\n      dup3\n        /* \"#utility.yul\":7347:7350   */\n      dup2\n        /* \"#utility.yul\":7342:7345   */\n      dup4\n        /* \"#utility.yul\":7329:7359   */\n      calldatacopy\n        /* \"#utility.yul\":7414:7415   */\n      0x00\n        /* \"#utility.yul\":7405:7411   */\n      dup4\n        /* \"#utility.yul\":7400:7403   */\n      dup4\n        /* \"#utility.yul\":7396:7412   */\n      add\n        /* \"#utility.yul\":7389:7416   */\n      mstore\n        /* \"#utility.yul\":7268:7422   */\n      pop\n      pop\n      pop\n      jump\t// out\n        /* \"#utility.yul\":7428:7735   */\n    tag_169:\n        /* \"#utility.yul\":7496:7497   */\n      0x00\n        /* \"#utility.yul\":7506:7619   */\n    tag_218:\n        /* \"#utility.yul\":7520:7526   */\n      dup4\n        /* \"#utility.yul\":7517:7518   */\n      dup2\n        /* \"#utility.yul\":7514:7527   */\n      lt\n        /* \"#utility.yul\":7506:7619   */\n      iszero\n      tag_220\n      jumpi\n        /* \"#utility.yul\":7605:7606   */\n      dup1\n        /* \"#utility.yul\":7600:7603   */\n      dup3\n        /* \"#utility.yul\":7596:7607   */\n      add\n        /* \"#utility.yul\":7590:7608   */\n      mload\n        /* \"#utility.yul\":7586:7587   */\n      dup2\n        /* \"#utility.yul\":7581:7584   */\n      dup5\n        /* \"#utility.yul\":7577:7588   */\n      add\n        /* \"#utility.yul\":7570:7609   */\n      mstore\n        /* \"#utility.yul\":7542:7544   */\n      0x20\n        /* \"#utility.yul\":7539:7540   */\n      dup2\n        /* \"#utility.yul\":7535:7545   */\n      add\n        /* \"#utility.yul\":7530:7545   */\n      swap1\n      pop\n        /* \"#utility.yul\":7506:7619   */\n      jump(tag_218)\n    tag_220:\n        /* \"#utility.yul\":7637:7643   */\n      dup4\n        /* \"#utility.yul\":7634:7635   */\n      dup2\n        /* \"#utility.yul\":7631:7644   */\n      gt\n        /* \"#utility.yul\":7628:7729   */\n      iszero\n      tag_221\n      jumpi\n        /* \"#utility.yul\":7717:7718   */\n      0x00\n        /* \"#utility.yul\":7708:7714   */\n      dup5\n        /* \"#utility.yul\":7703:7706   */\n      dup5\n        /* \"#utility.yul\":7699:7715   */\n      add\n        /* \"#utility.yul\":7692:7719   */\n      mstore\n        /* \"#utility.yul\":7628:7729   */\n    tag_221:\n        /* \"#utility.yul\":7477:7735   */\n      pop\n        /* \"#utility.yul\":7428:7735   */\n      pop\n      pop\n      pop\n      jump\t// out\n        /* \"#utility.yul\":7741:8061   */\n    tag_81:\n        /* \"#utility.yul\":7785:7791   */\n      0x00\n        /* \"#utility.yul\":7822:7823   */\n      0x02\n        /* \"#utility.yul\":7816:7820   */\n      dup3\n        /* \"#utility.yul\":7812:7824   */\n      div\n        /* \"#utility.yul\":7802:7824   */\n      swap1\n      pop\n        /* \"#utility.yul\":7869:7870   */\n      0x01\n        /* \"#utility.yul\":7863:7867   */\n      dup3\n        /* \"#utility.yul\":7859:7871   */\n      and\n        /* \"#utility.yul\":7890:7908   */\n      dup1\n        /* \"#utility.yul\":7880:7961   */\n      tag_223\n      jumpi\n        /* \"#utility.yul\":7946:7950   */\n      0x7f\n        /* \"#utility.yul\":7938:7944   */\n      dup3\n        /* \"#utility.yul\":7934:7951   */\n      and\n        /* \"#utility.yul\":7924:7951   */\n      swap2\n      pop\n        /* \"#utility.yul\":7880:7961   */\n    tag_223:\n        /* \"#utility.yul\":8008:8010   */\n      0x20\n        /* \"#utility.yul\":8000:8006   */\n      dup3\n        /* \"#utility.yul\":7997:8011   */\n      lt\n        /* \"#utility.yul\":7977:7995   */\n      dup2\n        /* \"#utility.yul\":7974:8012   */\n      eq\n        /* \"#utility.yul\":7971:8055   */\n      iszero\n      tag_224\n      jumpi\n        /* \"#utility.yul\":8027:8045   */\n      tag_225\n      tag_226\n      jump\t// in\n    tag_225:\n        /* \"#utility.yul\":7971:8055   */\n    tag_224:\n        /* \"#utility.yul\":7792:8061   */\n      pop\n        /* \"#utility.yul\":7741:8061   */\n      swap2\n      swap1\n      pop\n      jump\t// out\n        /* \"#utility.yul\":8067:8348   */\n    tag_195:\n        /* \"#utility.yul\":8150:8177   */\n      tag_228\n        /* \"#utility.yul\":8172:8176   */\n      dup3\n        /* \"#utility.yul\":8150:8177   */\n      tag_171\n      jump\t// in\n    tag_228:\n        /* \"#utility.yul\":8142:8148   */\n      dup2\n        /* \"#utility.yul\":8138:8178   */\n      add\n        /* \"#utility.yul\":8280:8286   */\n      dup2\n        /* \"#utility.yul\":8268:8278   */\n      dup2\n        /* \"#utility.yul\":8265:8287   */\n      lt\n        /* \"#utility.yul\":8244:8262   */\n      0xffffffffffffffff\n        /* \"#utility.yul\":8232:8242   */\n      dup3\n        /* \"#utility.yul\":8229:8263   */\n      gt\n        /* \"#utility.yul\":8226:8288   */\n      or\n        /* \"#utility.yul\":8223:8311   */\n      iszero\n      tag_229\n      jumpi\n        /* \"#utility.yul\":8291:8309   */\n      tag_230\n      tag_200\n      jump\t// in\n    tag_230:\n        /* \"#utility.yul\":8223:8311   */\n    tag_229:\n        /* \"#utility.yul\":8331:8341   */\n      dup1\n        /* \"#utility.yul\":8327:8329   */\n      0x40\n        /* \"#utility.yul\":8320:8342   */\n      mstore\n        /* \"#utility.yul\":8110:8348   */\n      pop\n        /* \"#utility.yul\":8067:8348   */\n      pop\n      pop\n      jump\t// out\n        /* \"#utility.yul\":8354:8534   */\n    tag_226:\n        /* \"#utility.yul\":8402:8479   */\n      0x4e487b7100000000000000000000000000000000000000000000000000000000\n        /* \"#utility.yul\":8399:8400   */\n      0x00\n        /* \"#utility.yul\":8392:8480   */\n      mstore\n        /* \"#utility.yul\":8499:8503   */\n      0x22\n        /* \"#utility.yul\":8496:8497   */\n      0x04\n        /* \"#utility.yul\":8489:8504   */\n      mstore\n        /* \"#utility.yul\":8523:8527   */\n      0x24\n        /* \"#utility.yul\":8520:8521   */\n      0x00\n        /* \"#utility.yul\":8513:8528   */\n      revert\n        /* \"#utility.yul\":8540:8720   */\n    tag_57:\n        /* \"#utility.yul\":8588:8665   */\n      0x4e487b7100000000000000000000000000000000000000000000000000000000\n        /* \"#utility.yul\":8585:8586   */\n      0x00\n        /* \"#utility.yul\":8578:8666   */\n      mstore\n        /* \"#utility.yul\":8685:8689   */\n      0x32\n        /* \"#utility.yul\":8682:8683   */\n      0x04\n        /* \"#utility.yul\":8675:8690   */\n      mstore\n        /* \"#utility.yul\":8709:8713   */\n      0x24\n        /* \"#utility.yul\":8706:8707   */\n      0x00\n        /* \"#utility.yul\":8699:8714   */\n      revert\n        /* \"#utility.yul\":8726:8906   */\n    tag_200:\n        /* \"#utility.yul\":8774:8851   */\n      0x4e487b7100000000000000000000000000000000000000000000000000000000\n        /* \"#utility.yul\":8771:8772   */\n      0x00\n        /* \"#utility.yul\":8764:8852   */\n      mstore\n        /* \"#utility.yul\":8871:8875   */\n      0x41\n        /* \"#utility.yul\":8868:8869   */\n      0x04\n        /* \"#utility.yul\":8861:8876   */\n      mstore\n        /* \"#utility.yul\":8895:8899   */\n      0x24\n        /* \"#utility.yul\":8892:8893   */\n      0x00\n        /* \"#utility.yul\":8885:8900   */\n      revert\n        /* \"#utility.yul\":8912:9029   */\n    tag_121:\n        /* \"#utility.yul\":9021:9022   */\n      0x00\n        /* \"#utility.yul\":9018:9019   */\n      dup1\n        /* \"#utility.yul\":9011:9023   */\n      revert\n        /* \"#utility.yul\":9035:9152   */\n    tag_114:\n        /* \"#utility.yul\":9144:9145   */\n      0x00\n        /* \"#utility.yul\":9141:9142   */\n      dup1\n        /* \"#utility.yul\":9134:9146   */\n      revert\n        /* \"#utility.yul\":9158:9275   */\n    tag_136:\n        /* \"#utility.yul\":9267:9268   */\n      0x00\n        /* \"#utility.yul\":9264:9265   */\n      dup1\n        /* \"#utility.yul\":9257:9269   */\n      revert\n        /* \"#utility.yul\":9281:9398   */\n    tag_133:\n        /* \"#utility.yul\":9390:9391   */\n      0x00\n        /* \"#utility.yul\":9387:9388   */\n      dup1\n        /* \"#utility.yul\":9380:9392   */\n      revert\n        /* \"#utility.yul\":9404:9506   */\n    tag_171:\n        /* \"#utility.yul\":9445:9451   */\n      0x00\n        /* \"#utility.yul\":9496:9498   */\n      0x1f\n        /* \"#utility.yul\":9492:9499   */\n      not\n        /* \"#utility.yul\":9487:9489   */\n      0x1f\n        /* \"#utility.yul\":9480:9485   */\n      dup4\n        /* \"#utility.yul\":9476:9490   */\n      add\n        /* \"#utility.yul\":9472:9500   */\n      and\n        /* \"#utility.yul\":9462:9500   */\n      swap1\n      pop\n        /* \"#utility.yul\":9404:9506   */\n      swap2\n      swap1\n      pop\n      jump\t// out\n        /* \"#utility.yul\":9512:9634   */\n    tag_126:\n        /* \"#utility.yul\":9585:9609   */\n      tag_240\n        /* \"#utility.yul\":9603:9608   */\n      dup2\n        /* \"#utility.yul\":9585:9609   */\n      tag_181\n      jump\t// in\n    tag_240:\n        /* \"#utility.yul\":9578:9583   */\n      dup2\n        /* \"#utility.yul\":9575:9610   */\n      eq\n        /* \"#utility.yul\":9565:9628   */\n      tag_241\n      jumpi\n        /* \"#utility.yul\":9624:9625   */\n      0x00\n        /* \"#utility.yul\":9621:9622   */\n      dup1\n        /* \"#utility.yul\":9614:9626   */\n      revert\n        /* \"#utility.yul\":9565:9628   */\n    tag_241:\n        /* \"#utility.yul\":9512:9634   */\n      pop\n      jump\t// out\n    stop\n\n    sub_0: assembly {\n            /* \"SimpleStorage.sol\":66:761  contract SimpleStorage {\r... */\n          mstore(0x40, 0x80)\n            /* \"SimpleStorage.sol\":172:173  5 */\n          0x05\n            /* \"SimpleStorage.sol\":140:173  uint256 public favoriteNumber = 5 */\n          0x00\n          sstore\n            /* \"SimpleStorage.sol\":66:761  contract SimpleStorage {\r... */\n          callvalue\n          dup1\n          iszero\n          tag_1\n          jumpi\n          0x00\n          dup1\n          revert\n        tag_1:\n          pop\n          dataSize(sub_0)\n          dup1\n          dataOffset(sub_0)\n          0x00\n          codecopy\n          0x00\n          return\n        stop\n\n        sub_0: assembly {\n                /* \"SimpleStorage.sol\":66:761  contract SimpleStorage {\r... */\n              mstore(0x40, 0x80)\n              callvalue\n              dup1\n              iszero\n              tag_1\n              jumpi\n              0x00\n              dup1\n              revert\n            tag_1:\n              pop\n              jumpi(tag_2, lt(calldatasize, 0x04))\n              shr(0xe0, calldataload(0x00))\n              dup1\n              0x2e64cec1\n              eq\n              tag_3\n              jumpi\n              dup1\n              0x471f7cdf\n              eq\n              tag_4\n              jumpi\n              dup1\n              0x6057361d\n              eq\n              tag_5\n              jumpi\n              dup1\n              0x6f760f41\n              eq\n              tag_6\n              jumpi\n              dup1\n              0x8bab8dd5\n              eq\n              tag_7\n              jumpi\n              dup1\n              0x9e7a13ad\n              eq\n              tag_8\n              jumpi\n            tag_2:\n              0x00\n              dup1\n              revert\n                /* \"SimpleStorage.sol\":473:563  function retrieve() public view returns(uint256) {\r... */\n            tag_3:\n              tag_9\n              tag_10\n              jump\t// in\n            tag_9:\n              mload(0x40)\n              tag_11\n              swap2\n              swap1\n              tag_12\n              jump\t// in\n            tag_11:\n              mload(0x40)\n              dup1\n              swap2\n              sub\n              swap1\n              return\n                /* \"SimpleStorage.sol\":140:173  uint256 public favoriteNumber = 5 */\n            tag_4:\n              tag_13\n              tag_14\n              jump\t// in\n            tag_13:\n              mload(0x40)\n              tag_15\n              swap2\n              swap1\n              tag_12\n              jump\t// in\n            tag_15:\n              mload(0x40)\n              dup1\n              swap2\n              sub\n              swap1\n              return\n                /* \"SimpleStorage.sol\":368:465  function store(uint256 _favoriteNumber) public{\r... */\n            tag_5:\n              tag_16\n              0x04\n              dup1\n              calldatasize\n              sub\n              dup2\n              add\n              swap1\n              tag_17\n              swap2\n              swap1\n              tag_18\n              jump\t// in\n            tag_17:\n              tag_19\n              jump\t// in\n            tag_16:\n              stop\n                /* \"SimpleStorage.sol\":568:758  function addPerson(string memory _name, uint256 _favoriteNumber) public{\r... */\n            tag_6:\n              tag_20\n              0x04\n              dup1\n              calldatasize\n              sub\n              dup2\n              add\n              swap1\n              tag_21\n              swap2\n              swap1\n              tag_22\n              jump\t// in\n            tag_21:\n              tag_23\n              jump\t// in\n            tag_20:\n              stop\n                /* \"SimpleStorage.sol\":301:355  mapping(string => uint256) public nameToFavoriteNumber */\n            tag_7:\n              tag_24\n              0x04\n              dup1\n              calldatasize\n              sub\n              dup2\n              add\n              swap1\n              tag_25\n              swap2\n              swap1\n              tag_26\n              jump\t// in\n            tag_25:\n              tag_27\n              jump\t// in\n            tag_24:\n              mload(0x40)\n              tag_28\n              swap2\n              swap1\n              tag_12\n              jump\t// in\n            tag_28:\n              mload(0x40)\n              dup1\n              swap2\n              sub\n              swap1\n              return\n                /* \"SimpleStorage.sol\":272:294  People[] public people */\n            tag_8:\n              tag_29\n              0x04\n              dup1\n              calldatasize\n              sub\n              dup2\n              add\n              swap1\n              tag_30\n              swap2\n              swap1\n              tag_18\n              jump\t// in\n            tag_30:\n              tag_31\n              jump\t// in\n            tag_29:\n              mload(0x40)\n              tag_32\n              swap3\n              swap2\n              swap1\n              tag_33\n              jump\t// in\n            tag_32:\n              mload(0x40)\n              dup1\n              swap2\n              sub\n              swap1\n              return\n                /* \"SimpleStorage.sol\":473:563  function retrieve() public view returns(uint256) {\r... */\n            tag_10:\n                /* \"SimpleStorage.sol\":513:520  uint256 */\n              0x00\n                /* \"SimpleStorage.sol\":540:554  favoriteNumber */\n              dup1\n              sload\n                /* \"SimpleStorage.sol\":533:554  return favoriteNumber */\n              swap1\n              pop\n                /* \"SimpleStorage.sol\":473:563  function retrieve() public view returns(uint256) {\r... */\n              swap1\n              jump\t// out\n                /* \"SimpleStorage.sol\":140:173  uint256 public favoriteNumber = 5 */\n            tag_14:\n              sload(0x00)\n              dup2\n              jump\t// out\n                /* \"SimpleStorage.sol\":368:465  function store(uint256 _favoriteNumber) public{\r... */\n            tag_19:\n                /* \"SimpleStorage.sol\":442:457  _favoriteNumber */\n              dup1\n                /* \"SimpleStorage.sol\":425:439  favoriteNumber */\n              0x00\n                /* \"SimpleStorage.sol\":425:457  favoriteNumber = _favoriteNumber */\n              dup2\n              swap1\n              sstore\n              pop\n                /* \"SimpleStorage.sol\":368:465  function store(uint256 _favoriteNumber) public{\r... */\n              pop\n              jump\t// out\n                /* \"SimpleStorage.sol\":568:758  function addPerson(string memory _name, uint256 _favoriteNumber) public{\r... */\n            tag_23:\n                /* \"SimpleStorage.sol\":651:657  people */\n              0x01\n                /* \"SimpleStorage.sol\":663:693  People(_favoriteNumber, _name) */\n              mload(0x40)\n              dup1\n              0x40\n              add\n              0x40\n              mstore\n              dup1\n                /* \"SimpleStorage.sol\":670:685  _favoriteNumber */\n              dup4\n                /* \"SimpleStorage.sol\":663:693  People(_favoriteNumber, _name) */\n              dup2\n              mstore\n              0x20\n              add\n                /* \"SimpleStorage.sol\":687:692  _name */\n              dup5\n                /* \"SimpleStorage.sol\":663:693  People(_favoriteNumber, _name) */\n              dup2\n              mstore\n              pop\n                /* \"SimpleStorage.sol\":651:694  people.push(People(_favoriteNumber, _name)) */\n              swap1\n              dup1\n              0x01\n              dup2\n              sload\n              add\n              dup1\n              dup3\n              sstore\n              dup1\n              swap2\n              pop\n              pop\n              0x01\n              swap1\n              sub\n              swap1\n              0x00\n              mstore\n              keccak256(0x00, 0x20)\n              swap1\n              0x02\n              mul\n              add\n              0x00\n              swap1\n              swap2\n              swap1\n              swap2\n              swap1\n              swap2\n              pop\n              0x00\n              dup3\n              add\n              mload\n              dup2\n              0x00\n              add\n              sstore\n              0x20\n              dup3\n              add\n              mload\n              dup2\n              0x01\n              add\n              swap1\n              dup1\n              mload\n              swap1\n              0x20\n              add\n              swap1\n              tag_38\n              swap3\n              swap2\n              swap1\n              tag_39\n              jump\t// in\n            tag_38:\n              pop\n              pop\n              pop\n                /* \"SimpleStorage.sol\":736:751  _favoriteNumber */\n              dup1\n                /* \"SimpleStorage.sol\":706:726  nameToFavoriteNumber */\n              0x02\n                /* \"SimpleStorage.sol\":727:732  _name */\n              dup4\n                /* \"SimpleStorage.sol\":706:733  nameToFavoriteNumber[_name] */\n              mload(0x40)\n              tag_40\n              swap2\n              swap1\n              tag_41\n              jump\t// in\n            tag_40:\n              swap1\n              dup2\n              mstore\n              0x20\n              add\n              mload(0x40)\n              dup1\n              swap2\n              sub\n              swap1\n              keccak256\n                /* \"SimpleStorage.sol\":706:751  nameToFavoriteNumber[_name] = _favoriteNumber */\n              dup2\n              swap1\n              sstore\n              pop\n                /* \"SimpleStorage.sol\":568:758  function addPerson(string memory _name, uint256 _favoriteNumber) public{\r... */\n              pop\n              pop\n              jump\t// out\n                /* \"SimpleStorage.sol\":301:355  mapping(string => uint256) public nameToFavoriteNumber */\n            tag_27:\n              0x02\n              dup2\n              dup1\n              mload\n              0x20\n              dup2\n              add\n              dup3\n              add\n              dup1\n              mload\n              dup5\n              dup3\n              mstore\n              0x20\n              dup4\n              add\n              0x20\n              dup6\n              add\n              keccak256\n              dup2\n              dup4\n              mstore\n              dup1\n              swap6\n              pop\n              pop\n              pop\n              pop\n              pop\n              pop\n              0x00\n              swap2\n              pop\n              swap1\n              pop\n              sload\n              dup2\n              jump\t// out\n                /* \"SimpleStorage.sol\":272:294  People[] public people */\n            tag_31:\n              0x01\n              dup2\n              dup2\n              sload\n              dup2\n              lt\n              tag_42\n              jumpi\n              0x00\n              dup1\n              revert\n            tag_42:\n              swap1\n              0x00\n              mstore\n              keccak256(0x00, 0x20)\n              swap1\n              0x02\n              mul\n              add\n              0x00\n              swap2\n              pop\n              swap1\n              pop\n              dup1\n              0x00\n              add\n              sload\n              swap1\n              dup1\n              0x01\n              add\n              dup1\n              sload\n              tag_44\n              swap1\n              tag_45\n              jump\t// in\n            tag_44:\n              dup1\n              0x1f\n              add\n              0x20\n              dup1\n              swap2\n              div\n              mul\n              0x20\n              add\n              mload(0x40)\n              swap1\n              dup2\n              add\n              0x40\n              mstore\n              dup1\n              swap3\n              swap2\n              swap1\n              dup2\n              dup2\n              mstore\n              0x20\n              add\n              dup3\n              dup1\n              sload\n              tag_46\n              swap1\n              tag_45\n              jump\t// in\n            tag_46:\n              dup1\n              iszero\n              tag_47\n              jumpi\n              dup1\n              0x1f\n              lt\n              tag_48\n              jumpi\n              0x0100\n              dup1\n              dup4\n              sload\n              div\n              mul\n              dup4\n              mstore\n              swap2\n              0x20\n              add\n              swap2\n              jump(tag_47)\n            tag_48:\n              dup3\n              add\n              swap2\n              swap1\n              0x00\n              mstore\n              keccak256(0x00, 0x20)\n              swap1\n            tag_49:\n              dup2\n              sload\n              dup2\n              mstore\n              swap1\n              0x01\n              add\n              swap1\n              0x20\n              add\n              dup1\n              dup4\n              gt\n              tag_49\n              jumpi\n              dup3\n              swap1\n              sub\n              0x1f\n              and\n              dup3\n              add\n              swap2\n            tag_47:\n              pop\n              pop\n              pop\n              pop\n              pop\n              swap1\n              pop\n              dup3\n              jump\t// out\n            tag_39:\n              dup3\n              dup1\n              sload\n              tag_50\n              swap1\n              tag_45\n              jump\t// in\n            tag_50:\n              swap1\n              0x00\n              mstore\n              keccak256(0x00, 0x20)\n              swap1\n              0x1f\n              add\n              0x20\n              swap1\n              div\n              dup2\n              add\n              swap3\n              dup3\n              tag_52\n              jumpi\n              0x00\n              dup6\n              sstore\n              jump(tag_51)\n            tag_52:\n              dup3\n              0x1f\n              lt\n              tag_53\n              jumpi\n              dup1\n              mload\n              not(0xff)\n              and\n              dup4\n              dup1\n              add\n              or\n              dup6\n              sstore\n              jump(tag_51)\n            tag_53:\n              dup3\n              dup1\n              add\n              0x01\n              add\n              dup6\n              sstore\n              dup3\n              iszero\n              tag_51\n              jumpi\n              swap2\n              dup3\n              add\n            tag_54:\n              dup3\n              dup2\n              gt\n              iszero\n              tag_55\n              jumpi\n              dup3\n              mload\n              dup3\n              sstore\n              swap2\n              0x20\n              add\n              swap2\n              swap1\n              0x01\n              add\n              swap1\n              jump(tag_54)\n            tag_55:\n            tag_51:\n              pop\n              swap1\n              pop\n              tag_56\n              swap2\n              swap1\n              tag_57\n              jump\t// in\n            tag_56:\n              pop\n              swap1\n              jump\t// out\n            tag_57:\n            tag_58:\n              dup1\n              dup3\n              gt\n              iszero\n              tag_59\n              jumpi\n              0x00\n              dup2\n              0x00\n              swap1\n              sstore\n              pop\n              0x01\n              add\n              jump(tag_58)\n            tag_59:\n              pop\n              swap1\n              jump\t// out\n                /* \"#utility.yul\":7:419   */\n            tag_61:\n                /* \"#utility.yul\":85:90   */\n              0x00\n                /* \"#utility.yul\":110:176   */\n              tag_63\n                /* \"#utility.yul\":126:175   */\n              tag_64\n                /* \"#utility.yul\":168:174   */\n              dup5\n                /* \"#utility.yul\":126:175   */\n              tag_65\n              jump\t// in\n            tag_64:\n                /* \"#utility.yul\":110:176   */\n              tag_66\n              jump\t// in\n            tag_63:\n                /* \"#utility.yul\":101:176   */\n              swap1\n              pop\n                /* \"#utility.yul\":199:205   */\n              dup3\n                /* \"#utility.yul\":192:197   */\n              dup2\n                /* \"#utility.yul\":185:206   */\n              mstore\n                /* \"#utility.yul\":237:241   */\n              0x20\n                /* \"#utility.yul\":230:235   */\n              dup2\n                /* \"#utility.yul\":226:242   */\n              add\n                /* \"#utility.yul\":275:278   */\n              dup5\n                /* \"#utility.yul\":266:272   */\n              dup5\n                /* \"#utility.yul\":261:264   */\n              dup5\n                /* \"#utility.yul\":257:273   */\n              add\n                /* \"#utility.yul\":254:279   */\n              gt\n                /* \"#utility.yul\":251:363   */\n              iszero\n              tag_67\n              jumpi\n                /* \"#utility.yul\":282:361   */\n              tag_68\n              tag_69\n              jump\t// in\n            tag_68:\n                /* \"#utility.yul\":251:363   */\n            tag_67:\n                /* \"#utility.yul\":372:413   */\n              tag_70\n                /* \"#utility.yul\":406:412   */\n              dup5\n                /* \"#utility.yul\":401:404   */\n              dup3\n                /* \"#utility.yul\":396:399   */\n              dup6\n                /* \"#utility.yul\":372:413   */\n              tag_71\n              jump\t// in\n            tag_70:\n                /* \"#utility.yul\":91:419   */\n              pop\n                /* \"#utility.yul\":7:419   */\n              swap4\n              swap3\n              pop\n              pop\n              pop\n              jump\t// out\n                /* \"#utility.yul\":439:779   */\n            tag_72:\n                /* \"#utility.yul\":495:500   */\n              0x00\n                /* \"#utility.yul\":544:547   */\n              dup3\n                /* \"#utility.yul\":537:541   */\n              0x1f\n                /* \"#utility.yul\":529:535   */\n              dup4\n                /* \"#utility.yul\":525:542   */\n              add\n                /* \"#utility.yul\":521:548   */\n              slt\n                /* \"#utility.yul\":511:633   */\n              tag_74\n              jumpi\n                /* \"#utility.yul\":552:631   */\n              tag_75\n              tag_76\n              jump\t// in\n            tag_75:\n                /* \"#utility.yul\":511:633   */\n            tag_74:\n                /* \"#utility.yul\":669:675   */\n              dup2\n                /* \"#utility.yul\":656:676   */\n              calldataload\n                /* \"#utility.yul\":694:773   */\n              tag_77\n                /* \"#utility.yul\":769:772   */\n              dup5\n                /* \"#utility.yul\":761:767   */\n              dup3\n                /* \"#utility.yul\":754:758   */\n              0x20\n                /* \"#utility.yul\":746:752   */\n              dup7\n                /* \"#utility.yul\":742:759   */\n              add\n                /* \"#utility.yul\":694:773   */\n              tag_61\n              jump\t// in\n            tag_77:\n                /* \"#utility.yul\":685:773   */\n              swap2\n              pop\n                /* \"#utility.yul\":501:779   */\n              pop\n                /* \"#utility.yul\":439:779   */\n              swap3\n              swap2\n              pop\n              pop\n              jump\t// out\n                /* \"#utility.yul\":785:924   */\n            tag_78:\n                /* \"#utility.yul\":831:836   */\n              0x00\n                /* \"#utility.yul\":869:875   */\n              dup2\n                /* \"#utility.yul\":856:876   */\n              calldataload\n                /* \"#utility.yul\":847:876   */\n              swap1\n              pop\n                /* \"#utility.yul\":885:918   */\n              tag_80\n                /* \"#utility.yul\":912:917   */\n              dup2\n                /* \"#utility.yul\":885:918   */\n              tag_81\n              jump\t// in\n            tag_80:\n                /* \"#utility.yul\":785:924   */\n              swap3\n              swap2\n              pop\n              pop\n              jump\t// out\n                /* \"#utility.yul\":930:1439   */\n            tag_26:\n                /* \"#utility.yul\":999:1005   */\n              0x00\n                /* \"#utility.yul\":1048:1050   */\n              0x20\n                /* \"#utility.yul\":1036:1045   */\n              dup3\n                /* \"#utility.yul\":1027:1034   */\n              dup5\n                /* \"#utility.yul\":1023:1046   */\n              sub\n                /* \"#utility.yul\":1019:1051   */\n              slt\n                /* \"#utility.yul\":1016:1135   */\n              iszero\n              tag_83\n              jumpi\n                /* \"#utility.yul\":1054:1133   */\n              tag_84\n              tag_85\n              jump\t// in\n            tag_84:\n                /* \"#utility.yul\":1016:1135   */\n            tag_83:\n                /* \"#utility.yul\":1202:1203   */\n              0x00\n                /* \"#utility.yul\":1191:1200   */\n              dup3\n                /* \"#utility.yul\":1187:1204   */\n              add\n                /* \"#utility.yul\":1174:1205   */\n              calldataload\n                /* \"#utility.yul\":1232:1250   */\n              0xffffffffffffffff\n                /* \"#utility.yul\":1224:1230   */\n              dup2\n                /* \"#utility.yul\":1221:1251   */\n              gt\n                /* \"#utility.yul\":1218:1335   */\n              iszero\n              tag_86\n              jumpi\n                /* \"#utility.yul\":1254:1333   */\n              tag_87\n              tag_88\n              jump\t// in\n            tag_87:\n                /* \"#utility.yul\":1218:1335   */\n            tag_86:\n                /* \"#utility.yul\":1359:1422   */\n              tag_89\n                /* \"#utility.yul\":1414:1421   */\n              dup5\n                /* \"#utility.yul\":1405:1411   */\n              dup3\n                /* \"#utility.yul\":1394:1403   */\n              dup6\n                /* \"#utility.yul\":1390:1412   */\n              add\n                /* \"#utility.yul\":1359:1422   */\n              tag_72\n              jump\t// in\n            tag_89:\n                /* \"#utility.yul\":1349:1422   */\n              swap2\n              pop\n                /* \"#utility.yul\":1145:1432   */\n              pop\n                /* \"#utility.yul\":930:1439   */\n              swap3\n              swap2\n              pop\n              pop\n              jump\t// out\n                /* \"#utility.yul\":1445:2099   */\n            tag_22:\n                /* \"#utility.yul\":1523:1529   */\n              0x00\n                /* \"#utility.yul\":1531:1537   */\n              dup1\n                /* \"#utility.yul\":1580:1582   */\n              0x40\n                /* \"#utility.yul\":1568:1577   */\n              dup4\n                /* \"#utility.yul\":1559:1566   */\n              dup6\n                /* \"#utility.yul\":1555:1578   */\n              sub\n                /* \"#utility.yul\":1551:1583   */\n              slt\n                /* \"#utility.yul\":1548:1667   */\n              iszero\n              tag_91\n              jumpi\n                /* \"#utility.yul\":1586:1665   */\n              tag_92\n              tag_85\n              jump\t// in\n            tag_92:\n                /* \"#utility.yul\":1548:1667   */\n            tag_91:\n                /* \"#utility.yul\":1734:1735   */\n              0x00\n                /* \"#utility.yul\":1723:1732   */\n              dup4\n                /* \"#utility.yul\":1719:1736   */\n              add\n                /* \"#utility.yul\":1706:1737   */\n              calldataload\n                /* \"#utility.yul\":1764:1782   */\n              0xffffffffffffffff\n                /* \"#utility.yul\":1756:1762   */\n              dup2\n                /* \"#utility.yul\":1753:1783   */\n              gt\n                /* \"#utility.yul\":1750:1867   */\n              iszero\n              tag_93\n              jumpi\n                /* \"#utility.yul\":1786:1865   */\n              tag_94\n              tag_88\n              jump\t// in\n            tag_94:\n                /* \"#utility.yul\":1750:1867   */\n            tag_93:\n                /* \"#utility.yul\":1891:1954   */\n              tag_95\n                /* \"#utility.yul\":1946:1953   */\n              dup6\n                /* \"#utility.yul\":1937:1943   */\n              dup3\n                /* \"#utility.yul\":1926:1935   */\n              dup7\n                /* \"#utility.yul\":1922:1944   */\n              add\n                /* \"#utility.yul\":1891:1954   */\n              tag_72\n              jump\t// in\n            tag_95:\n                /* \"#utility.yul\":1881:1954   */\n              swap3\n              pop\n                /* \"#utility.yul\":1677:1964   */\n              pop\n                /* \"#utility.yul\":2003:2005   */\n              0x20\n                /* \"#utility.yul\":2029:2082   */\n              tag_96\n                /* \"#utility.yul\":2074:2081   */\n              dup6\n                /* \"#utility.yul\":2065:2071   */\n              dup3\n                /* \"#utility.yul\":2054:2063   */\n              dup7\n                /* \"#utility.yul\":2050:2072   */\n              add\n                /* \"#utility.yul\":2029:2082   */\n              tag_78\n              jump\t// in\n            tag_96:\n                /* \"#utility.yul\":2019:2082   */\n              swap2\n              pop\n                /* \"#utility.yul\":1974:2092   */\n              pop\n                /* \"#utility.yul\":1445:2099   */\n              swap3\n              pop\n              swap3\n              swap1\n              pop\n              jump\t// out\n                /* \"#utility.yul\":2105:2434   */\n            tag_18:\n                /* \"#utility.yul\":2164:2170   */\n              0x00\n                /* \"#utility.yul\":2213:2215   */\n              0x20\n                /* \"#utility.yul\":2201:2210   */\n              dup3\n                /* \"#utility.yul\":2192:2199   */\n              dup5\n                /* \"#utility.yul\":2188:2211   */\n              sub\n                /* \"#utility.yul\":2184:2216   */\n              slt\n                /* \"#utility.yul\":2181:2300   */\n              iszero\n              tag_98\n              jumpi\n                /* \"#utility.yul\":2219:2298   */\n              tag_99\n              tag_85\n              jump\t// in\n            tag_99:\n                /* \"#utility.yul\":2181:2300   */\n            tag_98:\n                /* \"#utility.yul\":2339:2340   */\n              0x00\n                /* \"#utility.yul\":2364:2417   */\n              tag_100\n                /* \"#utility.yul\":2409:2416   */\n              dup5\n                /* \"#utility.yul\":2400:2406   */\n              dup3\n                /* \"#utility.yul\":2389:2398   */\n              dup6\n                /* \"#utility.yul\":2385:2407   */\n              add\n                /* \"#utility.yul\":2364:2417   */\n              tag_78\n              jump\t// in\n            tag_100:\n                /* \"#utility.yul\":2354:2417   */\n              swap2\n              pop\n                /* \"#utility.yul\":2310:2427   */\n              pop\n                /* \"#utility.yul\":2105:2434   */\n              swap3\n              swap2\n              pop\n              pop\n              jump\t// out\n                /* \"#utility.yul\":2440:2804   */\n            tag_101:\n                /* \"#utility.yul\":2528:2531   */\n              0x00\n                /* \"#utility.yul\":2556:2595   */\n              tag_103\n                /* \"#utility.yul\":2589:2594   */\n              dup3\n                /* \"#utility.yul\":2556:2595   */\n              tag_104\n              jump\t// in\n            tag_103:\n                /* \"#utility.yul\":2611:2682   */\n              tag_105\n                /* \"#utility.yul\":2675:2681   */\n              dup2\n                /* \"#utility.yul\":2670:2673   */\n              dup6\n                /* \"#utility.yul\":2611:2682   */\n              tag_106\n              jump\t// in\n            tag_105:\n                /* \"#utility.yul\":2604:2682   */\n              swap4\n              pop\n                /* \"#utility.yul\":2691:2743   */\n              tag_107\n                /* \"#utility.yul\":2736:2742   */\n              dup2\n                /* \"#utility.yul\":2731:2734   */\n              dup6\n                /* \"#utility.yul\":2724:2728   */\n              0x20\n                /* \"#utility.yul\":2717:2722   */\n              dup7\n                /* \"#utility.yul\":2713:2729   */\n              add\n                /* \"#utility.yul\":2691:2743   */\n              tag_108\n              jump\t// in\n            tag_107:\n                /* \"#utility.yul\":2768:2797   */\n              tag_109\n                /* \"#utility.yul\":2790:2796   */\n              dup2\n                /* \"#utility.yul\":2768:2797   */\n              tag_110\n              jump\t// in\n            tag_109:\n                /* \"#utility.yul\":2763:2766   */\n              dup5\n                /* \"#utility.yul\":2759:2798   */\n              add\n                /* \"#utility.yul\":2752:2798   */\n              swap2\n              pop\n                /* \"#utility.yul\":2532:2804   */\n              pop\n                /* \"#utility.yul\":2440:2804   */\n              swap3\n              swap2\n              pop\n              pop\n              jump\t// out\n                /* \"#utility.yul\":2810:3187   */\n            tag_111:\n                /* \"#utility.yul\":2916:2919   */\n              0x00\n                /* \"#utility.yul\":2944:2983   */\n              tag_113\n                /* \"#utility.yul\":2977:2982   */\n              dup3\n                /* \"#utility.yul\":2944:2983   */\n              tag_104\n              jump\t// in\n            tag_113:\n                /* \"#utility.yul\":2999:3088   */\n              tag_114\n                /* \"#utility.yul\":3081:3087   */\n              dup2\n                /* \"#utility.yul\":3076:3079   */\n              dup6\n                /* \"#utility.yul\":2999:3088   */\n              tag_115\n              jump\t// in\n            tag_114:\n                /* \"#utility.yul\":2992:3088   */\n              swap4\n              pop\n                /* \"#utility.yul\":3097:3149   */\n              tag_116\n                /* \"#utility.yul\":3142:3148   */\n              dup2\n                /* \"#utility.yul\":3137:3140   */\n              dup6\n                /* \"#utility.yul\":3130:3134   */\n              0x20\n                /* \"#utility.yul\":3123:3128   */\n              dup7\n                /* \"#utility.yul\":3119:3135   */\n              add\n                /* \"#utility.yul\":3097:3149   */\n              tag_108\n              jump\t// in\n            tag_116:\n                /* \"#utility.yul\":3174:3180   */\n              dup1\n                /* \"#utility.yul\":3169:3172   */\n              dup5\n                /* \"#utility.yul\":3165:3181   */\n              add\n                /* \"#utility.yul\":3158:3181   */\n              swap2\n              pop\n                /* \"#utility.yul\":2920:3187   */\n              pop\n                /* \"#utility.yul\":2810:3187   */\n              swap3\n              swap2\n              pop\n              pop\n              jump\t// out\n                /* \"#utility.yul\":3193:3311   */\n            tag_117:\n                /* \"#utility.yul\":3280:3304   */\n              tag_119\n                /* \"#utility.yul\":3298:3303   */\n              dup2\n                /* \"#utility.yul\":3280:3304   */\n              tag_120\n              jump\t// in\n            tag_119:\n                /* \"#utility.yul\":3275:3278   */\n              dup3\n                /* \"#utility.yul\":3268:3305   */\n              mstore\n                /* \"#utility.yul\":3193:3311   */\n              pop\n              pop\n              jump\t// out\n                /* \"#utility.yul\":3317:3592   */\n            tag_41:\n                /* \"#utility.yul\":3449:3452   */\n              0x00\n                /* \"#utility.yul\":3471:3566   */\n              tag_122\n                /* \"#utility.yul\":3562:3565   */\n              dup3\n                /* \"#utility.yul\":3553:3559   */\n              dup5\n                /* \"#utility.yul\":3471:3566   */\n              tag_111\n              jump\t// in\n            tag_122:\n                /* \"#utility.yul\":3464:3566   */\n              swap2\n              pop\n                /* \"#utility.yul\":3583:3586   */\n              dup2\n                /* \"#utility.yul\":3576:3586   */\n              swap1\n              pop\n                /* \"#utility.yul\":3317:3592   */\n              swap3\n              swap2\n              pop\n              pop\n              jump\t// out\n                /* \"#utility.yul\":3598:3820   */\n            tag_12:\n                /* \"#utility.yul\":3691:3695   */\n              0x00\n                /* \"#utility.yul\":3729:3731   */\n              0x20\n                /* \"#utility.yul\":3718:3727   */\n              dup3\n                /* \"#utility.yul\":3714:3732   */\n              add\n                /* \"#utility.yul\":3706:3732   */\n              swap1\n              pop\n                /* \"#utility.yul\":3742:3813   */\n              tag_124\n                /* \"#utility.yul\":3810:3811   */\n              0x00\n                /* \"#utility.yul\":3799:3808   */\n              dup4\n                /* \"#utility.yul\":3795:3812   */\n              add\n                /* \"#utility.yul\":3786:3792   */\n              dup5\n                /* \"#utility.yul\":3742:3813   */\n              tag_117\n              jump\t// in\n            tag_124:\n                /* \"#utility.yul\":3598:3820   */\n              swap3\n              swap2\n              pop\n              pop\n              jump\t// out\n                /* \"#utility.yul\":3826:4249   */\n            tag_33:\n                /* \"#utility.yul\":3967:3971   */\n              0x00\n                /* \"#utility.yul\":4005:4007   */\n              0x40\n                /* \"#utility.yul\":3994:4003   */\n              dup3\n                /* \"#utility.yul\":3990:4008   */\n              add\n                /* \"#utility.yul\":3982:4008   */\n              swap1\n              pop\n                /* \"#utility.yul\":4018:4089   */\n              tag_126\n                /* \"#utility.yul\":4086:4087   */\n              0x00\n                /* \"#utility.yul\":4075:4084   */\n              dup4\n                /* \"#utility.yul\":4071:4088   */\n              add\n                /* \"#utility.yul\":4062:4068   */\n              dup6\n                /* \"#utility.yul\":4018:4089   */\n              tag_117\n              jump\t// in\n            tag_126:\n                /* \"#utility.yul\":4136:4145   */\n              dup2\n                /* \"#utility.yul\":4130:4134   */\n              dup2\n                /* \"#utility.yul\":4126:4146   */\n              sub\n                /* \"#utility.yul\":4121:4123   */\n              0x20\n                /* \"#utility.yul\":4110:4119   */\n              dup4\n                /* \"#utility.yul\":4106:4124   */\n              add\n                /* \"#utility.yul\":4099:4147   */\n              mstore\n                /* \"#utility.yul\":4164:4242   */\n              tag_127\n                /* \"#utility.yul\":4237:4241   */\n              dup2\n                /* \"#utility.yul\":4228:4234   */\n              dup5\n                /* \"#utility.yul\":4164:4242   */\n              tag_101\n              jump\t// in\n            tag_127:\n                /* \"#utility.yul\":4156:4242   */\n              swap1\n              pop\n                /* \"#utility.yul\":3826:4249   */\n              swap4\n              swap3\n              pop\n              pop\n              pop\n              jump\t// out\n                /* \"#utility.yul\":4255:4384   */\n            tag_66:\n                /* \"#utility.yul\":4289:4295   */\n              0x00\n                /* \"#utility.yul\":4316:4336   */\n              tag_129\n              tag_130\n              jump\t// in\n            tag_129:\n                /* \"#utility.yul\":4306:4336   */\n              swap1\n              pop\n                /* \"#utility.yul\":4345:4378   */\n              tag_131\n                /* \"#utility.yul\":4373:4377   */\n              dup3\n                /* \"#utility.yul\":4365:4371   */\n              dup3\n                /* \"#utility.yul\":4345:4378   */\n              tag_132\n              jump\t// in\n            tag_131:\n                /* \"#utility.yul\":4255:4384   */\n              swap2\n              swap1\n              pop\n              jump\t// out\n                /* \"#utility.yul\":4390:4465   */\n            tag_130:\n                /* \"#utility.yul\":4423:4429   */\n              0x00\n                /* \"#utility.yul\":4456:4458   */\n              0x40\n                /* \"#utility.yul\":4450:4459   */\n              mload\n                /* \"#utility.yul\":4440:4459   */\n              swap1\n              pop\n                /* \"#utility.yul\":4390:4465   */\n              swap1\n              jump\t// out\n                /* \"#utility.yul\":4471:4779   */\n            tag_65:\n                /* \"#utility.yul\":4533:4537   */\n              0x00\n                /* \"#utility.yul\":4623:4641   */\n              0xffffffffffffffff\n                /* \"#utility.yul\":4615:4621   */\n              dup3\n                /* \"#utility.yul\":4612:4642   */\n              gt\n                /* \"#utility.yul\":4609:4665   */\n              iszero\n              tag_135\n              jumpi\n                /* \"#utility.yul\":4645:4663   */\n              tag_136\n              tag_137\n              jump\t// in\n            tag_136:\n                /* \"#utility.yul\":4609:4665   */\n            tag_135:\n                /* \"#utility.yul\":4683:4712   */\n              tag_138\n                /* \"#utility.yul\":4705:4711   */\n              dup3\n                /* \"#utility.yul\":4683:4712   */\n              tag_110\n              jump\t// in\n            tag_138:\n                /* \"#utility.yul\":4675:4712   */\n              swap1\n              pop\n                /* \"#utility.yul\":4767:4771   */\n              0x20\n                /* \"#utility.yul\":4761:4765   */\n              dup2\n                /* \"#utility.yul\":4757:4772   */\n              add\n                /* \"#utility.yul\":4749:4772   */\n              swap1\n              pop\n                /* \"#utility.yul\":4471:4779   */\n              swap2\n              swap1\n              pop\n              jump\t// out\n                /* \"#utility.yul\":4785:4884   */\n            tag_104:\n                /* \"#utility.yul\":4837:4843   */\n              0x00\n                /* \"#utility.yul\":4871:4876   */\n              dup2\n                /* \"#utility.yul\":4865:4877   */\n              mload\n                /* \"#utility.yul\":4855:4877   */\n              swap1\n              pop\n                /* \"#utility.yul\":4785:4884   */\n              swap2\n              swap1\n              pop\n              jump\t// out\n                /* \"#utility.yul\":4890:5059   */\n            tag_106:\n                /* \"#utility.yul\":4974:4985   */\n              0x00\n                /* \"#utility.yul\":5008:5014   */\n              dup3\n                /* \"#utility.yul\":5003:5006   */\n              dup3\n                /* \"#utility.yul\":4996:5015   */\n              mstore\n                /* \"#utility.yul\":5048:5052   */\n              0x20\n                /* \"#utility.yul\":5043:5046   */\n              dup3\n                /* \"#utility.yul\":5039:5053   */\n              add\n                /* \"#utility.yul\":5024:5053   */\n              swap1\n              pop\n                /* \"#utility.yul\":4890:5059   */\n              swap3\n              swap2\n              pop\n              pop\n              jump\t// out\n                /* \"#utility.yul\":5065:5213   */\n            tag_115:\n                /* \"#utility.yul\":5167:5178   */\n              0x00\n                /* \"#utility.yul\":5204:5207   */\n              dup2\n                /* \"#utility.yul\":5189:5207   */\n              swap1\n              pop\n                /* \"#utility.yul\":5065:5213   */\n              swap3\n              swap2\n              pop\n              pop\n              jump\t// out\n                /* \"#utility.yul\":5219:5296   */\n            tag_120:\n                /* \"#utility.yul\":5256:5263   */\n              0x00\n                /* \"#utility.yul\":5285:5290   */\n              dup2\n                /* \"#utility.yul\":5274:5290   */\n              swap1\n              pop\n                /* \"#utility.yul\":5219:5296   */\n              swap2\n              swap1\n              pop\n              jump\t// out\n                /* \"#utility.yul\":5302:5456   */\n            tag_71:\n                /* \"#utility.yul\":5386:5392   */\n              dup3\n                /* \"#utility.yul\":5381:5384   */\n              dup2\n                /* \"#utility.yul\":5376:5379   */\n              dup4\n                /* \"#utility.yul\":5363:5393   */\n              calldatacopy\n                /* \"#utility.yul\":5448:5449   */\n              0x00\n                /* \"#utility.yul\":5439:5445   */\n              dup4\n                /* \"#utility.yul\":5434:5437   */\n              dup4\n                /* \"#utility.yul\":5430:5446   */\n              add\n                /* \"#utility.yul\":5423:5450   */\n              mstore\n                /* \"#utility.yul\":5302:5456   */\n              pop\n              pop\n              pop\n              jump\t// out\n                /* \"#utility.yul\":5462:5769   */\n            tag_108:\n                /* \"#utility.yul\":5530:5531   */\n              0x00\n                /* \"#utility.yul\":5540:5653   */\n            tag_145:\n                /* \"#utility.yul\":5554:5560   */\n              dup4\n                /* \"#utility.yul\":5551:5552   */\n              dup2\n                /* \"#utility.yul\":5548:5561   */\n              lt\n                /* \"#utility.yul\":5540:5653   */\n              iszero\n              tag_147\n              jumpi\n                /* \"#utility.yul\":5639:5640   */\n              dup1\n                /* \"#utility.yul\":5634:5637   */\n              dup3\n                /* \"#utility.yul\":5630:5641   */\n              add\n                /* \"#utility.yul\":5624:5642   */\n              mload\n                /* \"#utility.yul\":5620:5621   */\n              dup2\n                /* \"#utility.yul\":5615:5618   */\n              dup5\n                /* \"#utility.yul\":5611:5622   */\n              add\n                /* \"#utility.yul\":5604:5643   */\n              mstore\n                /* \"#utility.yul\":5576:5578   */\n              0x20\n                /* \"#utility.yul\":5573:5574   */\n              dup2\n                /* \"#utility.yul\":5569:5579   */\n              add\n                /* \"#utility.yul\":5564:5579   */\n              swap1\n              pop\n                /* \"#utility.yul\":5540:5653   */\n              jump(tag_145)\n            tag_147:\n                /* \"#utility.yul\":5671:5677   */\n              dup4\n                /* \"#utility.yul\":5668:5669   */\n              dup2\n                /* \"#utility.yul\":5665:5678   */\n              gt\n                /* \"#utility.yul\":5662:5763   */\n              iszero\n              tag_148\n              jumpi\n                /* \"#utility.yul\":5751:5752   */\n              0x00\n                /* \"#utility.yul\":5742:5748   */\n              dup5\n                /* \"#utility.yul\":5737:5740   */\n              dup5\n                /* \"#utility.yul\":5733:5749   */\n              add\n                /* \"#utility.yul\":5726:5753   */\n              mstore\n                /* \"#utility.yul\":5662:5763   */\n            tag_148:\n                /* \"#utility.yul\":5511:5769   */\n              pop\n                /* \"#utility.yul\":5462:5769   */\n              pop\n              pop\n              pop\n              jump\t// out\n                /* \"#utility.yul\":5775:6095   */\n            tag_45:\n                /* \"#utility.yul\":5819:5825   */\n              0x00\n                /* \"#utility.yul\":5856:5857   */\n              0x02\n                /* \"#utility.yul\":5850:5854   */\n              dup3\n                /* \"#utility.yul\":5846:5858   */\n              div\n                /* \"#utility.yul\":5836:5858   */\n              swap1\n              pop\n                /* \"#utility.yul\":5903:5904   */\n              0x01\n                /* \"#utility.yul\":5897:5901   */\n              dup3\n                /* \"#utility.yul\":5893:5905   */\n              and\n                /* \"#utility.yul\":5924:5942   */\n              dup1\n                /* \"#utility.yul\":5914:5995   */\n              tag_150\n              jumpi\n                /* \"#utility.yul\":5980:5984   */\n              0x7f\n                /* \"#utility.yul\":5972:5978   */\n              dup3\n                /* \"#utility.yul\":5968:5985   */\n              and\n                /* \"#utility.yul\":5958:5985   */\n              swap2\n              pop\n                /* \"#utility.yul\":5914:5995   */\n            tag_150:\n                /* \"#utility.yul\":6042:6044   */\n              0x20\n                /* \"#utility.yul\":6034:6040   */\n              dup3\n                /* \"#utility.yul\":6031:6045   */\n              lt\n                /* \"#utility.yul\":6011:6029   */\n              dup2\n                /* \"#utility.yul\":6008:6046   */\n              eq\n                /* \"#utility.yul\":6005:6089   */\n              iszero\n              tag_151\n              jumpi\n                /* \"#utility.yul\":6061:6079   */\n              tag_152\n              tag_153\n              jump\t// in\n            tag_152:\n                /* \"#utility.yul\":6005:6089   */\n            tag_151:\n                /* \"#utility.yul\":5826:6095   */\n              pop\n                /* \"#utility.yul\":5775:6095   */\n              swap2\n              swap1\n              pop\n              jump\t// out\n                /* \"#utility.yul\":6101:6382   */\n            tag_132:\n                /* \"#utility.yul\":6184:6211   */\n              tag_155\n                /* \"#utility.yul\":6206:6210   */\n              dup3\n                /* \"#utility.yul\":6184:6211   */\n              tag_110\n              jump\t// in\n            tag_155:\n                /* \"#utility.yul\":6176:6182   */\n              dup2\n                /* \"#utility.yul\":6172:6212   */\n              add\n                /* \"#utility.yul\":6314:6320   */\n              dup2\n                /* \"#utility.yul\":6302:6312   */\n              dup2\n                /* \"#utility.yul\":6299:6321   */\n              lt\n                /* \"#utility.yul\":6278:6296   */\n              0xffffffffffffffff\n                /* \"#utility.yul\":6266:6276   */\n              dup3\n                /* \"#utility.yul\":6263:6297   */\n              gt\n                /* \"#utility.yul\":6260:6322   */\n              or\n                /* \"#utility.yul\":6257:6345   */\n              iszero\n              tag_156\n              jumpi\n                /* \"#utility.yul\":6325:6343   */\n              tag_157\n              tag_137\n              jump\t// in\n            tag_157:\n                /* \"#utility.yul\":6257:6345   */\n            tag_156:\n                /* \"#utility.yul\":6365:6375   */\n              dup1\n                /* \"#utility.yul\":6361:6363   */\n              0x40\n                /* \"#utility.yul\":6354:6376   */\n              mstore\n                /* \"#utility.yul\":6144:6382   */\n              pop\n                /* \"#utility.yul\":6101:6382   */\n              pop\n              pop\n              jump\t// out\n                /* \"#utility.yul\":6388:6568   */\n            tag_153:\n                /* \"#utility.yul\":6436:6513   */\n              0x4e487b7100000000000000000000000000000000000000000000000000000000\n                /* \"#utility.yul\":6433:6434   */\n              0x00\n                /* \"#utility.yul\":6426:6514   */\n              mstore\n                /* \"#utility.yul\":6533:6537   */\n              0x22\n                /* \"#utility.yul\":6530:6531   */\n              0x04\n                /* \"#utility.yul\":6523:6538   */\n              mstore\n                /* \"#utility.yul\":6557:6561   */\n              0x24\n                /* \"#utility.yul\":6554:6555   */\n              0x00\n                /* \"#utility.yul\":6547:6562   */\n              revert\n                /* \"#utility.yul\":6574:6754   */\n            tag_137:\n                /* \"#utility.yul\":6622:6699   */\n              0x4e487b7100000000000000000000000000000000000000000000000000000000\n                /* \"#utility.yul\":6619:6620   */\n              0x00\n                /* \"#utility.yul\":6612:6700   */\n              mstore\n                /* \"#utility.yul\":6719:6723   */\n              0x41\n                /* \"#utility.yul\":6716:6717   */\n              0x04\n                /* \"#utility.yul\":6709:6724   */\n              mstore\n                /* \"#utility.yul\":6743:6747   */\n              0x24\n                /* \"#utility.yul\":6740:6741   */\n              0x00\n                /* \"#utility.yul\":6733:6748   */\n              revert\n                /* \"#utility.yul\":6760:6877   */\n            tag_76:\n                /* \"#utility.yul\":6869:6870   */\n              0x00\n                /* \"#utility.yul\":6866:6867   */\n              dup1\n                /* \"#utility.yul\":6859:6871   */\n              revert\n                /* \"#utility.yul\":6883:7000   */\n            tag_69:\n                /* \"#utility.yul\":6992:6993   */\n              0x00\n                /* \"#utility.yul\":6989:6990   */\n              dup1\n                /* \"#utility.yul\":6982:6994   */\n              revert\n                /* \"#utility.yul\":7006:7123   */\n            tag_88:\n                /* \"#utility.yul\":7115:7116   */\n              0x00\n                /* \"#utility.yul\":7112:7113   */\n              dup1\n                /* \"#utility.yul\":7105:7117   */\n              revert\n                /* \"#utility.yul\":7129:7246   */\n            tag_85:\n                /* \"#utility.yul\":7238:7239   */\n              0x00\n                /* \"#utility.yul\":7235:7236   */\n              dup1\n                /* \"#utility.yul\":7228:7240   */\n              revert\n                /* \"#utility.yul\":7252:7354   */\n            tag_110:\n                /* \"#utility.yul\":7293:7299   */\n              0x00\n                /* \"#utility.yul\":7344:7346   */\n              0x1f\n                /* \"#utility.yul\":7340:7347   */\n              not\n                /* \"#utility.yul\":7335:7337   */\n              0x1f\n                /* \"#utility.yul\":7328:7333   */\n              dup4\n                /* \"#utility.yul\":7324:7338   */\n              add\n                /* \"#utility.yul\":7320:7348   */\n              and\n                /* \"#utility.yul\":7310:7348   */\n              swap1\n              pop\n                /* \"#utility.yul\":7252:7354   */\n              swap2\n              swap1\n              pop\n              jump\t// out\n                /* \"#utility.yul\":7360:7482   */\n            tag_81:\n                /* \"#utility.yul\":7433:7457   */\n              tag_166\n                /* \"#utility.yul\":7451:7456   */\n              dup2\n                /* \"#utility.yul\":7433:7457   */\n              tag_120\n              jump\t// in\n            tag_166:\n                /* \"#utility.yul\":7426:7431   */\n              dup2\n                /* \"#utility.yul\":7423:7458   */\n              eq\n                /* \"#utility.yul\":7413:7476   */\n              tag_167\n              jumpi\n                /* \"#utility.yul\":7472:7473   */\n              0x00\n                /* \"#utility.yul\":7469:7470   */\n              dup1\n                /* \"#utility.yul\":7462:7474   */\n              revert\n                /* \"#utility.yul\":7413:7476   */\n            tag_167:\n                /* \"#utility.yul\":7360:7482   */\n              pop\n              jump\t// out\n\n            auxdata: 0xa2646970667358221220ddc6f1c3b30a8b23c0384ea62fd1ad922ca333d7cb9b03d59a4056e31d5de6c964736f6c63430008070033\n        }\n    }\n\n    auxdata: 0xa2646970667358221220a2ab3b15e73b33dbbb35b7508942458f3ad808d3379934794fe33cdbe1c8dce064736f6c63430008070033\n}\n",
				"bytecode": {
					"linkReferences": {},
					"object": "6080604052600560005534801561001557600080fd5b506113af806100256000396000f3fe608060405234801561001057600080fd5b506004361061009e5760003560e01c806364591bf11161006657806364591bf1146101215780636f760f41146101515780638bab8dd51461016d5780639e7a13ad1461019d578063c5f19c20146101ce5761009e565b80631563700f146100a35780631dda6541146100bf5780632e64cec1146100c9578063471f7cdf146100e75780636057361d14610105575b600080fd5b6100bd60048036038101906100b89190610824565b6101fe565b005b6100c76102b1565b005b6100d1610344565b6040516100de919061091e565b60405180910390f35b6100ef61034d565b6040516100fc919061091e565b60405180910390f35b61011f600480360381019061011a91906107ca565b610353565b005b61013b600480360381019061013691906107ca565b61035d565b6040516101489190610903565b60405180910390f35b61016b6004803603810190610166919061076e565b61039c565b005b61018760048036038101906101829190610725565b61042c565b604051610194919061091e565b60405180910390f35b6101b760048036038101906101b291906107ca565b61045a565b6040516101c5929190610939565b60405180910390f35b6101e860048036038101906101e391906107ca565b610516565b6040516101f5919061091e565b60405180910390f35b60006003838154811061021457610213610b1a565b5b9060005260206000200160009054906101000a900473ffffffffffffffffffffffffffffffffffffffff1690508073ffffffffffffffffffffffffffffffffffffffff16636057361d836040518263ffffffff1660e01b815260040161027a919061091e565b600060405180830381600087803b15801561029457600080fd5b505af11580156102a8573d6000803e3d6000fd5b50505050505050565b60006040516102bf906105db565b604051809103906000f0801580156102db573d6000803e3d6000fd5b5090506003819080600181540180825580915050600190039060005260206000200160009091909190916101000a81548173ffffffffffffffffffffffffffffffffffffffff021916908373ffffffffffffffffffffffffffffffffffffffff16021790555050565b60008054905090565b60005481565b8060008190555050565b6003818154811061036d57600080fd5b906000526020600020016000915054906101000a900473ffffffffffffffffffffffffffffffffffffffff1681565b600160405180604001604052808381526020018481525090806001815401808255809150506001900390600052602060002090600202016000909190919091506000820151816000015560208201518160010190805190602001906104029291906105e8565b5050508060028360405161041691906108ec565b9081526020016040518091039020819055505050565b6002818051602081018201805184825260208301602085012081835280955050505050506000915090505481565b6001818154811061046a57600080fd5b906000526020600020906002020160009150905080600001549080600101805461049390610a88565b80601f01602080910402602001604051908101604052809291908181526020018280546104bf90610a88565b801561050c5780601f106104e15761010080835404028352916020019161050c565b820191906000526020600020905b8154815290600101906020018083116104ef57829003601f168201915b5050505050905082565b60006003828154811061052c5761052b610b1a565b5b9060005260206000200160009054906101000a900473ffffffffffffffffffffffffffffffffffffffff1673ffffffffffffffffffffffffffffffffffffffff16632e64cec16040518163ffffffff1660e01b815260040160206040518083038186803b15801561059c57600080fd5b505afa1580156105b0573d6000803e3d6000fd5b505050506040513d601f19601f820116820180604052508101906105d491906107f7565b9050919050565b6107c580610bb583390190565b8280546105f490610a88565b90600052602060002090601f016020900481019282610616576000855561065d565b82601f1061062f57805160ff191683800117855561065d565b8280016001018555821561065d579182015b8281111561065c578251825591602001919060010190610641565b5b50905061066a919061066e565b5090565b5b8082111561068757600081600090555060010161066f565b5090565b600061069e6106998461098e565b610969565b9050828152602081018484840111156106ba576106b9610b7d565b5b6106c5848285610a46565b509392505050565b600082601f8301126106e2576106e1610b78565b5b81356106f284826020860161068b565b91505092915050565b60008135905061070a81610b9d565b92915050565b60008151905061071f81610b9d565b92915050565b60006020828403121561073b5761073a610b87565b5b600082013567ffffffffffffffff81111561075957610758610b82565b5b610765848285016106cd565b91505092915050565b6000806040838503121561078557610784610b87565b5b600083013567ffffffffffffffff8111156107a3576107a2610b82565b5b6107af858286016106cd565b92505060206107c0858286016106fb565b9150509250929050565b6000602082840312156107e0576107df610b87565b5b60006107ee848285016106fb565b91505092915050565b60006020828403121561080d5761080c610b87565b5b600061081b84828501610710565b91505092915050565b6000806040838503121561083b5761083a610b87565b5b6000610849858286016106fb565b925050602061085a858286016106fb565b9150509250929050565b61086d81610a10565b82525050565b600061087e826109bf565b61088881856109ca565b9350610898818560208601610a55565b6108a181610b8c565b840191505092915050565b60006108b7826109bf565b6108c181856109db565b93506108d1818560208601610a55565b80840191505092915050565b6108e681610a06565b82525050565b60006108f882846108ac565b915081905092915050565b60006020820190506109186000830184610864565b92915050565b600060208201905061093360008301846108dd565b92915050565b600060408201905061094e60008301856108dd565b81810360208301526109608184610873565b90509392505050565b6000610973610984565b905061097f8282610aba565b919050565b6000604051905090565b600067ffffffffffffffff8211156109a9576109a8610b49565b5b6109b282610b8c565b9050602081019050919050565b600081519050919050565b600082825260208201905092915050565b600081905092915050565b600073ffffffffffffffffffffffffffffffffffffffff82169050919050565b6000819050919050565b6000610a1b82610a22565b9050919050565b6000610a2d82610a34565b9050919050565b6000610a3f826109e6565b9050919050565b82818337600083830152505050565b60005b83811015610a73578082015181840152602081019050610a58565b83811115610a82576000848401525b50505050565b60006002820490506001821680610aa057607f821691505b60208210811415610ab457610ab3610aeb565b5b50919050565b610ac382610b8c565b810181811067ffffffffffffffff82111715610ae257610ae1610b49565b5b80604052505050565b7f4e487b7100000000000000000000000000000000000000000000000000000000600052602260045260246000fd5b7f4e487b7100000000000000000000000000000000000000000000000000000000600052603260045260246000fd5b7f4e487b7100000000000000000000000000000000000000000000000000000000600052604160045260246000fd5b600080fd5b600080fd5b600080fd5b600080fd5b6000601f19601f8301169050919050565b610ba681610a06565b8114610bb157600080fd5b5056fe6080604052600560005534801561001557600080fd5b506107a0806100256000396000f3fe608060405234801561001057600080fd5b50600436106100625760003560e01c80632e64cec114610067578063471f7cdf146100855780636057361d146100a35780636f760f41146100bf5780638bab8dd5146100db5780639e7a13ad1461010b575b600080fd5b61006f61013c565b60405161007c9190610559565b60405180910390f35b61008d610145565b60405161009a9190610559565b60405180910390f35b6100bd60048036038101906100b8919061049c565b61014b565b005b6100d960048036038101906100d49190610440565b610155565b005b6100f560048036038101906100f091906103f7565b6101e5565b6040516101029190610559565b60405180910390f35b6101256004803603810190610120919061049c565b610213565b604051610133929190610574565b60405180910390f35b60008054905090565b60005481565b8060008190555050565b600160405180604001604052808381526020018481525090806001815401808255809150506001900390600052602060002090600202016000909190919091506000820151816000015560208201518160010190805190602001906101bb9291906102cf565b505050806002836040516101cf9190610542565b9081526020016040518091039020819055505050565b6002818051602081018201805184825260208301602085012081835280955050505050506000915090505481565b6001818154811061022357600080fd5b906000526020600020906002020160009150905080600001549080600101805461024c9061066d565b80601f01602080910402602001604051908101604052809291908181526020018280546102789061066d565b80156102c55780601f1061029a576101008083540402835291602001916102c5565b820191906000526020600020905b8154815290600101906020018083116102a857829003601f168201915b5050505050905082565b8280546102db9061066d565b90600052602060002090601f0160209004810192826102fd5760008555610344565b82601f1061031657805160ff1916838001178555610344565b82800160010185558215610344579182015b82811115610343578251825591602001919060010190610328565b5b5090506103519190610355565b5090565b5b8082111561036e576000816000905550600101610356565b5090565b6000610385610380846105c9565b6105a4565b9050828152602081018484840111156103a1576103a0610733565b5b6103ac84828561062b565b509392505050565b600082601f8301126103c9576103c861072e565b5b81356103d9848260208601610372565b91505092915050565b6000813590506103f181610753565b92915050565b60006020828403121561040d5761040c61073d565b5b600082013567ffffffffffffffff81111561042b5761042a610738565b5b610437848285016103b4565b91505092915050565b600080604083850312156104575761045661073d565b5b600083013567ffffffffffffffff81111561047557610474610738565b5b610481858286016103b4565b9250506020610492858286016103e2565b9150509250929050565b6000602082840312156104b2576104b161073d565b5b60006104c0848285016103e2565b91505092915050565b60006104d4826105fa565b6104de8185610605565b93506104ee81856020860161063a565b6104f781610742565b840191505092915050565b600061050d826105fa565b6105178185610616565b935061052781856020860161063a565b80840191505092915050565b61053c81610621565b82525050565b600061054e8284610502565b915081905092915050565b600060208201905061056e6000830184610533565b92915050565b60006040820190506105896000830185610533565b818103602083015261059b81846104c9565b90509392505050565b60006105ae6105bf565b90506105ba828261069f565b919050565b6000604051905090565b600067ffffffffffffffff8211156105e4576105e36106ff565b5b6105ed82610742565b9050602081019050919050565b600081519050919050565b600082825260208201905092915050565b600081905092915050565b6000819050919050565b82818337600083830152505050565b60005b8381101561065857808201518184015260208101905061063d565b83811115610667576000848401525b50505050565b6000600282049050600182168061068557607f821691505b60208210811415610699576106986106d0565b5b50919050565b6106a882610742565b810181811067ffffffffffffffff821117156106c7576106c66106ff565b5b80604052505050565b7f4e487b7100000000000000000000000000000000000000000000000000000000600052602260045260246000fd5b7f4e487b7100000000000000000000000000000000000000000000000000000000600052604160045260246000fd5b600080fd5b600080fd5b600080fd5b600080fd5b6000601f19601f8301169050919050565b61075c81610621565b811461076757600080fd5b5056fea2646970667358221220ddc6f1c3b30a8b23c0384ea62fd1ad922ca333d7cb9b03d59a4056e31d5de6c964736f6c63430008070033a2646970667358221220a2ab3b15e73b33dbbb35b7508942458f3ad808d3379934794fe33cdbe1c8dce064736f6c63430008070033",
					"opcodes": "PUSH1 0x80 PUSH1 0x40 MSTORE PUSH1 0x5 PUSH1 0x0 SSTORE CALLVALUE DUP1 ISZERO PUSH2 0x15 JUMPI PUSH1 0x0 DUP1 REVERT JUMPDEST POP PUSH2 0x13AF DUP1 PUSH2 0x25 PUSH1 0x0 CODECOPY PUSH1 0x0 RETURN INVALID PUSH1 0x80 PUSH1 0x40 MSTORE CALLVALUE DUP1 ISZERO PUSH2 0x10 JUMPI PUSH1 0x0 DUP1 REVERT JUMPDEST POP PUSH1 0x4 CALLDATASIZE LT PUSH2 0x9E JUMPI PUSH1 0x0 CALLDATALOAD PUSH1 0xE0 SHR DUP1 PUSH4 0x64591BF1 GT PUSH2 0x66 JUMPI DUP1 PUSH4 0x64591BF1 EQ PUSH2 0x121 JUMPI DUP1 PUSH4 0x6F760F41 EQ PUSH2 0x151 JUMPI DUP1 PUSH4 0x8BAB8DD5 EQ PUSH2 0x16D JUMPI DUP1 PUSH4 0x9E7A13AD EQ PUSH2 0x19D JUMPI DUP1 PUSH4 0xC5F19C20 EQ PUSH2 0x1CE JUMPI PUSH2 0x9E JUMP JUMPDEST DUP1 PUSH4 0x1563700F EQ PUSH2 0xA3 JUMPI DUP1 PUSH4 0x1DDA6541 EQ PUSH2 0xBF JUMPI DUP1 PUSH4 0x2E64CEC1 EQ PUSH2 0xC9 JUMPI DUP1 PUSH4 0x471F7CDF EQ PUSH2 0xE7 JUMPI DUP1 PUSH4 0x6057361D EQ PUSH2 0x105 JUMPI JUMPDEST PUSH1 0x0 DUP1 REVERT JUMPDEST PUSH2 0xBD PUSH1 0x4 DUP1 CALLDATASIZE SUB DUP2 ADD SWAP1 PUSH2 0xB8 SWAP2 SWAP1 PUSH2 0x824 JUMP JUMPDEST PUSH2 0x1FE JUMP JUMPDEST STOP JUMPDEST PUSH2 0xC7 PUSH2 0x2B1 JUMP JUMPDEST STOP JUMPDEST PUSH2 0xD1 PUSH2 0x344 JUMP JUMPDEST PUSH1 0x40 MLOAD PUSH2 0xDE SWAP2 SWAP1 PUSH2 0x91E JUMP JUMPDEST PUSH1 0x40 MLOAD DUP1 SWAP2 SUB SWAP1 RETURN JUMPDEST PUSH2 0xEF PUSH2 0x34D JUMP JUMPDEST PUSH1 0x40 MLOAD PUSH2 0xFC SWAP2 SWAP1 PUSH2 0x91E JUMP JUMPDEST PUSH1 0x40 MLOAD DUP1 SWAP2 SUB SWAP1 RETURN JUMPDEST PUSH2 0x11F PUSH1 0x4 DUP1 CALLDATASIZE SUB DUP2 ADD SWAP1 PUSH2 0x11A SWAP2 SWAP1 PUSH2 0x7CA JUMP JUMPDEST PUSH2 0x353 JUMP JUMPDEST STOP JUMPDEST PUSH2 0x13B PUSH1 0x4 DUP1 CALLDATASIZE SUB DUP2 ADD SWAP1 PUSH2 0x136 SWAP2 SWAP1 PUSH2 0x7CA JUMP JUMPDEST PUSH2 0x35D JUMP JUMPDEST PUSH1 0x40 MLOAD PUSH2 0x148 SWAP2 SWAP1 PUSH2 0x903 JUMP JUMPDEST PUSH1 0x40 MLOAD DUP1 SWAP2 SUB SWAP1 RETURN JUMPDEST PUSH2 0x16B PUSH1 0x4 DUP1 CALLDATASIZE SUB DUP2 ADD SWAP1 PUSH2 0x166 SWAP2 SWAP1 PUSH2 0x76E JUMP JUMPDEST PUSH2 0x39C JUMP JUMPDEST STOP JUMPDEST PUSH2 0x187 PUSH1 0x4 DUP1 CALLDATASIZE SUB DUP2 ADD SWAP1 PUSH2 0x182 SWAP2 SWAP1 PUSH2 0x725 JUMP JUMPDEST PUSH2 0x42C JUMP JUMPDEST PUSH1 0x40 MLOAD PUSH2 0x194 SWAP2 SWAP1 PUSH2 0x91E JUMP JUMPDEST PUSH1 0x40 MLOAD DUP1 SWAP2 SUB SWAP1 RETURN JUMPDEST PUSH2 0x1B7 PUSH1 0x4 DUP1 CALLDATASIZE SUB DUP2 ADD SWAP1 PUSH2 0x1B2 SWAP2 SWAP1 PUSH2 0x7CA JUMP JUMPDEST PUSH2 0x45A JUMP JUMPDEST PUSH1 0x40 MLOAD PUSH2 0x1C5 SWAP3 SWAP2 SWAP1 PUSH2 0x939 JUMP JUMPDEST PUSH1 0x40 MLOAD DUP1 SWAP2 SUB SWAP1 RETURN JUMPDEST PUSH2 0x1E8 PUSH1 0x4 DUP1 CALLDATASIZE SUB DUP2 ADD SWAP1 PUSH2 0x1E3 SWAP2 SWAP1 PUSH2 0x7CA JUMP JUMPDEST PUSH2 0x516 JUMP JUMPDEST PUSH1 0x40 MLOAD PUSH2 0x1F5 SWAP2 SWAP1 PUSH2 0x91E JUMP JUMPDEST PUSH1 0x40 MLOAD DUP1 SWAP2 SUB SWAP1 RETURN JUMPDEST PUSH1 0x0 PUSH1 0x3 DUP4 DUP2 SLOAD DUP2 LT PUSH2 0x214 JUMPI PUSH2 0x213 PUSH2 0xB1A JUMP JUMPDEST JUMPDEST SWAP1 PUSH1 0x0 MSTORE PUSH1 0x20 PUSH1 0x0 KECCAK256 ADD PUSH1 0x0 SWAP1 SLOAD SWAP1 PUSH2 0x100 EXP SWAP1 DIV PUSH20 0xFFFFFFFFFFFFFFFFFFFFFFFFFFFFFFFFFFFFFFFF AND SWAP1 POP DUP1 PUSH20 0xFFFFFFFFFFFFFFFFFFFFFFFFFFFFFFFFFFFFFFFF AND PUSH4 0x6057361D DUP4 PUSH1 0x40 MLOAD DUP3 PUSH4 0xFFFFFFFF AND PUSH1 0xE0 SHL DUP2 MSTORE PUSH1 0x4 ADD PUSH2 0x27A SWAP2 SWAP1 PUSH2 0x91E JUMP JUMPDEST PUSH1 0x0 PUSH1 0x40 MLOAD DUP1 DUP4 SUB DUP2 PUSH1 0x0 DUP8 DUP1 EXTCODESIZE ISZERO DUP1 ISZERO PUSH2 0x294 JUMPI PUSH1 0x0 DUP1 REVERT JUMPDEST POP GAS CALL ISZERO DUP1 ISZERO PUSH2 0x2A8 JUMPI RETURNDATASIZE PUSH1 0x0 DUP1 RETURNDATACOPY RETURNDATASIZE PUSH1 0x0 REVERT JUMPDEST POP POP POP POP POP POP POP JUMP JUMPDEST PUSH1 0x0 PUSH1 0x40 MLOAD PUSH2 0x2BF SWAP1 PUSH2 0x5DB JUMP JUMPDEST PUSH1 0x40 MLOAD DUP1 SWAP2 SUB SWAP1 PUSH1 0x0 CREATE DUP1 ISZERO DUP1 ISZERO PUSH2 0x2DB JUMPI RETURNDATASIZE PUSH1 0x0 DUP1 RETURNDATACOPY RETURNDATASIZE PUSH1 0x0 REVERT JUMPDEST POP SWAP1 POP PUSH1 0x3 DUP2 SWAP1 DUP1 PUSH1 0x1 DUP2 SLOAD ADD DUP1 DUP3 SSTORE DUP1 SWAP2 POP POP PUSH1 0x1 SWAP1 SUB SWAP1 PUSH1 0x0 MSTORE PUSH1 0x20 PUSH1 0x0 KECCAK256 ADD PUSH1 0x0 SWAP1 SWAP2 SWAP1 SWAP2 SWAP1 SWAP2 PUSH2 0x100 EXP DUP2 SLOAD DUP2 PUSH20 0xFFFFFFFFFFFFFFFFFFFFFFFFFFFFFFFFFFFFFFFF MUL NOT AND SWAP1 DUP4 PUSH20 0xFFFFFFFFFFFFFFFFFFFFFFFFFFFFFFFFFFFFFFFF AND MUL OR SWAP1 SSTORE POP POP JUMP JUMPDEST PUSH1 0x0 DUP1 SLOAD SWAP1 POP SWAP1 JUMP JUMPDEST PUSH1 0x0 SLOAD DUP2 JUMP JUMPDEST DUP1 PUSH1 0x0 DUP2 SWAP1 SSTORE POP POP JUMP JUMPDEST PUSH1 0x3 DUP2 DUP2 SLOAD DUP2 LT PUSH2 0x36D JUMPI PUSH1 0x0 DUP1 REVERT JUMPDEST SWAP1 PUSH1 0x0 MSTORE PUSH1 0x20 PUSH1 0x0 KECCAK256 ADD PUSH1 0x0 SWAP2 POP SLOAD SWAP1 PUSH2 0x100 EXP SWAP1 DIV PUSH20 0xFFFFFFFFFFFFFFFFFFFFFFFFFFFFFFFFFFFFFFFF AND DUP2 JUMP JUMPDEST PUSH1 0x1 PUSH1 0x40 MLOAD DUP1 PUSH1 0x40 ADD PUSH1 0x40 MSTORE DUP1 DUP4 DUP2 MSTORE PUSH1 0x20 ADD DUP5 DUP2 MSTORE POP SWAP1 DUP1 PUSH1 0x1 DUP2 SLOAD ADD DUP1 DUP3 SSTORE DUP1 SWAP2 POP POP PUSH1 0x1 SWAP1 SUB SWAP1 PUSH1 0x0 MSTORE PUSH1 0x20 PUSH1 0x0 KECCAK256 SWAP1 PUSH1 0x2 MUL ADD PUSH1 0x0 SWAP1 SWAP2 SWAP1 SWAP2 SWAP1 SWAP2 POP PUSH1 0x0 DUP3 ADD MLOAD DUP2 PUSH1 0x0 ADD SSTORE PUSH1 0x20 DUP3 ADD MLOAD DUP2 PUSH1 0x1 ADD SWAP1 DUP1 MLOAD SWAP1 PUSH1 0x20 ADD SWAP1 PUSH2 0x402 SWAP3 SWAP2 SWAP1 PUSH2 0x5E8 JUMP JUMPDEST POP POP POP DUP1 PUSH1 0x2 DUP4 PUSH1 0x40 MLOAD PUSH2 0x416 SWAP2 SWAP1 PUSH2 0x8EC JUMP JUMPDEST SWAP1 DUP2 MSTORE PUSH1 0x20 ADD PUSH1 0x40 MLOAD DUP1 SWAP2 SUB SWAP1 KECCAK256 DUP2 SWAP1 SSTORE POP POP POP JUMP JUMPDEST PUSH1 0x2 DUP2 DUP1 MLOAD PUSH1 0x20 DUP2 ADD DUP3 ADD DUP1 MLOAD DUP5 DUP3 MSTORE PUSH1 0x20 DUP4 ADD PUSH1 0x20 DUP6 ADD KECCAK256 DUP2 DUP4 MSTORE DUP1 SWAP6 POP POP POP POP POP POP PUSH1 0x0 SWAP2 POP SWAP1 POP SLOAD DUP2 JUMP JUMPDEST PUSH1 0x1 DUP2 DUP2 SLOAD DUP2 LT PUSH2 0x46A JUMPI PUSH1 0x0 DUP1 REVERT JUMPDEST SWAP1 PUSH1 0x0 MSTORE PUSH1 0x20 PUSH1 0x0 KECCAK256 SWAP1 PUSH1 0x2 MUL ADD PUSH1 0x0 SWAP2 POP SWAP1 POP DUP1 PUSH1 0x0 ADD SLOAD SWAP1 DUP1 PUSH1 0x1 ADD DUP1 SLOAD PUSH2 0x493 SWAP1 PUSH2 0xA88 JUMP JUMPDEST DUP1 PUSH1 0x1F ADD PUSH1 0x20 DUP1 SWAP2 DIV MUL PUSH1 0x20 ADD PUSH1 0x40 MLOAD SWAP1 DUP2 ADD PUSH1 0x40 MSTORE DUP1 SWAP3 SWAP2 SWAP1 DUP2 DUP2 MSTORE PUSH1 0x20 ADD DUP3 DUP1 SLOAD PUSH2 0x4BF SWAP1 PUSH2 0xA88 JUMP JUMPDEST DUP1 ISZERO PUSH2 0x50C JUMPI DUP1 PUSH1 0x1F LT PUSH2 0x4E1 JUMPI PUSH2 0x100 DUP1 DUP4 SLOAD DIV MUL DUP4 MSTORE SWAP2 PUSH1 0x20 ADD SWAP2 PUSH2 0x50C JUMP JUMPDEST DUP3 ADD SWAP2 SWAP1 PUSH1 0x0 MSTORE PUSH1 0x20 PUSH1 0x0 KECCAK256 SWAP1 JUMPDEST DUP2 SLOAD DUP2 MSTORE SWAP1 PUSH1 0x1 ADD SWAP1 PUSH1 0x20 ADD DUP1 DUP4 GT PUSH2 0x4EF JUMPI DUP3 SWAP1 SUB PUSH1 0x1F AND DUP3 ADD SWAP2 JUMPDEST POP POP POP POP POP SWAP1 POP DUP3 JUMP JUMPDEST PUSH1 0x0 PUSH1 0x3 DUP3 DUP2 SLOAD DUP2 LT PUSH2 0x52C JUMPI PUSH2 0x52B PUSH2 0xB1A JUMP JUMPDEST JUMPDEST SWAP1 PUSH1 0x0 MSTORE PUSH1 0x20 PUSH1 0x0 KECCAK256 ADD PUSH1 0x0 SWAP1 SLOAD SWAP1 PUSH2 0x100 EXP SWAP1 DIV PUSH20 0xFFFFFFFFFFFFFFFFFFFFFFFFFFFFFFFFFFFFFFFF AND PUSH20 0xFFFFFFFFFFFFFFFFFFFFFFFFFFFFFFFFFFFFFFFF AND PUSH4 0x2E64CEC1 PUSH1 0x40 MLOAD DUP2 PUSH4 0xFFFFFFFF AND PUSH1 0xE0 SHL DUP2 MSTORE PUSH1 0x4 ADD PUSH1 0x20 PUSH1 0x40 MLOAD DUP1 DUP4 SUB DUP2 DUP7 DUP1 EXTCODESIZE ISZERO DUP1 ISZERO PUSH2 0x59C JUMPI PUSH1 0x0 DUP1 REVERT JUMPDEST POP GAS STATICCALL ISZERO DUP1 ISZERO PUSH2 0x5B0 JUMPI RETURNDATASIZE PUSH1 0x0 DUP1 RETURNDATACOPY RETURNDATASIZE PUSH1 0x0 REVERT JUMPDEST POP POP POP POP PUSH1 0x40 MLOAD RETURNDATASIZE PUSH1 0x1F NOT PUSH1 0x1F DUP3 ADD AND DUP3 ADD DUP1 PUSH1 0x40 MSTORE POP DUP2 ADD SWAP1 PUSH2 0x5D4 SWAP2 SWAP1 PUSH2 0x7F7 JUMP JUMPDEST SWAP1 POP SWAP2 SWAP1 POP JUMP JUMPDEST PUSH2 0x7C5 DUP1 PUSH2 0xBB5 DUP4 CODECOPY ADD SWAP1 JUMP JUMPDEST DUP3 DUP1 SLOAD PUSH2 0x5F4 SWAP1 PUSH2 0xA88 JUMP JUMPDEST SWAP1 PUSH1 0x0 MSTORE PUSH1 0x20 PUSH1 0x0 KECCAK256 SWAP1 PUSH1 0x1F ADD PUSH1 0x20 SWAP1 DIV DUP2 ADD SWAP3 DUP3 PUSH2 0x616 JUMPI PUSH1 0x0 DUP6 SSTORE PUSH2 0x65D JUMP JUMPDEST DUP3 PUSH1 0x1F LT PUSH2 0x62F JUMPI DUP1 MLOAD PUSH1 0xFF NOT AND DUP4 DUP1 ADD OR DUP6 SSTORE PUSH2 0x65D JUMP JUMPDEST DUP3 DUP1 ADD PUSH1 0x1 ADD DUP6 SSTORE DUP3 ISZERO PUSH2 0x65D JUMPI SWAP2 DUP3 ADD JUMPDEST DUP3 DUP2 GT ISZERO PUSH2 0x65C JUMPI DUP3 MLOAD DUP3 SSTORE SWAP2 PUSH1 0x20 ADD SWAP2 SWAP1 PUSH1 0x1 ADD SWAP1 PUSH2 0x641 JUMP JUMPDEST JUMPDEST POP SWAP1 POP PUSH2 0x66A SWAP2 SWAP1 PUSH2 0x66E JUMP JUMPDEST POP SWAP1 JUMP JUMPDEST JUMPDEST DUP1 DUP3 GT ISZERO PUSH2 0x687 JUMPI PUSH1 0x0 DUP2 PUSH1 0x0 SWAP1 SSTORE POP PUSH1 0x1 ADD PUSH2 0x66F JUMP JUMPDEST POP SWAP1 JUMP JUMPDEST PUSH1 0x0 PUSH2 0x69E PUSH2 0x699 DUP5 PUSH2 0x98E JUMP JUMPDEST PUSH2 0x969 JUMP JUMPDEST SWAP1 POP DUP3 DUP2 MSTORE PUSH1 0x20 DUP2 ADD DUP5 DUP5 DUP5 ADD GT ISZERO PUSH2 0x6BA JUMPI PUSH2 0x6B9 PUSH2 0xB7D JUMP JUMPDEST JUMPDEST PUSH2 0x6C5 DUP5 DUP3 DUP6 PUSH2 0xA46 JUMP JUMPDEST POP SWAP4 SWAP3 POP POP POP JUMP JUMPDEST PUSH1 0x0 DUP3 PUSH1 0x1F DUP4 ADD SLT PUSH2 0x6E2 JUMPI PUSH2 0x6E1 PUSH2 0xB78 JUMP JUMPDEST JUMPDEST DUP2 CALLDATALOAD PUSH2 0x6F2 DUP5 DUP3 PUSH1 0x20 DUP7 ADD PUSH2 0x68B JUMP JUMPDEST SWAP2 POP POP SWAP3 SWAP2 POP POP JUMP JUMPDEST PUSH1 0x0 DUP2 CALLDATALOAD SWAP1 POP PUSH2 0x70A DUP2 PUSH2 0xB9D JUMP JUMPDEST SWAP3 SWAP2 POP POP JUMP JUMPDEST PUSH1 0x0 DUP2 MLOAD SWAP1 POP PUSH2 0x71F DUP2 PUSH2 0xB9D JUMP JUMPDEST SWAP3 SWAP2 POP POP JUMP JUMPDEST PUSH1 0x0 PUSH1 0x20 DUP3 DUP5 SUB SLT ISZERO PUSH2 0x73B JUMPI PUSH2 0x73A PUSH2 0xB87 JUMP JUMPDEST JUMPDEST PUSH1 0x0 DUP3 ADD CALLDATALOAD PUSH8 0xFFFFFFFFFFFFFFFF DUP2 GT ISZERO PUSH2 0x759 JUMPI PUSH2 0x758 PUSH2 0xB82 JUMP JUMPDEST JUMPDEST PUSH2 0x765 DUP5 DUP3 DUP6 ADD PUSH2 0x6CD JUMP JUMPDEST SWAP2 POP POP SWAP3 SWAP2 POP POP JUMP JUMPDEST PUSH1 0x0 DUP1 PUSH1 0x40 DUP4 DUP6 SUB SLT ISZERO PUSH2 0x785 JUMPI PUSH2 0x784 PUSH2 0xB87 JUMP JUMPDEST JUMPDEST PUSH1 0x0 DUP4 ADD CALLDATALOAD PUSH8 0xFFFFFFFFFFFFFFFF DUP2 GT ISZERO PUSH2 0x7A3 JUMPI PUSH2 0x7A2 PUSH2 0xB82 JUMP JUMPDEST JUMPDEST PUSH2 0x7AF DUP6 DUP3 DUP7 ADD PUSH2 0x6CD JUMP JUMPDEST SWAP3 POP POP PUSH1 0x20 PUSH2 0x7C0 DUP6 DUP3 DUP7 ADD PUSH2 0x6FB JUMP JUMPDEST SWAP2 POP POP SWAP3 POP SWAP3 SWAP1 POP JUMP JUMPDEST PUSH1 0x0 PUSH1 0x20 DUP3 DUP5 SUB SLT ISZERO PUSH2 0x7E0 JUMPI PUSH2 0x7DF PUSH2 0xB87 JUMP JUMPDEST JUMPDEST PUSH1 0x0 PUSH2 0x7EE DUP5 DUP3 DUP6 ADD PUSH2 0x6FB JUMP JUMPDEST SWAP2 POP POP SWAP3 SWAP2 POP POP JUMP JUMPDEST PUSH1 0x0 PUSH1 0x20 DUP3 DUP5 SUB SLT ISZERO PUSH2 0x80D JUMPI PUSH2 0x80C PUSH2 0xB87 JUMP JUMPDEST JUMPDEST PUSH1 0x0 PUSH2 0x81B DUP5 DUP3 DUP6 ADD PUSH2 0x710 JUMP JUMPDEST SWAP2 POP POP SWAP3 SWAP2 POP POP JUMP JUMPDEST PUSH1 0x0 DUP1 PUSH1 0x40 DUP4 DUP6 SUB SLT ISZERO PUSH2 0x83B JUMPI PUSH2 0x83A PUSH2 0xB87 JUMP JUMPDEST JUMPDEST PUSH1 0x0 PUSH2 0x849 DUP6 DUP3 DUP7 ADD PUSH2 0x6FB JUMP JUMPDEST SWAP3 POP POP PUSH1 0x20 PUSH2 0x85A DUP6 DUP3 DUP7 ADD PUSH2 0x6FB JUMP JUMPDEST SWAP2 POP POP SWAP3 POP SWAP3 SWAP1 POP JUMP JUMPDEST PUSH2 0x86D DUP2 PUSH2 0xA10 JUMP JUMPDEST DUP3 MSTORE POP POP JUMP JUMPDEST PUSH1 0x0 PUSH2 0x87E DUP3 PUSH2 0x9BF JUMP JUMPDEST PUSH2 0x888 DUP2 DUP6 PUSH2 0x9CA JUMP JUMPDEST SWAP4 POP PUSH2 0x898 DUP2 DUP6 PUSH1 0x20 DUP7 ADD PUSH2 0xA55 JUMP JUMPDEST PUSH2 0x8A1 DUP2 PUSH2 0xB8C JUMP JUMPDEST DUP5 ADD SWAP2 POP POP SWAP3 SWAP2 POP POP JUMP JUMPDEST PUSH1 0x0 PUSH2 0x8B7 DUP3 PUSH2 0x9BF JUMP JUMPDEST PUSH2 0x8C1 DUP2 DUP6 PUSH2 0x9DB JUMP JUMPDEST SWAP4 POP PUSH2 0x8D1 DUP2 DUP6 PUSH1 0x20 DUP7 ADD PUSH2 0xA55 JUMP JUMPDEST DUP1 DUP5 ADD SWAP2 POP POP SWAP3 SWAP2 POP POP JUMP JUMPDEST PUSH2 0x8E6 DUP2 PUSH2 0xA06 JUMP JUMPDEST DUP3 MSTORE POP POP JUMP JUMPDEST PUSH1 0x0 PUSH2 0x8F8 DUP3 DUP5 PUSH2 0x8AC JUMP JUMPDEST SWAP2 POP DUP2 SWAP1 POP SWAP3 SWAP2 POP POP JUMP JUMPDEST PUSH1 0x0 PUSH1 0x20 DUP3 ADD SWAP1 POP PUSH2 0x918 PUSH1 0x0 DUP4 ADD DUP5 PUSH2 0x864 JUMP JUMPDEST SWAP3 SWAP2 POP POP JUMP JUMPDEST PUSH1 0x0 PUSH1 0x20 DUP3 ADD SWAP1 POP PUSH2 0x933 PUSH1 0x0 DUP4 ADD DUP5 PUSH2 0x8DD JUMP JUMPDEST SWAP3 SWAP2 POP POP JUMP JUMPDEST PUSH1 0x0 PUSH1 0x40 DUP3 ADD SWAP1 POP PUSH2 0x94E PUSH1 0x0 DUP4 ADD DUP6 PUSH2 0x8DD JUMP JUMPDEST DUP2 DUP2 SUB PUSH1 0x20 DUP4 ADD MSTORE PUSH2 0x960 DUP2 DUP5 PUSH2 0x873 JUMP JUMPDEST SWAP1 POP SWAP4 SWAP3 POP POP POP JUMP JUMPDEST PUSH1 0x0 PUSH2 0x973 PUSH2 0x984 JUMP JUMPDEST SWAP1 POP PUSH2 0x97F DUP3 DUP3 PUSH2 0xABA JUMP JUMPDEST SWAP2 SWAP1 POP JUMP JUMPDEST PUSH1 0x0 PUSH1 0x40 MLOAD SWAP1 POP SWAP1 JUMP JUMPDEST PUSH1 0x0 PUSH8 0xFFFFFFFFFFFFFFFF DUP3 GT ISZERO PUSH2 0x9A9 JUMPI PUSH2 0x9A8 PUSH2 0xB49 JUMP JUMPDEST JUMPDEST PUSH2 0x9B2 DUP3 PUSH2 0xB8C JUMP JUMPDEST SWAP1 POP PUSH1 0x20 DUP2 ADD SWAP1 POP SWAP2 SWAP1 POP JUMP JUMPDEST PUSH1 0x0 DUP2 MLOAD SWAP1 POP SWAP2 SWAP1 POP JUMP JUMPDEST PUSH1 0x0 DUP3 DUP3 MSTORE PUSH1 0x20 DUP3 ADD SWAP1 POP SWAP3 SWAP2 POP POP JUMP JUMPDEST PUSH1 0x0 DUP2 SWAP1 POP SWAP3 SWAP2 POP POP JUMP JUMPDEST PUSH1 0x0 PUSH20 0xFFFFFFFFFFFFFFFFFFFFFFFFFFFFFFFFFFFFFFFF DUP3 AND SWAP1 POP SWAP2 SWAP1 POP JUMP JUMPDEST PUSH1 0x0 DUP2 SWAP1 POP SWAP2 SWAP1 POP JUMP JUMPDEST PUSH1 0x0 PUSH2 0xA1B DUP3 PUSH2 0xA22 JUMP JUMPDEST SWAP1 POP SWAP2 SWAP1 POP JUMP JUMPDEST PUSH1 0x0 PUSH2 0xA2D DUP3 PUSH2 0xA34 JUMP JUMPDEST SWAP1 POP SWAP2 SWAP1 POP JUMP JUMPDEST PUSH1 0x0 PUSH2 0xA3F DUP3 PUSH2 0x9E6 JUMP JUMPDEST SWAP1 POP SWAP2 SWAP1 POP JUMP JUMPDEST DUP3 DUP2 DUP4 CALLDATACOPY PUSH1 0x0 DUP4 DUP4 ADD MSTORE POP POP POP JUMP JUMPDEST PUSH1 0x0 JUMPDEST DUP4 DUP2 LT ISZERO PUSH2 0xA73 JUMPI DUP1 DUP3 ADD MLOAD DUP2 DUP5 ADD MSTORE PUSH1 0x20 DUP2 ADD SWAP1 POP PUSH2 0xA58 JUMP JUMPDEST DUP4 DUP2 GT ISZERO PUSH2 0xA82 JUMPI PUSH1 0x0 DUP5 DUP5 ADD MSTORE JUMPDEST POP POP POP POP JUMP JUMPDEST PUSH1 0x0 PUSH1 0x2 DUP3 DIV SWAP1 POP PUSH1 0x1 DUP3 AND DUP1 PUSH2 0xAA0 JUMPI PUSH1 0x7F DUP3 AND SWAP2 POP JUMPDEST PUSH1 0x20 DUP3 LT DUP2 EQ ISZERO PUSH2 0xAB4 JUMPI PUSH2 0xAB3 PUSH2 0xAEB JUMP JUMPDEST JUMPDEST POP SWAP2 SWAP1 POP JUMP JUMPDEST PUSH2 0xAC3 DUP3 PUSH2 0xB8C JUMP JUMPDEST DUP2 ADD DUP2 DUP2 LT PUSH8 0xFFFFFFFFFFFFFFFF DUP3 GT OR ISZERO PUSH2 0xAE2 JUMPI PUSH2 0xAE1 PUSH2 0xB49 JUMP JUMPDEST JUMPDEST DUP1 PUSH1 0x40 MSTORE POP POP POP JUMP JUMPDEST PUSH32 0x4E487B7100000000000000000000000000000000000000000000000000000000 PUSH1 0x0 MSTORE PUSH1 0x22 PUSH1 0x4 MSTORE PUSH1 0x24 PUSH1 0x0 REVERT JUMPDEST PUSH32 0x4E487B7100000000000000000000000000000000000000000000000000000000 PUSH1 0x0 MSTORE PUSH1 0x32 PUSH1 0x4 MSTORE PUSH1 0x24 PUSH1 0x0 REVERT JUMPDEST PUSH32 0x4E487B7100000000000000000000000000000000000000000000000000000000 PUSH1 0x0 MSTORE PUSH1 0x41 PUSH1 0x4 MSTORE PUSH1 0x24 PUSH1 0x0 REVERT JUMPDEST PUSH1 0x0 DUP1 REVERT JUMPDEST PUSH1 0x0 DUP1 REVERT JUMPDEST PUSH1 0x0 DUP1 REVERT JUMPDEST PUSH1 0x0 DUP1 REVERT JUMPDEST PUSH1 0x0 PUSH1 0x1F NOT PUSH1 0x1F DUP4 ADD AND SWAP1 POP SWAP2 SWAP1 POP JUMP JUMPDEST PUSH2 0xBA6 DUP2 PUSH2 0xA06 JUMP JUMPDEST DUP2 EQ PUSH2 0xBB1 JUMPI PUSH1 0x0 DUP1 REVERT JUMPDEST POP JUMP INVALID PUSH1 0x80 PUSH1 0x40 MSTORE PUSH1 0x5 PUSH1 0x0 SSTORE CALLVALUE DUP1 ISZERO PUSH2 0x15 JUMPI PUSH1 0x0 DUP1 REVERT JUMPDEST POP PUSH2 0x7A0 DUP1 PUSH2 0x25 PUSH1 0x0 CODECOPY PUSH1 0x0 RETURN INVALID PUSH1 0x80 PUSH1 0x40 MSTORE CALLVALUE DUP1 ISZERO PUSH2 0x10 JUMPI PUSH1 0x0 DUP1 REVERT JUMPDEST POP PUSH1 0x4 CALLDATASIZE LT PUSH2 0x62 JUMPI PUSH1 0x0 CALLDATALOAD PUSH1 0xE0 SHR DUP1 PUSH4 0x2E64CEC1 EQ PUSH2 0x67 JUMPI DUP1 PUSH4 0x471F7CDF EQ PUSH2 0x85 JUMPI DUP1 PUSH4 0x6057361D EQ PUSH2 0xA3 JUMPI DUP1 PUSH4 0x6F760F41 EQ PUSH2 0xBF JUMPI DUP1 PUSH4 0x8BAB8DD5 EQ PUSH2 0xDB JUMPI DUP1 PUSH4 0x9E7A13AD EQ PUSH2 0x10B JUMPI JUMPDEST PUSH1 0x0 DUP1 REVERT JUMPDEST PUSH2 0x6F PUSH2 0x13C JUMP JUMPDEST PUSH1 0x40 MLOAD PUSH2 0x7C SWAP2 SWAP1 PUSH2 0x559 JUMP JUMPDEST PUSH1 0x40 MLOAD DUP1 SWAP2 SUB SWAP1 RETURN JUMPDEST PUSH2 0x8D PUSH2 0x145 JUMP JUMPDEST PUSH1 0x40 MLOAD PUSH2 0x9A SWAP2 SWAP1 PUSH2 0x559 JUMP JUMPDEST PUSH1 0x40 MLOAD DUP1 SWAP2 SUB SWAP1 RETURN JUMPDEST PUSH2 0xBD PUSH1 0x4 DUP1 CALLDATASIZE SUB DUP2 ADD SWAP1 PUSH2 0xB8 SWAP2 SWAP1 PUSH2 0x49C JUMP JUMPDEST PUSH2 0x14B JUMP JUMPDEST STOP JUMPDEST PUSH2 0xD9 PUSH1 0x4 DUP1 CALLDATASIZE SUB DUP2 ADD SWAP1 PUSH2 0xD4 SWAP2 SWAP1 PUSH2 0x440 JUMP JUMPDEST PUSH2 0x155 JUMP JUMPDEST STOP JUMPDEST PUSH2 0xF5 PUSH1 0x4 DUP1 CALLDATASIZE SUB DUP2 ADD SWAP1 PUSH2 0xF0 SWAP2 SWAP1 PUSH2 0x3F7 JUMP JUMPDEST PUSH2 0x1E5 JUMP JUMPDEST PUSH1 0x40 MLOAD PUSH2 0x102 SWAP2 SWAP1 PUSH2 0x559 JUMP JUMPDEST PUSH1 0x40 MLOAD DUP1 SWAP2 SUB SWAP1 RETURN JUMPDEST PUSH2 0x125 PUSH1 0x4 DUP1 CALLDATASIZE SUB DUP2 ADD SWAP1 PUSH2 0x120 SWAP2 SWAP1 PUSH2 0x49C JUMP JUMPDEST PUSH2 0x213 JUMP JUMPDEST PUSH1 0x40 MLOAD PUSH2 0x133 SWAP3 SWAP2 SWAP1 PUSH2 0x574 JUMP JUMPDEST PUSH1 0x40 MLOAD DUP1 SWAP2 SUB SWAP1 RETURN JUMPDEST PUSH1 0x0 DUP1 SLOAD SWAP1 POP SWAP1 JUMP JUMPDEST PUSH1 0x0 SLOAD DUP2 JUMP JUMPDEST DUP1 PUSH1 0x0 DUP2 SWAP1 SSTORE POP POP JUMP JUMPDEST PUSH1 0x1 PUSH1 0x40 MLOAD DUP1 PUSH1 0x40 ADD PUSH1 0x40 MSTORE DUP1 DUP4 DUP2 MSTORE PUSH1 0x20 ADD DUP5 DUP2 MSTORE POP SWAP1 DUP1 PUSH1 0x1 DUP2 SLOAD ADD DUP1 DUP3 SSTORE DUP1 SWAP2 POP POP PUSH1 0x1 SWAP1 SUB SWAP1 PUSH1 0x0 MSTORE PUSH1 0x20 PUSH1 0x0 KECCAK256 SWAP1 PUSH1 0x2 MUL ADD PUSH1 0x0 SWAP1 SWAP2 SWAP1 SWAP2 SWAP1 SWAP2 POP PUSH1 0x0 DUP3 ADD MLOAD DUP2 PUSH1 0x0 ADD SSTORE PUSH1 0x20 DUP3 ADD MLOAD DUP2 PUSH1 0x1 ADD SWAP1 DUP1 MLOAD SWAP1 PUSH1 0x20 ADD SWAP1 PUSH2 0x1BB SWAP3 SWAP2 SWAP1 PUSH2 0x2CF JUMP JUMPDEST POP POP POP DUP1 PUSH1 0x2 DUP4 PUSH1 0x40 MLOAD PUSH2 0x1CF SWAP2 SWAP1 PUSH2 0x542 JUMP JUMPDEST SWAP1 DUP2 MSTORE PUSH1 0x20 ADD PUSH1 0x40 MLOAD DUP1 SWAP2 SUB SWAP1 KECCAK256 DUP2 SWAP1 SSTORE POP POP POP JUMP JUMPDEST PUSH1 0x2 DUP2 DUP1 MLOAD PUSH1 0x20 DUP2 ADD DUP3 ADD DUP1 MLOAD DUP5 DUP3 MSTORE PUSH1 0x20 DUP4 ADD PUSH1 0x20 DUP6 ADD KECCAK256 DUP2 DUP4 MSTORE DUP1 SWAP6 POP POP POP POP POP POP PUSH1 0x0 SWAP2 POP SWAP1 POP SLOAD DUP2 JUMP JUMPDEST PUSH1 0x1 DUP2 DUP2 SLOAD DUP2 LT PUSH2 0x223 JUMPI PUSH1 0x0 DUP1 REVERT JUMPDEST SWAP1 PUSH1 0x0 MSTORE PUSH1 0x20 PUSH1 0x0 KECCAK256 SWAP1 PUSH1 0x2 MUL ADD PUSH1 0x0 SWAP2 POP SWAP1 POP DUP1 PUSH1 0x0 ADD SLOAD SWAP1 DUP1 PUSH1 0x1 ADD DUP1 SLOAD PUSH2 0x24C SWAP1 PUSH2 0x66D JUMP JUMPDEST DUP1 PUSH1 0x1F ADD PUSH1 0x20 DUP1 SWAP2 DIV MUL PUSH1 0x20 ADD PUSH1 0x40 MLOAD SWAP1 DUP2 ADD PUSH1 0x40 MSTORE DUP1 SWAP3 SWAP2 SWAP1 DUP2 DUP2 MSTORE PUSH1 0x20 ADD DUP3 DUP1 SLOAD PUSH2 0x278 SWAP1 PUSH2 0x66D JUMP JUMPDEST DUP1 ISZERO PUSH2 0x2C5 JUMPI DUP1 PUSH1 0x1F LT PUSH2 0x29A JUMPI PUSH2 0x100 DUP1 DUP4 SLOAD DIV MUL DUP4 MSTORE SWAP2 PUSH1 0x20 ADD SWAP2 PUSH2 0x2C5 JUMP JUMPDEST DUP3 ADD SWAP2 SWAP1 PUSH1 0x0 MSTORE PUSH1 0x20 PUSH1 0x0 KECCAK256 SWAP1 JUMPDEST DUP2 SLOAD DUP2 MSTORE SWAP1 PUSH1 0x1 ADD SWAP1 PUSH1 0x20 ADD DUP1 DUP4 GT PUSH2 0x2A8 JUMPI DUP3 SWAP1 SUB PUSH1 0x1F AND DUP3 ADD SWAP2 JUMPDEST POP POP POP POP POP SWAP1 POP DUP3 JUMP JUMPDEST DUP3 DUP1 SLOAD PUSH2 0x2DB SWAP1 PUSH2 0x66D JUMP JUMPDEST SWAP1 PUSH1 0x0 MSTORE PUSH1 0x20 PUSH1 0x0 KECCAK256 SWAP1 PUSH1 0x1F ADD PUSH1 0x20 SWAP1 DIV DUP2 ADD SWAP3 DUP3 PUSH2 0x2FD JUMPI PUSH1 0x0 DUP6 SSTORE PUSH2 0x344 JUMP JUMPDEST DUP3 PUSH1 0x1F LT PUSH2 0x316 JUMPI DUP1 MLOAD PUSH1 0xFF NOT AND DUP4 DUP1 ADD OR DUP6 SSTORE PUSH2 0x344 JUMP JUMPDEST DUP3 DUP1 ADD PUSH1 0x1 ADD DUP6 SSTORE DUP3 ISZERO PUSH2 0x344 JUMPI SWAP2 DUP3 ADD JUMPDEST DUP3 DUP2 GT ISZERO PUSH2 0x343 JUMPI DUP3 MLOAD DUP3 SSTORE SWAP2 PUSH1 0x20 ADD SWAP2 SWAP1 PUSH1 0x1 ADD SWAP1 PUSH2 0x328 JUMP JUMPDEST JUMPDEST POP SWAP1 POP PUSH2 0x351 SWAP2 SWAP1 PUSH2 0x355 JUMP JUMPDEST POP SWAP1 JUMP JUMPDEST JUMPDEST DUP1 DUP3 GT ISZERO PUSH2 0x36E JUMPI PUSH1 0x0 DUP2 PUSH1 0x0 SWAP1 SSTORE POP PUSH1 0x1 ADD PUSH2 0x356 JUMP JUMPDEST POP SWAP1 JUMP JUMPDEST PUSH1 0x0 PUSH2 0x385 PUSH2 0x380 DUP5 PUSH2 0x5C9 JUMP JUMPDEST PUSH2 0x5A4 JUMP JUMPDEST SWAP1 POP DUP3 DUP2 MSTORE PUSH1 0x20 DUP2 ADD DUP5 DUP5 DUP5 ADD GT ISZERO PUSH2 0x3A1 JUMPI PUSH2 0x3A0 PUSH2 0x733 JUMP JUMPDEST JUMPDEST PUSH2 0x3AC DUP5 DUP3 DUP6 PUSH2 0x62B JUMP JUMPDEST POP SWAP4 SWAP3 POP POP POP JUMP JUMPDEST PUSH1 0x0 DUP3 PUSH1 0x1F DUP4 ADD SLT PUSH2 0x3C9 JUMPI PUSH2 0x3C8 PUSH2 0x72E JUMP JUMPDEST JUMPDEST DUP2 CALLDATALOAD PUSH2 0x3D9 DUP5 DUP3 PUSH1 0x20 DUP7 ADD PUSH2 0x372 JUMP JUMPDEST SWAP2 POP POP SWAP3 SWAP2 POP POP JUMP JUMPDEST PUSH1 0x0 DUP2 CALLDATALOAD SWAP1 POP PUSH2 0x3F1 DUP2 PUSH2 0x753 JUMP JUMPDEST SWAP3 SWAP2 POP POP JUMP JUMPDEST PUSH1 0x0 PUSH1 0x20 DUP3 DUP5 SUB SLT ISZERO PUSH2 0x40D JUMPI PUSH2 0x40C PUSH2 0x73D JUMP JUMPDEST JUMPDEST PUSH1 0x0 DUP3 ADD CALLDATALOAD PUSH8 0xFFFFFFFFFFFFFFFF DUP2 GT ISZERO PUSH2 0x42B JUMPI PUSH2 0x42A PUSH2 0x738 JUMP JUMPDEST JUMPDEST PUSH2 0x437 DUP5 DUP3 DUP6 ADD PUSH2 0x3B4 JUMP JUMPDEST SWAP2 POP POP SWAP3 SWAP2 POP POP JUMP JUMPDEST PUSH1 0x0 DUP1 PUSH1 0x40 DUP4 DUP6 SUB SLT ISZERO PUSH2 0x457 JUMPI PUSH2 0x456 PUSH2 0x73D JUMP JUMPDEST JUMPDEST PUSH1 0x0 DUP4 ADD CALLDATALOAD PUSH8 0xFFFFFFFFFFFFFFFF DUP2 GT ISZERO PUSH2 0x475 JUMPI PUSH2 0x474 PUSH2 0x738 JUMP JUMPDEST JUMPDEST PUSH2 0x481 DUP6 DUP3 DUP7 ADD PUSH2 0x3B4 JUMP JUMPDEST SWAP3 POP POP PUSH1 0x20 PUSH2 0x492 DUP6 DUP3 DUP7 ADD PUSH2 0x3E2 JUMP JUMPDEST SWAP2 POP POP SWAP3 POP SWAP3 SWAP1 POP JUMP JUMPDEST PUSH1 0x0 PUSH1 0x20 DUP3 DUP5 SUB SLT ISZERO PUSH2 0x4B2 JUMPI PUSH2 0x4B1 PUSH2 0x73D JUMP JUMPDEST JUMPDEST PUSH1 0x0 PUSH2 0x4C0 DUP5 DUP3 DUP6 ADD PUSH2 0x3E2 JUMP JUMPDEST SWAP2 POP POP SWAP3 SWAP2 POP POP JUMP JUMPDEST PUSH1 0x0 PUSH2 0x4D4 DUP3 PUSH2 0x5FA JUMP JUMPDEST PUSH2 0x4DE DUP2 DUP6 PUSH2 0x605 JUMP JUMPDEST SWAP4 POP PUSH2 0x4EE DUP2 DUP6 PUSH1 0x20 DUP7 ADD PUSH2 0x63A JUMP JUMPDEST PUSH2 0x4F7 DUP2 PUSH2 0x742 JUMP JUMPDEST DUP5 ADD SWAP2 POP POP SWAP3 SWAP2 POP POP JUMP JUMPDEST PUSH1 0x0 PUSH2 0x50D DUP3 PUSH2 0x5FA JUMP JUMPDEST PUSH2 0x517 DUP2 DUP6 PUSH2 0x616 JUMP JUMPDEST SWAP4 POP PUSH2 0x527 DUP2 DUP6 PUSH1 0x20 DUP7 ADD PUSH2 0x63A JUMP JUMPDEST DUP1 DUP5 ADD SWAP2 POP POP SWAP3 SWAP2 POP POP JUMP JUMPDEST PUSH2 0x53C DUP2 PUSH2 0x621 JUMP JUMPDEST DUP3 MSTORE POP POP JUMP JUMPDEST PUSH1 0x0 PUSH2 0x54E DUP3 DUP5 PUSH2 0x502 JUMP JUMPDEST SWAP2 POP DUP2 SWAP1 POP SWAP3 SWAP2 POP POP JUMP JUMPDEST PUSH1 0x0 PUSH1 0x20 DUP3 ADD SWAP1 POP PUSH2 0x56E PUSH1 0x0 DUP4 ADD DUP5 PUSH2 0x533 JUMP JUMPDEST SWAP3 SWAP2 POP POP JUMP JUMPDEST PUSH1 0x0 PUSH1 0x40 DUP3 ADD SWAP1 POP PUSH2 0x589 PUSH1 0x0 DUP4 ADD DUP6 PUSH2 0x533 JUMP JUMPDEST DUP2 DUP2 SUB PUSH1 0x20 DUP4 ADD MSTORE PUSH2 0x59B DUP2 DUP5 PUSH2 0x4C9 JUMP JUMPDEST SWAP1 POP SWAP4 SWAP3 POP POP POP JUMP JUMPDEST PUSH1 0x0 PUSH2 0x5AE PUSH2 0x5BF JUMP JUMPDEST SWAP1 POP PUSH2 0x5BA DUP3 DUP3 PUSH2 0x69F JUMP JUMPDEST SWAP2 SWAP1 POP JUMP JUMPDEST PUSH1 0x0 PUSH1 0x40 MLOAD SWAP1 POP SWAP1 JUMP JUMPDEST PUSH1 0x0 PUSH8 0xFFFFFFFFFFFFFFFF DUP3 GT ISZERO PUSH2 0x5E4 JUMPI PUSH2 0x5E3 PUSH2 0x6FF JUMP JUMPDEST JUMPDEST PUSH2 0x5ED DUP3 PUSH2 0x742 JUMP JUMPDEST SWAP1 POP PUSH1 0x20 DUP2 ADD SWAP1 POP SWAP2 SWAP1 POP JUMP JUMPDEST PUSH1 0x0 DUP2 MLOAD SWAP1 POP SWAP2 SWAP1 POP JUMP JUMPDEST PUSH1 0x0 DUP3 DUP3 MSTORE PUSH1 0x20 DUP3 ADD SWAP1 POP SWAP3 SWAP2 POP POP JUMP JUMPDEST PUSH1 0x0 DUP2 SWAP1 POP SWAP3 SWAP2 POP POP JUMP JUMPDEST PUSH1 0x0 DUP2 SWAP1 POP SWAP2 SWAP1 POP JUMP JUMPDEST DUP3 DUP2 DUP4 CALLDATACOPY PUSH1 0x0 DUP4 DUP4 ADD MSTORE POP POP POP JUMP JUMPDEST PUSH1 0x0 JUMPDEST DUP4 DUP2 LT ISZERO PUSH2 0x658 JUMPI DUP1 DUP3 ADD MLOAD DUP2 DUP5 ADD MSTORE PUSH1 0x20 DUP2 ADD SWAP1 POP PUSH2 0x63D JUMP JUMPDEST DUP4 DUP2 GT ISZERO PUSH2 0x667 JUMPI PUSH1 0x0 DUP5 DUP5 ADD MSTORE JUMPDEST POP POP POP POP JUMP JUMPDEST PUSH1 0x0 PUSH1 0x2 DUP3 DIV SWAP1 POP PUSH1 0x1 DUP3 AND DUP1 PUSH2 0x685 JUMPI PUSH1 0x7F DUP3 AND SWAP2 POP JUMPDEST PUSH1 0x20 DUP3 LT DUP2 EQ ISZERO PUSH2 0x699 JUMPI PUSH2 0x698 PUSH2 0x6D0 JUMP JUMPDEST JUMPDEST POP SWAP2 SWAP1 POP JUMP JUMPDEST PUSH2 0x6A8 DUP3 PUSH2 0x742 JUMP JUMPDEST DUP2 ADD DUP2 DUP2 LT PUSH8 0xFFFFFFFFFFFFFFFF DUP3 GT OR ISZERO PUSH2 0x6C7 JUMPI PUSH2 0x6C6 PUSH2 0x6FF JUMP JUMPDEST JUMPDEST DUP1 PUSH1 0x40 MSTORE POP POP POP JUMP JUMPDEST PUSH32 0x4E487B7100000000000000000000000000000000000000000000000000000000 PUSH1 0x0 MSTORE PUSH1 0x22 PUSH1 0x4 MSTORE PUSH1 0x24 PUSH1 0x0 REVERT JUMPDEST PUSH32 0x4E487B7100000000000000000000000000000000000000000000000000000000 PUSH1 0x0 MSTORE PUSH1 0x41 PUSH1 0x4 MSTORE PUSH1 0x24 PUSH1 0x0 REVERT JUMPDEST PUSH1 0x0 DUP1 REVERT JUMPDEST PUSH1 0x0 DUP1 REVERT JUMPDEST PUSH1 0x0 DUP1 REVERT JUMPDEST PUSH1 0x0 DUP1 REVERT JUMPDEST PUSH1 0x0 PUSH1 0x1F NOT PUSH1 0x1F DUP4 ADD AND SWAP1 POP SWAP2 SWAP1 POP JUMP JUMPDEST PUSH2 0x75C DUP2 PUSH2 0x621 JUMP JUMPDEST DUP2 EQ PUSH2 0x767 JUMPI PUSH1 0x0 DUP1 REVERT JUMPDEST POP JUMP INVALID LOG2 PUSH5 0x6970667358 0x22 SLT KECCAK256 0xDD 0xC6 CALL 0xC3 0xB3 EXP DUP12 0x23 0xC0 CODESIZE 0x4E 0xA6 0x2F 0xD1 0xAD SWAP3 0x2C LOG3 CALLER 0xD7 0xCB SWAP12 SUB 0xD5 SWAP11 BLOCKHASH JUMP 0xE3 SAR 0x5D 0xE6 0xC9 PUSH5 0x736F6C6343 STOP ADDMOD SMOD STOP CALLER LOG2 PUSH5 0x6970667358 0x22 SLT KECCAK256 LOG2 0xAB EXTCODESIZE ISZERO 0xE7 EXTCODESIZE CALLER 0xDB 0xBB CALLDATALOAD 0xB7 POP DUP10 TIMESTAMP GASLIMIT DUP16 GASPRICE 0xD8 ADDMOD 0xD3 CALLDATACOPY SWAP10 CALLVALUE PUSH26 0x4FE33CDBE1C8DCE064736F6C6343000807003300000000000000 "
				},
				"gasEstimates": {
					"creation": {
						"codeDepositCost": "1007800",
						"executionCost": "23153",
						"totalCost": "1030953"
					},
					"external": {
						"addPerson(string,uint256)": "infinite",
						"createSimpleStorageContract()": "infinite",
						"favoriteNumber()": "2496",
						"nameToFavoriteNumber(string)": "infinite",
						"people(uint256)": "infinite",
						"retrieve()": "2482",
						"sfGet(uint256)": "infinite",
						"sfStore(uint256,uint256)": "infinite",
						"simpleStorageArray(uint256)": "5042",
						"store(uint256)": "22609"
					}
				},
				"methodIdentifiers": {
					"addPerson(string,uint256)": "6f760f41",
					"createSimpleStorageContract()": "1dda6541",
					"favoriteNumber()": "471f7cdf",
					"nameToFavoriteNumber(string)": "8bab8dd5",
					"people(uint256)": "9e7a13ad",
					"retrieve()": "2e64cec1",
					"sfGet(uint256)": "c5f19c20",
					"sfStore(uint256,uint256)": "1563700f",
					"simpleStorageArray(uint256)": "64591bf1",
					"store(uint256)": "6057361d"
				}
			},
			"storageLayout": {
				"storage": [
					{
						"astId": 4,
						"contract": "storageFactory.sol:StorageFactory",
						"label": "favoriteNumber",
						"offset": 0,
						"slot": "0",
						"type": "t_uint256"
					},
					{
						"astId": 13,
						"contract": "storageFactory.sol:StorageFactory",
						"label": "people",
						"offset": 0,
						"slot": "1",
						"type": "t_array(t_struct(People)9_storage)dyn_storage"
					},
					{
						"astId": 17,
						"contract": "storageFactory.sol:StorageFactory",
						"label": "nameToFavoriteNumber",
						"offset": 0,
						"slot": "2",
						"type": "t_mapping(t_string_memory_ptr,t_uint256)"
					},
					{
						"astId": 68,
						"contract": "storageFactory.sol:StorageFactory",
						"label": "simpleStorageArray",
						"offset": 0,
						"slot": "3",
						"type": "t_array(t_contract(SimpleStorage)59)dyn_storage"
					}
				],
				"types": {
					"t_array(t_contract(SimpleStorage)59)dyn_storage": {
						"base": "t_contract(SimpleStorage)59",
						"encoding": "dynamic_array",
						"label": "contract SimpleStorage[]",
						"numberOfBytes": "32"
					},
					"t_array(t_struct(People)9_storage)dyn_storage": {
						"base": "t_struct(People)9_storage",
						"encoding": "dynamic_array",
						"label": "struct SimpleStorage.People[]",
						"numberOfBytes": "32"
					},
					"t_contract(SimpleStorage)59": {
						"encoding": "inplace",
						"label": "contract SimpleStorage",
						"numberOfBytes": "20"
					},
					"t_mapping(t_string_memory_ptr,t_uint256)": {
						"encoding": "mapping",
						"key": "t_string_memory_ptr",
						"label": "mapping(string => uint256)",
						"numberOfBytes": "32",
						"value": "t_uint256"
					},
					"t_string_memory_ptr": {
						"encoding": "bytes",
						"label": "string",
						"numberOfBytes": "32"
					},
					"t_string_storage": {
						"encoding": "bytes",
						"label": "string",
						"numberOfBytes": "32"
					},
					"t_struct(People)9_storage": {
						"encoding": "inplace",
						"label": "struct SimpleStorage.People",
						"members": [
							{
								"astId": 6,
								"contract": "storageFactory.sol:StorageFactory",
								"label": "favoriteNumber",
								"offset": 0,
								"slot": "0",
								"type": "t_uint256"
							},
							{
								"astId": 8,
								"contract": "storageFactory.sol:StorageFactory",
								"label": "name",
								"offset": 0,
								"slot": "1",
								"type": "t_string_storage"
							}
						],
						"numberOfBytes": "64"
					},
					"t_uint256": {
						"encoding": "inplace",
						"label": "uint256",
						"numberOfBytes": "32"
					}
				}
			},
			"userdoc": {
				"kind": "user",
				"methods": {},
				"version": 1
			}
		}
	}
}