{
	"SimpleStorage.sol": {
		"SimpleStorage": {
			"abi": [
				{
					"inputs": [
						{
							"internalType": "string",
							"name": "_name",
							"type": "string"
						},
						{
							"internalType": "uint256",
							"name": "_favoriteNumber",
							"type": "uint256"
						}
					],
					"name": "addPerson",
					"outputs": [],
					"stateMutability": "nonpayable",
					"type": "function"
				},
				{
					"inputs": [],
					"name": "favoriteNumber",
					"outputs": [
						{
							"internalType": "uint256",
							"name": "",
							"type": "uint256"
						}
					],
					"stateMutability": "view",
					"type": "function"
				},
				{
					"inputs": [
						{
							"internalType": "string",
							"name": "",
							"type": "string"
						}
					],
					"name": "nameToFavoriteNumber",
					"outputs": [
						{
							"internalType": "uint256",
							"name": "",
							"type": "uint256"
						}
					],
					"stateMutability": "view",
					"type": "function"
				},
				{
					"inputs": [
						{
							"internalType": "uint256",
							"name": "",
							"type": "uint256"
						}
					],
					"name": "people",
					"outputs": [
						{
							"internalType": "uint256",
							"name": "favoriteNumber",
							"type": "uint256"
						},
						{
							"internalType": "string",
							"name": "name",
							"type": "string"
						}
					],
					"stateMutability": "view",
					"type": "function"
				},
				{
					"inputs": [],
					"name": "retrieve",
					"outputs": [
						{
							"internalType": "uint256",
							"name": "",
							"type": "uint256"
						}
					],
					"stateMutability": "view",
					"type": "function"
				},
				{
					"inputs": [
						{
							"internalType": "uint256",
							"name": "_favoriteNumber",
							"type": "uint256"
						}
					],
					"name": "store",
					"outputs": [],
					"stateMutability": "nonpayable",
					"type": "function"
				}
			],
			"devdoc": {
				"kind": "dev",
				"methods": {},
				"version": 1
			},
			"evm": {
				"assembly": "    /* \"SimpleStorage.sol\":66:761  contract SimpleStorage {\r... */\n  mstore(0x40, 0x80)\n    /* \"SimpleStorage.sol\":172:173  5 */\n  0x05\n    /* \"SimpleStorage.sol\":140:173  uint256 public favoriteNumber = 5 */\n  0x00\n  sstore\n    /* \"SimpleStorage.sol\":66:761  contract SimpleStorage {\r... */\n  callvalue\n  dup1\n  iszero\n  tag_1\n  jumpi\n  0x00\n  dup1\n  revert\ntag_1:\n  pop\n  dataSize(sub_0)\n  dup1\n  dataOffset(sub_0)\n  0x00\n  codecopy\n  0x00\n  return\nstop\n\nsub_0: assembly {\n        /* \"SimpleStorage.sol\":66:761  contract SimpleStorage {\r... */\n      mstore(0x40, 0x80)\n      callvalue\n      dup1\n      iszero\n      tag_1\n      jumpi\n      0x00\n      dup1\n      revert\n    tag_1:\n      pop\n      jumpi(tag_2, lt(calldatasize, 0x04))\n      shr(0xe0, calldataload(0x00))\n      dup1\n      0x2e64cec1\n      eq\n      tag_3\n      jumpi\n      dup1\n      0x471f7cdf\n      eq\n      tag_4\n      jumpi\n      dup1\n      0x6057361d\n      eq\n      tag_5\n      jumpi\n      dup1\n      0x6f760f41\n      eq\n      tag_6\n      jumpi\n      dup1\n      0x8bab8dd5\n      eq\n      tag_7\n      jumpi\n      dup1\n      0x9e7a13ad\n      eq\n      tag_8\n      jumpi\n    tag_2:\n      0x00\n      dup1\n      revert\n        /* \"SimpleStorage.sol\":473:563  function retrieve() public view returns(uint256) {\r... */\n    tag_3:\n      tag_9\n      tag_10\n      jump\t// in\n    tag_9:\n      mload(0x40)\n      tag_11\n      swap2\n      swap1\n      tag_12\n      jump\t// in\n    tag_11:\n      mload(0x40)\n      dup1\n      swap2\n      sub\n      swap1\n      return\n        /* \"SimpleStorage.sol\":140:173  uint256 public favoriteNumber = 5 */\n    tag_4:\n      tag_13\n      tag_14\n      jump\t// in\n    tag_13:\n      mload(0x40)\n      tag_15\n      swap2\n      swap1\n      tag_12\n      jump\t// in\n    tag_15:\n      mload(0x40)\n      dup1\n      swap2\n      sub\n      swap1\n      return\n        /* \"SimpleStorage.sol\":368:465  function store(uint256 _favoriteNumber) public{\r... */\n    tag_5:\n      tag_16\n      0x04\n      dup1\n      calldatasize\n      sub\n      dup2\n      add\n      swap1\n      tag_17\n      swap2\n      swap1\n      tag_18\n      jump\t// in\n    tag_17:\n      tag_19\n      jump\t// in\n    tag_16:\n      stop\n        /* \"SimpleStorage.sol\":568:758  function addPerson(string memory _name, uint256 _favoriteNumber) public{\r... */\n    tag_6:\n      tag_20\n      0x04\n      dup1\n      calldatasize\n      sub\n      dup2\n      add\n      swap1\n      tag_21\n      swap2\n      swap1\n      tag_22\n      jump\t// in\n    tag_21:\n      tag_23\n      jump\t// in\n    tag_20:\n      stop\n        /* \"SimpleStorage.sol\":301:355  mapping(string => uint256) public nameToFavoriteNumber */\n    tag_7:\n      tag_24\n      0x04\n      dup1\n      calldatasize\n      sub\n      dup2\n      add\n      swap1\n      tag_25\n      swap2\n      swap1\n      tag_26\n      jump\t// in\n    tag_25:\n      tag_27\n      jump\t// in\n    tag_24:\n      mload(0x40)\n      tag_28\n      swap2\n      swap1\n      tag_12\n      jump\t// in\n    tag_28:\n      mload(0x40)\n      dup1\n      swap2\n      sub\n      swap1\n      return\n        /* \"SimpleStorage.sol\":272:294  People[] public people */\n    tag_8:\n      tag_29\n      0x04\n      dup1\n      calldatasize\n      sub\n      dup2\n      add\n      swap1\n      tag_30\n      swap2\n      swap1\n      tag_18\n      jump\t// in\n    tag_30:\n      tag_31\n      jump\t// in\n    tag_29:\n      mload(0x40)\n      tag_32\n      swap3\n      swap2\n      swap1\n      tag_33\n      jump\t// in\n    tag_32:\n      mload(0x40)\n      dup1\n      swap2\n      sub\n      swap1\n      return\n        /* \"SimpleStorage.sol\":473:563  function retrieve() public view returns(uint256) {\r... */\n    tag_10:\n        /* \"SimpleStorage.sol\":513:520  uint256 */\n      0x00\n        /* \"SimpleStorage.sol\":540:554  favoriteNumber */\n      dup1\n      sload\n        /* \"SimpleStorage.sol\":533:554  return favoriteNumber */\n      swap1\n      pop\n        /* \"SimpleStorage.sol\":473:563  function retrieve() public view returns(uint256) {\r... */\n      swap1\n      jump\t// out\n        /* \"SimpleStorage.sol\":140:173  uint256 public favoriteNumber = 5 */\n    tag_14:\n      sload(0x00)\n      dup2\n      jump\t// out\n        /* \"SimpleStorage.sol\":368:465  function store(uint256 _favoriteNumber) public{\r... */\n    tag_19:\n        /* \"SimpleStorage.sol\":442:457  _favoriteNumber */\n      dup1\n        /* \"SimpleStorage.sol\":425:439  favoriteNumber */\n      0x00\n        /* \"SimpleStorage.sol\":425:457  favoriteNumber = _favoriteNumber */\n      dup2\n      swap1\n      sstore\n      pop\n        /* \"SimpleStorage.sol\":368:465  function store(uint256 _favoriteNumber) public{\r... */\n      pop\n      jump\t// out\n        /* \"SimpleStorage.sol\":568:758  function addPerson(string memory _name, uint256 _favoriteNumber) public{\r... */\n    tag_23:\n        /* \"SimpleStorage.sol\":651:657  people */\n      0x01\n        /* \"SimpleStorage.sol\":663:693  People(_favoriteNumber, _name) */\n      mload(0x40)\n      dup1\n      0x40\n      add\n      0x40\n      mstore\n      dup1\n        /* \"SimpleStorage.sol\":670:685  _favoriteNumber */\n      dup4\n        /* \"SimpleStorage.sol\":663:693  People(_favoriteNumber, _name) */\n      dup2\n      mstore\n      0x20\n      add\n        /* \"SimpleStorage.sol\":687:692  _name */\n      dup5\n        /* \"SimpleStorage.sol\":663:693  People(_favoriteNumber, _name) */\n      dup2\n      mstore\n      pop\n        /* \"SimpleStorage.sol\":651:694  people.push(People(_favoriteNumber, _name)) */\n      swap1\n      dup1\n      0x01\n      dup2\n      sload\n      add\n      dup1\n      dup3\n      sstore\n      dup1\n      swap2\n      pop\n      pop\n      0x01\n      swap1\n      sub\n      swap1\n      0x00\n      mstore\n      keccak256(0x00, 0x20)\n      swap1\n      0x02\n      mul\n      add\n      0x00\n      swap1\n      swap2\n      swap1\n      swap2\n      swap1\n      swap2\n      pop\n      0x00\n      dup3\n      add\n      mload\n      dup2\n      0x00\n      add\n      sstore\n      0x20\n      dup3\n      add\n      mload\n      dup2\n      0x01\n      add\n      swap1\n      dup1\n      mload\n      swap1\n      0x20\n      add\n      swap1\n      tag_38\n      swap3\n      swap2\n      swap1\n      tag_39\n      jump\t// in\n    tag_38:\n      pop\n      pop\n      pop\n        /* \"SimpleStorage.sol\":736:751  _favoriteNumber */\n      dup1\n        /* \"SimpleStorage.sol\":706:726  nameToFavoriteNumber */\n      0x02\n        /* \"SimpleStorage.sol\":727:732  _name */\n      dup4\n        /* \"SimpleStorage.sol\":706:733  nameToFavoriteNumber[_name] */\n      mload(0x40)\n      tag_40\n      swap2\n      swap1\n      tag_41\n      jump\t// in\n    tag_40:\n      swap1\n      dup2\n      mstore\n      0x20\n      add\n      mload(0x40)\n      dup1\n      swap2\n      sub\n      swap1\n      keccak256\n        /* \"SimpleStorage.sol\":706:751  nameToFavoriteNumber[_name] = _favoriteNumber */\n      dup2\n      swap1\n      sstore\n      pop\n        /* \"SimpleStorage.sol\":568:758  function addPerson(string memory _name, uint256 _favoriteNumber) public{\r... */\n      pop\n      pop\n      jump\t// out\n        /* \"SimpleStorage.sol\":301:355  mapping(string => uint256) public nameToFavoriteNumber */\n    tag_27:\n      0x02\n      dup2\n      dup1\n      mload\n      0x20\n      dup2\n      add\n      dup3\n      add\n      dup1\n      mload\n      dup5\n      dup3\n      mstore\n      0x20\n      dup4\n      add\n      0x20\n      dup6\n      add\n      keccak256\n      dup2\n      dup4\n      mstore\n      dup1\n      swap6\n      pop\n      pop\n      pop\n      pop\n      pop\n      pop\n      0x00\n      swap2\n      pop\n      swap1\n      pop\n      sload\n      dup2\n      jump\t// out\n        /* \"SimpleStorage.sol\":272:294  People[] public people */\n    tag_31:\n      0x01\n      dup2\n      dup2\n      sload\n      dup2\n      lt\n      tag_42\n      jumpi\n      0x00\n      dup1\n      revert\n    tag_42:\n      swap1\n      0x00\n      mstore\n      keccak256(0x00, 0x20)\n      swap1\n      0x02\n      mul\n      add\n      0x00\n      swap2\n      pop\n      swap1\n      pop\n      dup1\n      0x00\n      add\n      sload\n      swap1\n      dup1\n      0x01\n      add\n      dup1\n      sload\n      tag_44\n      swap1\n      tag_45\n      jump\t// in\n    tag_44:\n      dup1\n      0x1f\n      add\n      0x20\n      dup1\n      swap2\n      div\n      mul\n      0x20\n      add\n      mload(0x40)\n      swap1\n      dup2\n      add\n      0x40\n      mstore\n      dup1\n      swap3\n      swap2\n      swap1\n      dup2\n      dup2\n      mstore\n      0x20\n      add\n      dup3\n      dup1\n      sload\n      tag_46\n      swap1\n      tag_45\n      jump\t// in\n    tag_46:\n      dup1\n      iszero\n      tag_47\n      jumpi\n      dup1\n      0x1f\n      lt\n      tag_48\n      jumpi\n      0x0100\n      dup1\n      dup4\n      sload\n      div\n      mul\n      dup4\n      mstore\n      swap2\n      0x20\n      add\n      swap2\n      jump(tag_47)\n    tag_48:\n      dup3\n      add\n      swap2\n      swap1\n      0x00\n      mstore\n      keccak256(0x00, 0x20)\n      swap1\n    tag_49:\n      dup2\n      sload\n      dup2\n      mstore\n      swap1\n      0x01\n      add\n      swap1\n      0x20\n      add\n      dup1\n      dup4\n      gt\n      tag_49\n      jumpi\n      dup3\n      swap1\n      sub\n      0x1f\n      and\n      dup3\n      add\n      swap2\n    tag_47:\n      pop\n      pop\n      pop\n      pop\n      pop\n      swap1\n      pop\n      dup3\n      jump\t// out\n    tag_39:\n      dup3\n      dup1\n      sload\n      tag_50\n      swap1\n      tag_45\n      jump\t// in\n    tag_50:\n      swap1\n      0x00\n      mstore\n      keccak256(0x00, 0x20)\n      swap1\n      0x1f\n      add\n      0x20\n      swap1\n      div\n      dup2\n      add\n      swap3\n      dup3\n      tag_52\n      jumpi\n      0x00\n      dup6\n      sstore\n      jump(tag_51)\n    tag_52:\n      dup3\n      0x1f\n      lt\n      tag_53\n      jumpi\n      dup1\n      mload\n      not(0xff)\n      and\n      dup4\n      dup1\n      add\n      or\n      dup6\n      sstore\n      jump(tag_51)\n    tag_53:\n      dup3\n      dup1\n      add\n      0x01\n      add\n      dup6\n      sstore\n      dup3\n      iszero\n      tag_51\n      jumpi\n      swap2\n      dup3\n      add\n    tag_54:\n      dup3\n      dup2\n      gt\n      iszero\n      tag_55\n      jumpi\n      dup3\n      mload\n      dup3\n      sstore\n      swap2\n      0x20\n      add\n      swap2\n      swap1\n      0x01\n      add\n      swap1\n      jump(tag_54)\n    tag_55:\n    tag_51:\n      pop\n      swap1\n      pop\n      tag_56\n      swap2\n      swap1\n      tag_57\n      jump\t// in\n    tag_56:\n      pop\n      swap1\n      jump\t// out\n    tag_57:\n    tag_58:\n      dup1\n      dup3\n      gt\n      iszero\n      tag_59\n      jumpi\n      0x00\n      dup2\n      0x00\n      swap1\n      sstore\n      pop\n      0x01\n      add\n      jump(tag_58)\n    tag_59:\n      pop\n      swap1\n      jump\t// out\n        /* \"#utility.yul\":7:419   */\n    tag_61:\n        /* \"#utility.yul\":85:90   */\n      0x00\n        /* \"#utility.yul\":110:176   */\n      tag_63\n        /* \"#utility.yul\":126:175   */\n      tag_64\n        /* \"#utility.yul\":168:174   */\n      dup5\n        /* \"#utility.yul\":126:175   */\n      tag_65\n      jump\t// in\n    tag_64:\n        /* \"#utility.yul\":110:176   */\n      tag_66\n      jump\t// in\n    tag_63:\n        /* \"#utility.yul\":101:176   */\n      swap1\n      pop\n        /* \"#utility.yul\":199:205   */\n      dup3\n        /* \"#utility.yul\":192:197   */\n      dup2\n        /* \"#utility.yul\":185:206   */\n      mstore\n        /* \"#utility.yul\":237:241   */\n      0x20\n        /* \"#utility.yul\":230:235   */\n      dup2\n        /* \"#utility.yul\":226:242   */\n      add\n        /* \"#utility.yul\":275:278   */\n      dup5\n        /* \"#utility.yul\":266:272   */\n      dup5\n        /* \"#utility.yul\":261:264   */\n      dup5\n        /* \"#utility.yul\":257:273   */\n      add\n        /* \"#utility.yul\":254:279   */\n      gt\n        /* \"#utility.yul\":251:363   */\n      iszero\n      tag_67\n      jumpi\n        /* \"#utility.yul\":282:361   */\n      tag_68\n      tag_69\n      jump\t// in\n    tag_68:\n        /* \"#utility.yul\":251:363   */\n    tag_67:\n        /* \"#utility.yul\":372:413   */\n      tag_70\n        /* \"#utility.yul\":406:412   */\n      dup5\n        /* \"#utility.yul\":401:404   */\n      dup3\n        /* \"#utility.yul\":396:399   */\n      dup6\n        /* \"#utility.yul\":372:413   */\n      tag_71\n      jump\t// in\n    tag_70:\n        /* \"#utility.yul\":91:419   */\n      pop\n        /* \"#utility.yul\":7:419   */\n      swap4\n      swap3\n      pop\n      pop\n      pop\n      jump\t// out\n        /* \"#utility.yul\":439:779   */\n    tag_72:\n        /* \"#utility.yul\":495:500   */\n      0x00\n        /* \"#utility.yul\":544:547   */\n      dup3\n        /* \"#utility.yul\":537:541   */\n      0x1f\n        /* \"#utility.yul\":529:535   */\n      dup4\n        /* \"#utility.yul\":525:542   */\n      add\n        /* \"#utility.yul\":521:548   */\n      slt\n        /* \"#utility.yul\":511:633   */\n      tag_74\n      jumpi\n        /* \"#utility.yul\":552:631   */\n      tag_75\n      tag_76\n      jump\t// in\n    tag_75:\n        /* \"#utility.yul\":511:633   */\n    tag_74:\n        /* \"#utility.yul\":669:675   */\n      dup2\n        /* \"#utility.yul\":656:676   */\n      calldataload\n        /* \"#utility.yul\":694:773   */\n      tag_77\n        /* \"#utility.yul\":769:772   */\n      dup5\n        /* \"#utility.yul\":761:767   */\n      dup3\n        /* \"#utility.yul\":754:758   */\n      0x20\n        /* \"#utility.yul\":746:752   */\n      dup7\n        /* \"#utility.yul\":742:759   */\n      add\n        /* \"#utility.yul\":694:773   */\n      tag_61\n      jump\t// in\n    tag_77:\n        /* \"#utility.yul\":685:773   */\n      swap2\n      pop\n        /* \"#utility.yul\":501:779   */\n      pop\n        /* \"#utility.yul\":439:779   */\n      swap3\n      swap2\n      pop\n      pop\n      jump\t// out\n        /* \"#utility.yul\":785:924   */\n    tag_78:\n        /* \"#utility.yul\":831:836   */\n      0x00\n        /* \"#utility.yul\":869:875   */\n      dup2\n        /* \"#utility.yul\":856:876   */\n      calldataload\n        /* \"#utility.yul\":847:876   */\n      swap1\n      pop\n        /* \"#utility.yul\":885:918   */\n      tag_80\n        /* \"#utility.yul\":912:917   */\n      dup2\n        /* \"#utility.yul\":885:918   */\n      tag_81\n      jump\t// in\n    tag_80:\n        /* \"#utility.yul\":785:924   */\n      swap3\n      swap2\n      pop\n      pop\n      jump\t// out\n        /* \"#utility.yul\":930:1439   */\n    tag_26:\n        /* \"#utility.yul\":999:1005   */\n      0x00\n        /* \"#utility.yul\":1048:1050   */\n      0x20\n        /* \"#utility.yul\":1036:1045   */\n      dup3\n        /* \"#utility.yul\":1027:1034   */\n      dup5\n        /* \"#utility.yul\":1023:1046   */\n      sub\n        /* \"#utility.yul\":1019:1051   */\n      slt\n        /* \"#utility.yul\":1016:1135   */\n      iszero\n      tag_83\n      jumpi\n        /* \"#utility.yul\":1054:1133   */\n      tag_84\n      tag_85\n      jump\t// in\n    tag_84:\n        /* \"#utility.yul\":1016:1135   */\n    tag_83:\n        /* \"#utility.yul\":1202:1203   */\n      0x00\n        /* \"#utility.yul\":1191:1200   */\n      dup3\n        /* \"#utility.yul\":1187:1204   */\n      add\n        /* \"#utility.yul\":1174:1205   */\n      calldataload\n        /* \"#utility.yul\":1232:1250   */\n      0xffffffffffffffff\n        /* \"#utility.yul\":1224:1230   */\n      dup2\n        /* \"#utility.yul\":1221:1251   */\n      gt\n        /* \"#utility.yul\":1218:1335   */\n      iszero\n      tag_86\n      jumpi\n        /* \"#utility.yul\":1254:1333   */\n      tag_87\n      tag_88\n      jump\t// in\n    tag_87:\n        /* \"#utility.yul\":1218:1335   */\n    tag_86:\n        /* \"#utility.yul\":1359:1422   */\n      tag_89\n        /* \"#utility.yul\":1414:1421   */\n      dup5\n        /* \"#utility.yul\":1405:1411   */\n      dup3\n        /* \"#utility.yul\":1394:1403   */\n      dup6\n        /* \"#utility.yul\":1390:1412   */\n      add\n        /* \"#utility.yul\":1359:1422   */\n      tag_72\n      jump\t// in\n    tag_89:\n        /* \"#utility.yul\":1349:1422   */\n      swap2\n      pop\n        /* \"#utility.yul\":1145:1432   */\n      pop\n        /* \"#utility.yul\":930:1439   */\n      swap3\n      swap2\n      pop\n      pop\n      jump\t// out\n        /* \"#utility.yul\":1445:2099   */\n    tag_22:\n        /* \"#utility.yul\":1523:1529   */\n      0x00\n        /* \"#utility.yul\":1531:1537   */\n      dup1\n        /* \"#utility.yul\":1580:1582   */\n      0x40\n        /* \"#utility.yul\":1568:1577   */\n      dup4\n        /* \"#utility.yul\":1559:1566   */\n      dup6\n        /* \"#utility.yul\":1555:1578   */\n      sub\n        /* \"#utility.yul\":1551:1583   */\n      slt\n        /* \"#utility.yul\":1548:1667   */\n      iszero\n      tag_91\n      jumpi\n        /* \"#utility.yul\":1586:1665   */\n      tag_92\n      tag_85\n      jump\t// in\n    tag_92:\n        /* \"#utility.yul\":1548:1667   */\n    tag_91:\n        /* \"#utility.yul\":1734:1735   */\n      0x00\n        /* \"#utility.yul\":1723:1732   */\n      dup4\n        /* \"#utility.yul\":1719:1736   */\n      add\n        /* \"#utility.yul\":1706:1737   */\n      calldataload\n        /* \"#utility.yul\":1764:1782   */\n      0xffffffffffffffff\n        /* \"#utility.yul\":1756:1762   */\n      dup2\n        /* \"#utility.yul\":1753:1783   */\n      gt\n        /* \"#utility.yul\":1750:1867   */\n      iszero\n      tag_93\n      jumpi\n        /* \"#utility.yul\":1786:1865   */\n      tag_94\n      tag_88\n      jump\t// in\n    tag_94:\n        /* \"#utility.yul\":1750:1867   */\n    tag_93:\n        /* \"#utility.yul\":1891:1954   */\n      tag_95\n        /* \"#utility.yul\":1946:1953   */\n      dup6\n        /* \"#utility.yul\":1937:1943   */\n      dup3\n        /* \"#utility.yul\":1926:1935   */\n      dup7\n        /* \"#utility.yul\":1922:1944   */\n      add\n        /* \"#utility.yul\":1891:1954   */\n      tag_72\n      jump\t// in\n    tag_95:\n        /* \"#utility.yul\":1881:1954   */\n      swap3\n      pop\n        /* \"#utility.yul\":1677:1964   */\n      pop\n        /* \"#utility.yul\":2003:2005   */\n      0x20\n        /* \"#utility.yul\":2029:2082   */\n      tag_96\n        /* \"#utility.yul\":2074:2081   */\n      dup6\n        /* \"#utility.yul\":2065:2071   */\n      dup3\n        /* \"#utility.yul\":2054:2063   */\n      dup7\n        /* \"#utility.yul\":2050:2072   */\n      add\n        /* \"#utility.yul\":2029:2082   */\n      tag_78\n      jump\t// in\n    tag_96:\n        /* \"#utility.yul\":2019:2082   */\n      swap2\n      pop\n        /* \"#utility.yul\":1974:2092   */\n      pop\n        /* \"#utility.yul\":1445:2099   */\n      swap3\n      pop\n      swap3\n      swap1\n      pop\n      jump\t// out\n        /* \"#utility.yul\":2105:2434   */\n    tag_18:\n        /* \"#utility.yul\":2164:2170   */\n      0x00\n        /* \"#utility.yul\":2213:2215   */\n      0x20\n        /* \"#utility.yul\":2201:2210   */\n      dup3\n        /* \"#utility.yul\":2192:2199   */\n      dup5\n        /* \"#utility.yul\":2188:2211   */\n      sub\n        /* \"#utility.yul\":2184:2216   */\n      slt\n        /* \"#utility.yul\":2181:2300   */\n      iszero\n      tag_98\n      jumpi\n        /* \"#utility.yul\":2219:2298   */\n      tag_99\n      tag_85\n      jump\t// in\n    tag_99:\n        /* \"#utility.yul\":2181:2300   */\n    tag_98:\n        /* \"#utility.yul\":2339:2340   */\n      0x00\n        /* \"#utility.yul\":2364:2417   */\n      tag_100\n        /* \"#utility.yul\":2409:2416   */\n      dup5\n        /* \"#utility.yul\":2400:2406   */\n      dup3\n        /* \"#utility.yul\":2389:2398   */\n      dup6\n        /* \"#utility.yul\":2385:2407   */\n      add\n        /* \"#utility.yul\":2364:2417   */\n      tag_78\n      jump\t// in\n    tag_100:\n        /* \"#utility.yul\":2354:2417   */\n      swap2\n      pop\n        /* \"#utility.yul\":2310:2427   */\n      pop\n        /* \"#utility.yul\":2105:2434   */\n      swap3\n      swap2\n      pop\n      pop\n      jump\t// out\n        /* \"#utility.yul\":2440:2804   */\n    tag_101:\n        /* \"#utility.yul\":2528:2531   */\n      0x00\n        /* \"#utility.yul\":2556:2595   */\n      tag_103\n        /* \"#utility.yul\":2589:2594   */\n      dup3\n        /* \"#utility.yul\":2556:2595   */\n      tag_104\n      jump\t// in\n    tag_103:\n        /* \"#utility.yul\":2611:2682   */\n      tag_105\n        /* \"#utility.yul\":2675:2681   */\n      dup2\n        /* \"#utility.yul\":2670:2673   */\n      dup6\n        /* \"#utility.yul\":2611:2682   */\n      tag_106\n      jump\t// in\n    tag_105:\n        /* \"#utility.yul\":2604:2682   */\n      swap4\n      pop\n        /* \"#utility.yul\":2691:2743   */\n      tag_107\n        /* \"#utility.yul\":2736:2742   */\n      dup2\n        /* \"#utility.yul\":2731:2734   */\n      dup6\n        /* \"#utility.yul\":2724:2728   */\n      0x20\n        /* \"#utility.yul\":2717:2722   */\n      dup7\n        /* \"#utility.yul\":2713:2729   */\n      add\n        /* \"#utility.yul\":2691:2743   */\n      tag_108\n      jump\t// in\n    tag_107:\n        /* \"#utility.yul\":2768:2797   */\n      tag_109\n        /* \"#utility.yul\":2790:2796   */\n      dup2\n        /* \"#utility.yul\":2768:2797   */\n      tag_110\n      jump\t// in\n    tag_109:\n        /* \"#utility.yul\":2763:2766   */\n      dup5\n        /* \"#utility.yul\":2759:2798   */\n      add\n        /* \"#utility.yul\":2752:2798   */\n      swap2\n      pop\n        /* \"#utility.yul\":2532:2804   */\n      pop\n        /* \"#utility.yul\":2440:2804   */\n      swap3\n      swap2\n      pop\n      pop\n      jump\t// out\n        /* \"#utility.yul\":2810:3187   */\n    tag_111:\n        /* \"#utility.yul\":2916:2919   */\n      0x00\n        /* \"#utility.yul\":2944:2983   */\n      tag_113\n        /* \"#utility.yul\":2977:2982   */\n      dup3\n        /* \"#utility.yul\":2944:2983   */\n      tag_104\n      jump\t// in\n    tag_113:\n        /* \"#utility.yul\":2999:3088   */\n      tag_114\n        /* \"#utility.yul\":3081:3087   */\n      dup2\n        /* \"#utility.yul\":3076:3079   */\n      dup6\n        /* \"#utility.yul\":2999:3088   */\n      tag_115\n      jump\t// in\n    tag_114:\n        /* \"#utility.yul\":2992:3088   */\n      swap4\n      pop\n        /* \"#utility.yul\":3097:3149   */\n      tag_116\n        /* \"#utility.yul\":3142:3148   */\n      dup2\n        /* \"#utility.yul\":3137:3140   */\n      dup6\n        /* \"#utility.yul\":3130:3134   */\n      0x20\n        /* \"#utility.yul\":3123:3128   */\n      dup7\n        /* \"#utility.yul\":3119:3135   */\n      add\n        /* \"#utility.yul\":3097:3149   */\n      tag_108\n      jump\t// in\n    tag_116:\n        /* \"#utility.yul\":3174:3180   */\n      dup1\n        /* \"#utility.yul\":3169:3172   */\n      dup5\n        /* \"#utility.yul\":3165:3181   */\n      add\n        /* \"#utility.yul\":3158:3181   */\n      swap2\n      pop\n        /* \"#utility.yul\":2920:3187   */\n      pop\n        /* \"#utility.yul\":2810:3187   */\n      swap3\n      swap2\n      pop\n      pop\n      jump\t// out\n        /* \"#utility.yul\":3193:3311   */\n    tag_117:\n        /* \"#utility.yul\":3280:3304   */\n      tag_119\n        /* \"#utility.yul\":3298:3303   */\n      dup2\n        /* \"#utility.yul\":3280:3304   */\n      tag_120\n      jump\t// in\n    tag_119:\n        /* \"#utility.yul\":3275:3278   */\n      dup3\n        /* \"#utility.yul\":3268:3305   */\n      mstore\n        /* \"#utility.yul\":3193:3311   */\n      pop\n      pop\n      jump\t// out\n        /* \"#utility.yul\":3317:3592   */\n    tag_41:\n        /* \"#utility.yul\":3449:3452   */\n      0x00\n        /* \"#utility.yul\":3471:3566   */\n      tag_122\n        /* \"#utility.yul\":3562:3565   */\n      dup3\n        /* \"#utility.yul\":3553:3559   */\n      dup5\n        /* \"#utility.yul\":3471:3566   */\n      tag_111\n      jump\t// in\n    tag_122:\n        /* \"#utility.yul\":3464:3566   */\n      swap2\n      pop\n        /* \"#utility.yul\":3583:3586   */\n      dup2\n        /* \"#utility.yul\":3576:3586   */\n      swap1\n      pop\n        /* \"#utility.yul\":3317:3592   */\n      swap3\n      swap2\n      pop\n      pop\n      jump\t// out\n        /* \"#utility.yul\":3598:3820   */\n    tag_12:\n        /* \"#utility.yul\":3691:3695   */\n      0x00\n        /* \"#utility.yul\":3729:3731   */\n      0x20\n        /* \"#utility.yul\":3718:3727   */\n      dup3\n        /* \"#utility.yul\":3714:3732   */\n      add\n        /* \"#utility.yul\":3706:3732   */\n      swap1\n      pop\n        /* \"#utility.yul\":3742:3813   */\n      tag_124\n        /* \"#utility.yul\":3810:3811   */\n      0x00\n        /* \"#utility.yul\":3799:3808   */\n      dup4\n        /* \"#utility.yul\":3795:3812   */\n      add\n        /* \"#utility.yul\":3786:3792   */\n      dup5\n        /* \"#utility.yul\":3742:3813   */\n      tag_117\n      jump\t// in\n    tag_124:\n        /* \"#utility.yul\":3598:3820   */\n      swap3\n      swap2\n      pop\n      pop\n      jump\t// out\n        /* \"#utility.yul\":3826:4249   */\n    tag_33:\n        /* \"#utility.yul\":3967:3971   */\n      0x00\n        /* \"#utility.yul\":4005:4007   */\n      0x40\n        /* \"#utility.yul\":3994:4003   */\n      dup3\n        /* \"#utility.yul\":3990:4008   */\n      add\n        /* \"#utility.yul\":3982:4008   */\n      swap1\n      pop\n        /* \"#utility.yul\":4018:4089   */\n      tag_126\n        /* \"#utility.yul\":4086:4087   */\n      0x00\n        /* \"#utility.yul\":4075:4084   */\n      dup4\n        /* \"#utility.yul\":4071:4088   */\n      add\n        /* \"#utility.yul\":4062:4068   */\n      dup6\n        /* \"#utility.yul\":4018:4089   */\n      tag_117\n      jump\t// in\n    tag_126:\n        /* \"#utility.yul\":4136:4145   */\n      dup2\n        /* \"#utility.yul\":4130:4134   */\n      dup2\n        /* \"#utility.yul\":4126:4146   */\n      sub\n        /* \"#utility.yul\":4121:4123   */\n      0x20\n        /* \"#utility.yul\":4110:4119   */\n      dup4\n        /* \"#utility.yul\":4106:4124   */\n      add\n        /* \"#utility.yul\":4099:4147   */\n      mstore\n        /* \"#utility.yul\":4164:4242   */\n      tag_127\n        /* \"#utility.yul\":4237:4241   */\n      dup2\n        /* \"#utility.yul\":4228:4234   */\n      dup5\n        /* \"#utility.yul\":4164:4242   */\n      tag_101\n      jump\t// in\n    tag_127:\n        /* \"#utility.yul\":4156:4242   */\n      swap1\n      pop\n        /* \"#utility.yul\":3826:4249   */\n      swap4\n      swap3\n      pop\n      pop\n      pop\n      jump\t// out\n        /* \"#utility.yul\":4255:4384   */\n    tag_66:\n        /* \"#utility.yul\":4289:4295   */\n      0x00\n        /* \"#utility.yul\":4316:4336   */\n      tag_129\n      tag_130\n      jump\t// in\n    tag_129:\n        /* \"#utility.yul\":4306:4336   */\n      swap1\n      pop\n        /* \"#utility.yul\":4345:4378   */\n      tag_131\n        /* \"#utility.yul\":4373:4377   */\n      dup3\n        /* \"#utility.yul\":4365:4371   */\n      dup3\n        /* \"#utility.yul\":4345:4378   */\n      tag_132\n      jump\t// in\n    tag_131:\n        /* \"#utility.yul\":4255:4384   */\n      swap2\n      swap1\n      pop\n      jump\t// out\n        /* \"#utility.yul\":4390:4465   */\n    tag_130:\n        /* \"#utility.yul\":4423:4429   */\n      0x00\n        /* \"#utility.yul\":4456:4458   */\n      0x40\n        /* \"#utility.yul\":4450:4459   */\n      mload\n        /* \"#utility.yul\":4440:4459   */\n      swap1\n      pop\n        /* \"#utility.yul\":4390:4465   */\n      swap1\n      jump\t// out\n        /* \"#utility.yul\":4471:4779   */\n    tag_65:\n        /* \"#utility.yul\":4533:4537   */\n      0x00\n        /* \"#utility.yul\":4623:4641   */\n      0xffffffffffffffff\n        /* \"#utility.yul\":4615:4621   */\n      dup3\n        /* \"#utility.yul\":4612:4642   */\n      gt\n        /* \"#utility.yul\":4609:4665   */\n      iszero\n      tag_135\n      jumpi\n        /* \"#utility.yul\":4645:4663   */\n      tag_136\n      tag_137\n      jump\t// in\n    tag_136:\n        /* \"#utility.yul\":4609:4665   */\n    tag_135:\n        /* \"#utility.yul\":4683:4712   */\n      tag_138\n        /* \"#utility.yul\":4705:4711   */\n      dup3\n        /* \"#utility.yul\":4683:4712   */\n      tag_110\n      jump\t// in\n    tag_138:\n        /* \"#utility.yul\":4675:4712   */\n      swap1\n      pop\n        /* \"#utility.yul\":4767:4771   */\n      0x20\n        /* \"#utility.yul\":4761:4765   */\n      dup2\n        /* \"#utility.yul\":4757:4772   */\n      add\n        /* \"#utility.yul\":4749:4772   */\n      swap1\n      pop\n        /* \"#utility.yul\":4471:4779   */\n      swap2\n      swap1\n      pop\n      jump\t// out\n        /* \"#utility.yul\":4785:4884   */\n    tag_104:\n        /* \"#utility.yul\":4837:4843   */\n      0x00\n        /* \"#utility.yul\":4871:4876   */\n      dup2\n        /* \"#utility.yul\":4865:4877   */\n      mload\n        /* \"#utility.yul\":4855:4877   */\n      swap1\n      pop\n        /* \"#utility.yul\":4785:4884   */\n      swap2\n      swap1\n      pop\n      jump\t// out\n        /* \"#utility.yul\":4890:5059   */\n    tag_106:\n        /* \"#utility.yul\":4974:4985   */\n      0x00\n        /* \"#utility.yul\":5008:5014   */\n      dup3\n        /* \"#utility.yul\":5003:5006   */\n      dup3\n        /* \"#utility.yul\":4996:5015   */\n      mstore\n        /* \"#utility.yul\":5048:5052   */\n      0x20\n        /* \"#utility.yul\":5043:5046   */\n      dup3\n        /* \"#utility.yul\":5039:5053   */\n      add\n        /* \"#utility.yul\":5024:5053   */\n      swap1\n      pop\n        /* \"#utility.yul\":4890:5059   */\n      swap3\n      swap2\n      pop\n      pop\n      jump\t// out\n        /* \"#utility.yul\":5065:5213   */\n    tag_115:\n        /* \"#utility.yul\":5167:5178   */\n      0x00\n        /* \"#utility.yul\":5204:5207   */\n      dup2\n        /* \"#utility.yul\":5189:5207   */\n      swap1\n      pop\n        /* \"#utility.yul\":5065:5213   */\n      swap3\n      swap2\n      pop\n      pop\n      jump\t// out\n        /* \"#utility.yul\":5219:5296   */\n    tag_120:\n        /* \"#utility.yul\":5256:5263   */\n      0x00\n        /* \"#utility.yul\":5285:5290   */\n      dup2\n        /* \"#utility.yul\":5274:5290   */\n      swap1\n      pop\n        /* \"#utility.yul\":5219:5296   */\n      swap2\n      swap1\n      pop\n      jump\t// out\n        /* \"#utility.yul\":5302:5456   */\n    tag_71:\n        /* \"#utility.yul\":5386:5392   */\n      dup3\n        /* \"#utility.yul\":5381:5384   */\n      dup2\n        /* \"#utility.yul\":5376:5379   */\n      dup4\n        /* \"#utility.yul\":5363:5393   */\n      calldatacopy\n        /* \"#utility.yul\":5448:5449   */\n      0x00\n        /* \"#utility.yul\":5439:5445   */\n      dup4\n        /* \"#utility.yul\":5434:5437   */\n      dup4\n        /* \"#utility.yul\":5430:5446   */\n      add\n        /* \"#utility.yul\":5423:5450   */\n      mstore\n        /* \"#utility.yul\":5302:5456   */\n      pop\n      pop\n      pop\n      jump\t// out\n        /* \"#utility.yul\":5462:5769   */\n    tag_108:\n        /* \"#utility.yul\":5530:5531   */\n      0x00\n        /* \"#utility.yul\":5540:5653   */\n    tag_145:\n        /* \"#utility.yul\":5554:5560   */\n      dup4\n        /* \"#utility.yul\":5551:5552   */\n      dup2\n        /* \"#utility.yul\":5548:5561   */\n      lt\n        /* \"#utility.yul\":5540:5653   */\n      iszero\n      tag_147\n      jumpi\n        /* \"#utility.yul\":5639:5640   */\n      dup1\n        /* \"#utility.yul\":5634:5637   */\n      dup3\n        /* \"#utility.yul\":5630:5641   */\n      add\n        /* \"#utility.yul\":5624:5642   */\n      mload\n        /* \"#utility.yul\":5620:5621   */\n      dup2\n        /* \"#utility.yul\":5615:5618   */\n      dup5\n        /* \"#utility.yul\":5611:5622   */\n      add\n        /* \"#utility.yul\":5604:5643   */\n      mstore\n        /* \"#utility.yul\":5576:5578   */\n      0x20\n        /* \"#utility.yul\":5573:5574   */\n      dup2\n        /* \"#utility.yul\":5569:5579   */\n      add\n        /* \"#utility.yul\":5564:5579   */\n      swap1\n      pop\n        /* \"#utility.yul\":5540:5653   */\n      jump(tag_145)\n    tag_147:\n        /* \"#utility.yul\":5671:5677   */\n      dup4\n        /* \"#utility.yul\":5668:5669   */\n      dup2\n        /* \"#utility.yul\":5665:5678   */\n      gt\n        /* \"#utility.yul\":5662:5763   */\n      iszero\n      tag_148\n      jumpi\n        /* \"#utility.yul\":5751:5752   */\n      0x00\n        /* \"#utility.yul\":5742:5748   */\n      dup5\n        /* \"#utility.yul\":5737:5740   */\n      dup5\n        /* \"#utility.yul\":5733:5749   */\n      add\n        /* \"#utility.yul\":5726:5753   */\n      mstore\n        /* \"#utility.yul\":5662:5763   */\n    tag_148:\n        /* \"#utility.yul\":5511:5769   */\n      pop\n        /* \"#utility.yul\":5462:5769   */\n      pop\n      pop\n      pop\n      jump\t// out\n        /* \"#utility.yul\":5775:6095   */\n    tag_45:\n        /* \"#utility.yul\":5819:5825   */\n      0x00\n        /* \"#utility.yul\":5856:5857   */\n      0x02\n        /* \"#utility.yul\":5850:5854   */\n      dup3\n        /* \"#utility.yul\":5846:5858   */\n      div\n        /* \"#utility.yul\":5836:5858   */\n      swap1\n      pop\n        /* \"#utility.yul\":5903:5904   */\n      0x01\n        /* \"#utility.yul\":5897:5901   */\n      dup3\n        /* \"#utility.yul\":5893:5905   */\n      and\n        /* \"#utility.yul\":5924:5942   */\n      dup1\n        /* \"#utility.yul\":5914:5995   */\n      tag_150\n      jumpi\n        /* \"#utility.yul\":5980:5984   */\n      0x7f\n        /* \"#utility.yul\":5972:5978   */\n      dup3\n        /* \"#utility.yul\":5968:5985   */\n      and\n        /* \"#utility.yul\":5958:5985   */\n      swap2\n      pop\n        /* \"#utility.yul\":5914:5995   */\n    tag_150:\n        /* \"#utility.yul\":6042:6044   */\n      0x20\n        /* \"#utility.yul\":6034:6040   */\n      dup3\n        /* \"#utility.yul\":6031:6045   */\n      lt\n        /* \"#utility.yul\":6011:6029   */\n      dup2\n        /* \"#utility.yul\":6008:6046   */\n      eq\n        /* \"#utility.yul\":6005:6089   */\n      iszero\n      tag_151\n      jumpi\n        /* \"#utility.yul\":6061:6079   */\n      tag_152\n      tag_153\n      jump\t// in\n    tag_152:\n        /* \"#utility.yul\":6005:6089   */\n    tag_151:\n        /* \"#utility.yul\":5826:6095   */\n      pop\n        /* \"#utility.yul\":5775:6095   */\n      swap2\n      swap1\n      pop\n      jump\t// out\n        /* \"#utility.yul\":6101:6382   */\n    tag_132:\n        /* \"#utility.yul\":6184:6211   */\n      tag_155\n        /* \"#utility.yul\":6206:6210   */\n      dup3\n        /* \"#utility.yul\":6184:6211   */\n      tag_110\n      jump\t// in\n    tag_155:\n        /* \"#utility.yul\":6176:6182   */\n      dup2\n        /* \"#utility.yul\":6172:6212   */\n      add\n        /* \"#utility.yul\":6314:6320   */\n      dup2\n        /* \"#utility.yul\":6302:6312   */\n      dup2\n        /* \"#utility.yul\":6299:6321   */\n      lt\n        /* \"#utility.yul\":6278:6296   */\n      0xffffffffffffffff\n        /* \"#utility.yul\":6266:6276   */\n      dup3\n        /* \"#utility.yul\":6263:6297   */\n      gt\n        /* \"#utility.yul\":6260:6322   */\n      or\n        /* \"#utility.yul\":6257:6345   */\n      iszero\n      tag_156\n      jumpi\n        /* \"#utility.yul\":6325:6343   */\n      tag_157\n      tag_137\n      jump\t// in\n    tag_157:\n        /* \"#utility.yul\":6257:6345   */\n    tag_156:\n        /* \"#utility.yul\":6365:6375   */\n      dup1\n        /* \"#utility.yul\":6361:6363   */\n      0x40\n        /* \"#utility.yul\":6354:6376   */\n      mstore\n        /* \"#utility.yul\":6144:6382   */\n      pop\n        /* \"#utility.yul\":6101:6382   */\n      pop\n      pop\n      jump\t// out\n        /* \"#utility.yul\":6388:6568   */\n    tag_153:\n        /* \"#utility.yul\":6436:6513   */\n      0x4e487b7100000000000000000000000000000000000000000000000000000000\n        /* \"#utility.yul\":6433:6434   */\n      0x00\n        /* \"#utility.yul\":6426:6514   */\n      mstore\n        /* \"#utility.yul\":6533:6537   */\n      0x22\n        /* \"#utility.yul\":6530:6531   */\n      0x04\n        /* \"#utility.yul\":6523:6538   */\n      mstore\n        /* \"#utility.yul\":6557:6561   */\n      0x24\n        /* \"#utility.yul\":6554:6555   */\n      0x00\n        /* \"#utility.yul\":6547:6562   */\n      revert\n        /* \"#utility.yul\":6574:6754   */\n    tag_137:\n        /* \"#utility.yul\":6622:6699   */\n      0x4e487b7100000000000000000000000000000000000000000000000000000000\n        /* \"#utility.yul\":6619:6620   */\n      0x00\n        /* \"#utility.yul\":6612:6700   */\n      mstore\n        /* \"#utility.yul\":6719:6723   */\n      0x41\n        /* \"#utility.yul\":6716:6717   */\n      0x04\n        /* \"#utility.yul\":6709:6724   */\n      mstore\n        /* \"#utility.yul\":6743:6747   */\n      0x24\n        /* \"#utility.yul\":6740:6741   */\n      0x00\n        /* \"#utility.yul\":6733:6748   */\n      revert\n        /* \"#utility.yul\":6760:6877   */\n    tag_76:\n        /* \"#utility.yul\":6869:6870   */\n      0x00\n        /* \"#utility.yul\":6866:6867   */\n      dup1\n        /* \"#utility.yul\":6859:6871   */\n      revert\n        /* \"#utility.yul\":6883:7000   */\n    tag_69:\n        /* \"#utility.yul\":6992:6993   */\n      0x00\n        /* \"#utility.yul\":6989:6990   */\n      dup1\n        /* \"#utility.yul\":6982:6994   */\n      revert\n        /* \"#utility.yul\":7006:7123   */\n    tag_88:\n        /* \"#utility.yul\":7115:7116   */\n      0x00\n        /* \"#utility.yul\":7112:7113   */\n      dup1\n        /* \"#utility.yul\":7105:7117   */\n      revert\n        /* \"#utility.yul\":7129:7246   */\n    tag_85:\n        /* \"#utility.yul\":7238:7239   */\n      0x00\n        /* \"#utility.yul\":7235:7236   */\n      dup1\n        /* \"#utility.yul\":7228:7240   */\n      revert\n        /* \"#utility.yul\":7252:7354   */\n    tag_110:\n        /* \"#utility.yul\":7293:7299   */\n      0x00\n        /* \"#utility.yul\":7344:7346   */\n      0x1f\n        /* \"#utility.yul\":7340:7347   */\n      not\n        /* \"#utility.yul\":7335:7337   */\n      0x1f\n        /* \"#utility.yul\":7328:7333   */\n      dup4\n        /* \"#utility.yul\":7324:7338   */\n      add\n        /* \"#utility.yul\":7320:7348   */\n      and\n        /* \"#utility.yul\":7310:7348   */\n      swap1\n      pop\n        /* \"#utility.yul\":7252:7354   */\n      swap2\n      swap1\n      pop\n      jump\t// out\n        /* \"#utility.yul\":7360:7482   */\n    tag_81:\n        /* \"#utility.yul\":7433:7457   */\n      tag_166\n        /* \"#utility.yul\":7451:7456   */\n      dup2\n        /* \"#utility.yul\":7433:7457   */\n      tag_120\n      jump\t// in\n    tag_166:\n        /* \"#utility.yul\":7426:7431   */\n      dup2\n        /* \"#utility.yul\":7423:7458   */\n      eq\n        /* \"#utility.yul\":7413:7476   */\n      tag_167\n      jumpi\n        /* \"#utility.yul\":7472:7473   */\n      0x00\n        /* \"#utility.yul\":7469:7470   */\n      dup1\n        /* \"#utility.yul\":7462:7474   */\n      revert\n        /* \"#utility.yul\":7413:7476   */\n    tag_167:\n        /* \"#utility.yul\":7360:7482   */\n      pop\n      jump\t// out\n\n    auxdata: 0xa2646970667358221220ddc6f1c3b30a8b23c0384ea62fd1ad922ca333d7cb9b03d59a4056e31d5de6c964736f6c63430008070033\n}\n",
				"bytecode": {
					"linkReferences": {},
					"object": "6080604052600560005534801561001557600080fd5b506107a0806100256000396000f3fe608060405234801561001057600080fd5b50600436106100625760003560e01c80632e64cec114610067578063471f7cdf146100855780636057361d146100a35780636f760f41146100bf5780638bab8dd5146100db5780639e7a13ad1461010b575b600080fd5b61006f61013c565b60405161007c9190610559565b60405180910390f35b61008d610145565b60405161009a9190610559565b60405180910390f35b6100bd60048036038101906100b8919061049c565b61014b565b005b6100d960048036038101906100d49190610440565b610155565b005b6100f560048036038101906100f091906103f7565b6101e5565b6040516101029190610559565b60405180910390f35b6101256004803603810190610120919061049c565b610213565b604051610133929190610574565b60405180910390f35b60008054905090565b60005481565b8060008190555050565b600160405180604001604052808381526020018481525090806001815401808255809150506001900390600052602060002090600202016000909190919091506000820151816000015560208201518160010190805190602001906101bb9291906102cf565b505050806002836040516101cf9190610542565b9081526020016040518091039020819055505050565b6002818051602081018201805184825260208301602085012081835280955050505050506000915090505481565b6001818154811061022357600080fd5b906000526020600020906002020160009150905080600001549080600101805461024c9061066d565b80601f01602080910402602001604051908101604052809291908181526020018280546102789061066d565b80156102c55780601f1061029a576101008083540402835291602001916102c5565b820191906000526020600020905b8154815290600101906020018083116102a857829003601f168201915b5050505050905082565b8280546102db9061066d565b90600052602060002090601f0160209004810192826102fd5760008555610344565b82601f1061031657805160ff1916838001178555610344565b82800160010185558215610344579182015b82811115610343578251825591602001919060010190610328565b5b5090506103519190610355565b5090565b5b8082111561036e576000816000905550600101610356565b5090565b6000610385610380846105c9565b6105a4565b9050828152602081018484840111156103a1576103a0610733565b5b6103ac84828561062b565b509392505050565b600082601f8301126103c9576103c861072e565b5b81356103d9848260208601610372565b91505092915050565b6000813590506103f181610753565b92915050565b60006020828403121561040d5761040c61073d565b5b600082013567ffffffffffffffff81111561042b5761042a610738565b5b610437848285016103b4565b91505092915050565b600080604083850312156104575761045661073d565b5b600083013567ffffffffffffffff81111561047557610474610738565b5b610481858286016103b4565b9250506020610492858286016103e2565b9150509250929050565b6000602082840312156104b2576104b161073d565b5b60006104c0848285016103e2565b91505092915050565b60006104d4826105fa565b6104de8185610605565b93506104ee81856020860161063a565b6104f781610742565b840191505092915050565b600061050d826105fa565b6105178185610616565b935061052781856020860161063a565b80840191505092915050565b61053c81610621565b82525050565b600061054e8284610502565b915081905092915050565b600060208201905061056e6000830184610533565b92915050565b60006040820190506105896000830185610533565b818103602083015261059b81846104c9565b90509392505050565b60006105ae6105bf565b90506105ba828261069f565b919050565b6000604051905090565b600067ffffffffffffffff8211156105e4576105e36106ff565b5b6105ed82610742565b9050602081019050919050565b600081519050919050565b600082825260208201905092915050565b600081905092915050565b6000819050919050565b82818337600083830152505050565b60005b8381101561065857808201518184015260208101905061063d565b83811115610667576000848401525b50505050565b6000600282049050600182168061068557607f821691505b60208210811415610699576106986106d0565b5b50919050565b6106a882610742565b810181811067ffffffffffffffff821117156106c7576106c66106ff565b5b80604052505050565b7f4e487b7100000000000000000000000000000000000000000000000000000000600052602260045260246000fd5b7f4e487b7100000000000000000000000000000000000000000000000000000000600052604160045260246000fd5b600080fd5b600080fd5b600080fd5b600080fd5b6000601f19601f8301169050919050565b61075c81610621565b811461076757600080fd5b5056fea2646970667358221220ddc6f1c3b30a8b23c0384ea62fd1ad922ca333d7cb9b03d59a4056e31d5de6c964736f6c63430008070033",
					"opcodes": "PUSH1 0x80 PUSH1 0x40 MSTORE PUSH1 0x5 PUSH1 0x0 SSTORE CALLVALUE DUP1 ISZERO PUSH2 0x15 JUMPI PUSH1 0x0 DUP1 REVERT JUMPDEST POP PUSH2 0x7A0 DUP1 PUSH2 0x25 PUSH1 0x0 CODECOPY PUSH1 0x0 RETURN INVALID PUSH1 0x80 PUSH1 0x40 MSTORE CALLVALUE DUP1 ISZERO PUSH2 0x10 JUMPI PUSH1 0x0 DUP1 REVERT JUMPDEST POP PUSH1 0x4 CALLDATASIZE LT PUSH2 0x62 JUMPI PUSH1 0x0 CALLDATALOAD PUSH1 0xE0 SHR DUP1 PUSH4 0x2E64CEC1 EQ PUSH2 0x67 JUMPI DUP1 PUSH4 0x471F7CDF EQ PUSH2 0x85 JUMPI DUP1 PUSH4 0x6057361D EQ PUSH2 0xA3 JUMPI DUP1 PUSH4 0x6F760F41 EQ PUSH2 0xBF JUMPI DUP1 PUSH4 0x8BAB8DD5 EQ PUSH2 0xDB JUMPI DUP1 PUSH4 0x9E7A13AD EQ PUSH2 0x10B JUMPI JUMPDEST PUSH1 0x0 DUP1 REVERT JUMPDEST PUSH2 0x6F PUSH2 0x13C JUMP JUMPDEST PUSH1 0x40 MLOAD PUSH2 0x7C SWAP2 SWAP1 PUSH2 0x559 JUMP JUMPDEST PUSH1 0x40 MLOAD DUP1 SWAP2 SUB SWAP1 RETURN JUMPDEST PUSH2 0x8D PUSH2 0x145 JUMP JUMPDEST PUSH1 0x40 MLOAD PUSH2 0x9A SWAP2 SWAP1 PUSH2 0x559 JUMP JUMPDEST PUSH1 0x40 MLOAD DUP1 SWAP2 SUB SWAP1 RETURN JUMPDEST PUSH2 0xBD PUSH1 0x4 DUP1 CALLDATASIZE SUB DUP2 ADD SWAP1 PUSH2 0xB8 SWAP2 SWAP1 PUSH2 0x49C JUMP JUMPDEST PUSH2 0x14B JUMP JUMPDEST STOP JUMPDEST PUSH2 0xD9 PUSH1 0x4 DUP1 CALLDATASIZE SUB DUP2 ADD SWAP1 PUSH2 0xD4 SWAP2 SWAP1 PUSH2 0x440 JUMP JUMPDEST PUSH2 0x155 JUMP JUMPDEST STOP JUMPDEST PUSH2 0xF5 PUSH1 0x4 DUP1 CALLDATASIZE SUB DUP2 ADD SWAP1 PUSH2 0xF0 SWAP2 SWAP1 PUSH2 0x3F7 JUMP JUMPDEST PUSH2 0x1E5 JUMP JUMPDEST PUSH1 0x40 MLOAD PUSH2 0x102 SWAP2 SWAP1 PUSH2 0x559 JUMP JUMPDEST PUSH1 0x40 MLOAD DUP1 SWAP2 SUB SWAP1 RETURN JUMPDEST PUSH2 0x125 PUSH1 0x4 DUP1 CALLDATASIZE SUB DUP2 ADD SWAP1 PUSH2 0x120 SWAP2 SWAP1 PUSH2 0x49C JUMP JUMPDEST PUSH2 0x213 JUMP JUMPDEST PUSH1 0x40 MLOAD PUSH2 0x133 SWAP3 SWAP2 SWAP1 PUSH2 0x574 JUMP JUMPDEST PUSH1 0x40 MLOAD DUP1 SWAP2 SUB SWAP1 RETURN JUMPDEST PUSH1 0x0 DUP1 SLOAD SWAP1 POP SWAP1 JUMP JUMPDEST PUSH1 0x0 SLOAD DUP2 JUMP JUMPDEST DUP1 PUSH1 0x0 DUP2 SWAP1 SSTORE POP POP JUMP JUMPDEST PUSH1 0x1 PUSH1 0x40 MLOAD DUP1 PUSH1 0x40 ADD PUSH1 0x40 MSTORE DUP1 DUP4 DUP2 MSTORE PUSH1 0x20 ADD DUP5 DUP2 MSTORE POP SWAP1 DUP1 PUSH1 0x1 DUP2 SLOAD ADD DUP1 DUP3 SSTORE DUP1 SWAP2 POP POP PUSH1 0x1 SWAP1 SUB SWAP1 PUSH1 0x0 MSTORE PUSH1 0x20 PUSH1 0x0 KECCAK256 SWAP1 PUSH1 0x2 MUL ADD PUSH1 0x0 SWAP1 SWAP2 SWAP1 SWAP2 SWAP1 SWAP2 POP PUSH1 0x0 DUP3 ADD MLOAD DUP2 PUSH1 0x0 ADD SSTORE PUSH1 0x20 DUP3 ADD MLOAD DUP2 PUSH1 0x1 ADD SWAP1 DUP1 MLOAD SWAP1 PUSH1 0x20 ADD SWAP1 PUSH2 0x1BB SWAP3 SWAP2 SWAP1 PUSH2 0x2CF JUMP JUMPDEST POP POP POP DUP1 PUSH1 0x2 DUP4 PUSH1 0x40 MLOAD PUSH2 0x1CF SWAP2 SWAP1 PUSH2 0x542 JUMP JUMPDEST SWAP1 DUP2 MSTORE PUSH1 0x20 ADD PUSH1 0x40 MLOAD DUP1 SWAP2 SUB SWAP1 KECCAK256 DUP2 SWAP1 SSTORE POP POP POP JUMP JUMPDEST PUSH1 0x2 DUP2 DUP1 MLOAD PUSH1 0x20 DUP2 ADD DUP3 ADD DUP1 MLOAD DUP5 DUP3 MSTORE PUSH1 0x20 DUP4 ADD PUSH1 0x20 DUP6 ADD KECCAK256 DUP2 DUP4 MSTORE DUP1 SWAP6 POP POP POP POP POP POP PUSH1 0x0 SWAP2 POP SWAP1 POP SLOAD DUP2 JUMP JUMPDEST PUSH1 0x1 DUP2 DUP2 SLOAD DUP2 LT PUSH2 0x223 JUMPI PUSH1 0x0 DUP1 REVERT JUMPDEST SWAP1 PUSH1 0x0 MSTORE PUSH1 0x20 PUSH1 0x0 KECCAK256 SWAP1 PUSH1 0x2 MUL ADD PUSH1 0x0 SWAP2 POP SWAP1 POP DUP1 PUSH1 0x0 ADD SLOAD SWAP1 DUP1 PUSH1 0x1 ADD DUP1 SLOAD PUSH2 0x24C SWAP1 PUSH2 0x66D JUMP JUMPDEST DUP1 PUSH1 0x1F ADD PUSH1 0x20 DUP1 SWAP2 DIV MUL PUSH1 0x20 ADD PUSH1 0x40 MLOAD SWAP1 DUP2 ADD PUSH1 0x40 MSTORE DUP1 SWAP3 SWAP2 SWAP1 DUP2 DUP2 MSTORE PUSH1 0x20 ADD DUP3 DUP1 SLOAD PUSH2 0x278 SWAP1 PUSH2 0x66D JUMP JUMPDEST DUP1 ISZERO PUSH2 0x2C5 JUMPI DUP1 PUSH1 0x1F LT PUSH2 0x29A JUMPI PUSH2 0x100 DUP1 DUP4 SLOAD DIV MUL DUP4 MSTORE SWAP2 PUSH1 0x20 ADD SWAP2 PUSH2 0x2C5 JUMP JUMPDEST DUP3 ADD SWAP2 SWAP1 PUSH1 0x0 MSTORE PUSH1 0x20 PUSH1 0x0 KECCAK256 SWAP1 JUMPDEST DUP2 SLOAD DUP2 MSTORE SWAP1 PUSH1 0x1 ADD SWAP1 PUSH1 0x20 ADD DUP1 DUP4 GT PUSH2 0x2A8 JUMPI DUP3 SWAP1 SUB PUSH1 0x1F AND DUP3 ADD SWAP2 JUMPDEST POP POP POP POP POP SWAP1 POP DUP3 JUMP JUMPDEST DUP3 DUP1 SLOAD PUSH2 0x2DB SWAP1 PUSH2 0x66D JUMP JUMPDEST SWAP1 PUSH1 0x0 MSTORE PUSH1 0x20 PUSH1 0x0 KECCAK256 SWAP1 PUSH1 0x1F ADD PUSH1 0x20 SWAP1 DIV DUP2 ADD SWAP3 DUP3 PUSH2 0x2FD JUMPI PUSH1 0x0 DUP6 SSTORE PUSH2 0x344 JUMP JUMPDEST DUP3 PUSH1 0x1F LT PUSH2 0x316 JUMPI DUP1 MLOAD PUSH1 0xFF NOT AND DUP4 DUP1 ADD OR DUP6 SSTORE PUSH2 0x344 JUMP JUMPDEST DUP3 DUP1 ADD PUSH1 0x1 ADD DUP6 SSTORE DUP3 ISZERO PUSH2 0x344 JUMPI SWAP2 DUP3 ADD JUMPDEST DUP3 DUP2 GT ISZERO PUSH2 0x343 JUMPI DUP3 MLOAD DUP3 SSTORE SWAP2 PUSH1 0x20 ADD SWAP2 SWAP1 PUSH1 0x1 ADD SWAP1 PUSH2 0x328 JUMP JUMPDEST JUMPDEST POP SWAP1 POP PUSH2 0x351 SWAP2 SWAP1 PUSH2 0x355 JUMP JUMPDEST POP SWAP1 JUMP JUMPDEST JUMPDEST DUP1 DUP3 GT ISZERO PUSH2 0x36E JUMPI PUSH1 0x0 DUP2 PUSH1 0x0 SWAP1 SSTORE POP PUSH1 0x1 ADD PUSH2 0x356 JUMP JUMPDEST POP SWAP1 JUMP JUMPDEST PUSH1 0x0 PUSH2 0x385 PUSH2 0x380 DUP5 PUSH2 0x5C9 JUMP JUMPDEST PUSH2 0x5A4 JUMP JUMPDEST SWAP1 POP DUP3 DUP2 MSTORE PUSH1 0x20 DUP2 ADD DUP5 DUP5 DUP5 ADD GT ISZERO PUSH2 0x3A1 JUMPI PUSH2 0x3A0 PUSH2 0x733 JUMP JUMPDEST JUMPDEST PUSH2 0x3AC DUP5 DUP3 DUP6 PUSH2 0x62B JUMP JUMPDEST POP SWAP4 SWAP3 POP POP POP JUMP JUMPDEST PUSH1 0x0 DUP3 PUSH1 0x1F DUP4 ADD SLT PUSH2 0x3C9 JUMPI PUSH2 0x3C8 PUSH2 0x72E JUMP JUMPDEST JUMPDEST DUP2 CALLDATALOAD PUSH2 0x3D9 DUP5 DUP3 PUSH1 0x20 DUP7 ADD PUSH2 0x372 JUMP JUMPDEST SWAP2 POP POP SWAP3 SWAP2 POP POP JUMP JUMPDEST PUSH1 0x0 DUP2 CALLDATALOAD SWAP1 POP PUSH2 0x3F1 DUP2 PUSH2 0x753 JUMP JUMPDEST SWAP3 SWAP2 POP POP JUMP JUMPDEST PUSH1 0x0 PUSH1 0x20 DUP3 DUP5 SUB SLT ISZERO PUSH2 0x40D JUMPI PUSH2 0x40C PUSH2 0x73D JUMP JUMPDEST JUMPDEST PUSH1 0x0 DUP3 ADD CALLDATALOAD PUSH8 0xFFFFFFFFFFFFFFFF DUP2 GT ISZERO PUSH2 0x42B JUMPI PUSH2 0x42A PUSH2 0x738 JUMP JUMPDEST JUMPDEST PUSH2 0x437 DUP5 DUP3 DUP6 ADD PUSH2 0x3B4 JUMP JUMPDEST SWAP2 POP POP SWAP3 SWAP2 POP POP JUMP JUMPDEST PUSH1 0x0 DUP1 PUSH1 0x40 DUP4 DUP6 SUB SLT ISZERO PUSH2 0x457 JUMPI PUSH2 0x456 PUSH2 0x73D JUMP JUMPDEST JUMPDEST PUSH1 0x0 DUP4 ADD CALLDATALOAD PUSH8 0xFFFFFFFFFFFFFFFF DUP2 GT ISZERO PUSH2 0x475 JUMPI PUSH2 0x474 PUSH2 0x738 JUMP JUMPDEST JUMPDEST PUSH2 0x481 DUP6 DUP3 DUP7 ADD PUSH2 0x3B4 JUMP JUMPDEST SWAP3 POP POP PUSH1 0x20 PUSH2 0x492 DUP6 DUP3 DUP7 ADD PUSH2 0x3E2 JUMP JUMPDEST SWAP2 POP POP SWAP3 POP SWAP3 SWAP1 POP JUMP JUMPDEST PUSH1 0x0 PUSH1 0x20 DUP3 DUP5 SUB SLT ISZERO PUSH2 0x4B2 JUMPI PUSH2 0x4B1 PUSH2 0x73D JUMP JUMPDEST JUMPDEST PUSH1 0x0 PUSH2 0x4C0 DUP5 DUP3 DUP6 ADD PUSH2 0x3E2 JUMP JUMPDEST SWAP2 POP POP SWAP3 SWAP2 POP POP JUMP JUMPDEST PUSH1 0x0 PUSH2 0x4D4 DUP3 PUSH2 0x5FA JUMP JUMPDEST PUSH2 0x4DE DUP2 DUP6 PUSH2 0x605 JUMP JUMPDEST SWAP4 POP PUSH2 0x4EE DUP2 DUP6 PUSH1 0x20 DUP7 ADD PUSH2 0x63A JUMP JUMPDEST PUSH2 0x4F7 DUP2 PUSH2 0x742 JUMP JUMPDEST DUP5 ADD SWAP2 POP POP SWAP3 SWAP2 POP POP JUMP JUMPDEST PUSH1 0x0 PUSH2 0x50D DUP3 PUSH2 0x5FA JUMP JUMPDEST PUSH2 0x517 DUP2 DUP6 PUSH2 0x616 JUMP JUMPDEST SWAP4 POP PUSH2 0x527 DUP2 DUP6 PUSH1 0x20 DUP7 ADD PUSH2 0x63A JUMP JUMPDEST DUP1 DUP5 ADD SWAP2 POP POP SWAP3 SWAP2 POP POP JUMP JUMPDEST PUSH2 0x53C DUP2 PUSH2 0x621 JUMP JUMPDEST DUP3 MSTORE POP POP JUMP JUMPDEST PUSH1 0x0 PUSH2 0x54E DUP3 DUP5 PUSH2 0x502 JUMP JUMPDEST SWAP2 POP DUP2 SWAP1 POP SWAP3 SWAP2 POP POP JUMP JUMPDEST PUSH1 0x0 PUSH1 0x20 DUP3 ADD SWAP1 POP PUSH2 0x56E PUSH1 0x0 DUP4 ADD DUP5 PUSH2 0x533 JUMP JUMPDEST SWAP3 SWAP2 POP POP JUMP JUMPDEST PUSH1 0x0 PUSH1 0x40 DUP3 ADD SWAP1 POP PUSH2 0x589 PUSH1 0x0 DUP4 ADD DUP6 PUSH2 0x533 JUMP JUMPDEST DUP2 DUP2 SUB PUSH1 0x20 DUP4 ADD MSTORE PUSH2 0x59B DUP2 DUP5 PUSH2 0x4C9 JUMP JUMPDEST SWAP1 POP SWAP4 SWAP3 POP POP POP JUMP JUMPDEST PUSH1 0x0 PUSH2 0x5AE PUSH2 0x5BF JUMP JUMPDEST SWAP1 POP PUSH2 0x5BA DUP3 DUP3 PUSH2 0x69F JUMP JUMPDEST SWAP2 SWAP1 POP JUMP JUMPDEST PUSH1 0x0 PUSH1 0x40 MLOAD SWAP1 POP SWAP1 JUMP JUMPDEST PUSH1 0x0 PUSH8 0xFFFFFFFFFFFFFFFF DUP3 GT ISZERO PUSH2 0x5E4 JUMPI PUSH2 0x5E3 PUSH2 0x6FF JUMP JUMPDEST JUMPDEST PUSH2 0x5ED DUP3 PUSH2 0x742 JUMP JUMPDEST SWAP1 POP PUSH1 0x20 DUP2 ADD SWAP1 POP SWAP2 SWAP1 POP JUMP JUMPDEST PUSH1 0x0 DUP2 MLOAD SWAP1 POP SWAP2 SWAP1 POP JUMP JUMPDEST PUSH1 0x0 DUP3 DUP3 MSTORE PUSH1 0x20 DUP3 ADD SWAP1 POP SWAP3 SWAP2 POP POP JUMP JUMPDEST PUSH1 0x0 DUP2 SWAP1 POP SWAP3 SWAP2 POP POP JUMP JUMPDEST PUSH1 0x0 DUP2 SWAP1 POP SWAP2 SWAP1 POP JUMP JUMPDEST DUP3 DUP2 DUP4 CALLDATACOPY PUSH1 0x0 DUP4 DUP4 ADD MSTORE POP POP POP JUMP JUMPDEST PUSH1 0x0 JUMPDEST DUP4 DUP2 LT ISZERO PUSH2 0x658 JUMPI DUP1 DUP3 ADD MLOAD DUP2 DUP5 ADD MSTORE PUSH1 0x20 DUP2 ADD SWAP1 POP PUSH2 0x63D JUMP JUMPDEST DUP4 DUP2 GT ISZERO PUSH2 0x667 JUMPI PUSH1 0x0 DUP5 DUP5 ADD MSTORE JUMPDEST POP POP POP POP JUMP JUMPDEST PUSH1 0x0 PUSH1 0x2 DUP3 DIV SWAP1 POP PUSH1 0x1 DUP3 AND DUP1 PUSH2 0x685 JUMPI PUSH1 0x7F DUP3 AND SWAP2 POP JUMPDEST PUSH1 0x20 DUP3 LT DUP2 EQ ISZERO PUSH2 0x699 JUMPI PUSH2 0x698 PUSH2 0x6D0 JUMP JUMPDEST JUMPDEST POP SWAP2 SWAP1 POP JUMP JUMPDEST PUSH2 0x6A8 DUP3 PUSH2 0x742 JUMP JUMPDEST DUP2 ADD DUP2 DUP2 LT PUSH8 0xFFFFFFFFFFFFFFFF DUP3 GT OR ISZERO PUSH2 0x6C7 JUMPI PUSH2 0x6C6 PUSH2 0x6FF JUMP JUMPDEST JUMPDEST DUP1 PUSH1 0x40 MSTORE POP POP POP JUMP JUMPDEST PUSH32 0x4E487B7100000000000000000000000000000000000000000000000000000000 PUSH1 0x0 MSTORE PUSH1 0x22 PUSH1 0x4 MSTORE PUSH1 0x24 PUSH1 0x0 REVERT JUMPDEST PUSH32 0x4E487B7100000000000000000000000000000000000000000000000000000000 PUSH1 0x0 MSTORE PUSH1 0x41 PUSH1 0x4 MSTORE PUSH1 0x24 PUSH1 0x0 REVERT JUMPDEST PUSH1 0x0 DUP1 REVERT JUMPDEST PUSH1 0x0 DUP1 REVERT JUMPDEST PUSH1 0x0 DUP1 REVERT JUMPDEST PUSH1 0x0 DUP1 REVERT JUMPDEST PUSH1 0x0 PUSH1 0x1F NOT PUSH1 0x1F DUP4 ADD AND SWAP1 POP SWAP2 SWAP1 POP JUMP JUMPDEST PUSH2 0x75C DUP2 PUSH2 0x621 JUMP JUMPDEST DUP2 EQ PUSH2 0x767 JUMPI PUSH1 0x0 DUP1 REVERT JUMPDEST POP JUMP INVALID LOG2 PUSH5 0x6970667358 0x22 SLT KECCAK256 0xDD 0xC6 CALL 0xC3 0xB3 EXP DUP12 0x23 0xC0 CODESIZE 0x4E 0xA6 0x2F 0xD1 0xAD SWAP3 0x2C LOG3 CALLER 0xD7 0xCB SWAP12 SUB 0xD5 SWAP11 BLOCKHASH JUMP 0xE3 SAR 0x5D 0xE6 0xC9 PUSH5 0x736F6C6343 STOP ADDMOD SMOD STOP CALLER "
				},
				"gasEstimates": {
					"creation": {
						"codeDepositCost": "390400",
						"executionCost": "22530",
						"totalCost": "412930"
					},
					"external": {
						"addPerson(string,uint256)": "infinite",
						"favoriteNumber()": "2429",
						"nameToFavoriteNumber(string)": "infinite",
						"people(uint256)": "infinite",
						"retrieve()": "2415",
						"store(uint256)": "22542"
					}
				},
				"methodIdentifiers": {
					"addPerson(string,uint256)": "6f760f41",
					"favoriteNumber()": "471f7cdf",
					"nameToFavoriteNumber(string)": "8bab8dd5",
					"people(uint256)": "9e7a13ad",
					"retrieve()": "2e64cec1",
					"store(uint256)": "6057361d"
				}
			},
			"storageLayout": {
				"storage": [
					{
						"astId": 4,
						"contract": "SimpleStorage.sol:SimpleStorage",
						"label": "favoriteNumber",
						"offset": 0,
						"slot": "0",
						"type": "t_uint256"
					},
					{
						"astId": 13,
						"contract": "SimpleStorage.sol:SimpleStorage",
						"label": "people",
						"offset": 0,
						"slot": "1",
						"type": "t_array(t_struct(People)9_storage)dyn_storage"
					},
					{
						"astId": 17,
						"contract": "SimpleStorage.sol:SimpleStorage",
						"label": "nameToFavoriteNumber",
						"offset": 0,
						"slot": "2",
						"type": "t_mapping(t_string_memory_ptr,t_uint256)"
					}
				],
				"types": {
					"t_array(t_struct(People)9_storage)dyn_storage": {
						"base": "t_struct(People)9_storage",
						"encoding": "dynamic_array",
						"label": "struct SimpleStorage.People[]",
						"numberOfBytes": "32"
					},
					"t_mapping(t_string_memory_ptr,t_uint256)": {
						"encoding": "mapping",
						"key": "t_string_memory_ptr",
						"label": "mapping(string => uint256)",
						"numberOfBytes": "32",
						"value": "t_uint256"
					},
					"t_string_memory_ptr": {
						"encoding": "bytes",
						"label": "string",
						"numberOfBytes": "32"
					},
					"t_string_storage": {
						"encoding": "bytes",
						"label": "string",
						"numberOfBytes": "32"
					},
					"t_struct(People)9_storage": {
						"encoding": "inplace",
						"label": "struct SimpleStorage.People",
						"members": [
							{
								"astId": 6,
								"contract": "SimpleStorage.sol:SimpleStorage",
								"label": "favoriteNumber",
								"offset": 0,
								"slot": "0",
								"type": "t_uint256"
							},
							{
								"astId": 8,
								"contract": "SimpleStorage.sol:SimpleStorage",
								"label": "name",
								"offset": 0,
								"slot": "1",
								"type": "t_string_storage"
							}
						],
						"numberOfBytes": "64"
					},
					"t_uint256": {
						"encoding": "inplace",
						"label": "uint256",
						"numberOfBytes": "32"
					}
				}
			},
			"userdoc": {
				"kind": "user",
				"methods": {},
				"version": 1
			}
		}
	}
}